{
	"data": {
		"bytecode": {
			"linkReferences": {},
			"object": "60a06040526040518060400160405280600e81526020017f47726565647956657273654e46540000000000000000000000000000000000008152506007908051906020019062000051929190620009c9565b506040518060400160405280600481526020017f474e465400000000000000000000000000000000000000000000000000000000815250600890805190602001906200009f929190620009c9565b50604051806103c0016040528062015f9062ffffff16815260200161753062ffffff168152602001621b774062ffffff168152602001621b774062ffffff16815260200161ea6062ffffff16815260200161ea6062ffffff16815260200161bb8062ffffff16815260200161bb8062ffffff16815260200161697862ffffff16815260200161753062ffffff16815260200162015f9062ffffff16815260200161753062ffffff168152602001611fa462ffffff1681526020016134bc62ffffff16815260200161546062ffffff1681526020016201d4c062ffffff1681526020016202bf2062ffffff16815260200161546062ffffff1681526020016203a98062ffffff1681526020016201d4c062ffffff168152602001611c2062ffffff168152602001611fa462ffffff16815260200161261662ffffff16815260200161753062ffffff1681526020016201d4c062ffffff16815260200161753062ffffff1681526020016203a98062ffffff1681526020016207530062ffffff1681526020016201d4c062ffffff16815260200161ea6062ffffff16815250600990601e6200024e92919062000a5a565b50604051806103c00160405280600060ff168152602001600060ff168152602001600060ff168152602001600060ff168152602001600060ff168152602001600060ff168152602001600060ff168152602001600060ff168152602001600060ff168152602001600060ff168152602001600060ff168152602001600060ff168152602001600060ff168152602001600060ff168152602001600060ff168152602001600060ff168152602001600060ff168152602001600060ff168152602001600060ff168152602001600060ff168152602001600060ff168152602001600060ff168152602001600060ff168152602001600060ff168152602001600060ff168152602001600060ff168152602001600060ff168152602001600060ff168152602001600060ff168152602001600060ff16815250602790601e6200039792919062000aa6565b50604051806103c00160405280668e1bc9bf04000067ffffffffffffffff1681526020016701aa535d3d0c000067ffffffffffffffff1681526020016605543df729c00067ffffffffffffffff1681526020016605543df729c00067ffffffffffffffff16815260200166d529ae9e86000067ffffffffffffffff16815260200166d529ae9e86000067ffffffffffffffff16815260200167010a741a4627800067ffffffffffffffff16815260200167010a741a4627800067ffffffffffffffff1681526020016701d9b1f5d20d555267ffffffffffffffff1681526020016701aa535d3d0c000067ffffffffffffffff168152602001668e1bc9bf04000067ffffffffffffffff1681526020016701aa535d3d0c000067ffffffffffffffff16815260200167062afbde1181c6f067ffffffffffffffff1681526020016703b363eba41aaaa467ffffffffffffffff1681526020016702501e734690aaa467ffffffffffffffff168152602001666a94d74f43000067ffffffffffffffff16815260200166470de4df82000067ffffffffffffffff1681526020016702501e734690aaa467ffffffffffffffff16815260200166354a6ba7a1800067ffffffffffffffff168152602001666a94d74f43000067ffffffffffffffff1681526020016706f05b59d3b2000067ffffffffffffffff16815260200167062afbde1181c6f067ffffffffffffffff16815260200167051fc56da824ec6267ffffffffffffffff1681526020016701aa535d3d0c000067ffffffffffffffff168152602001666a94d74f43000067ffffffffffffffff1681526020016701aa535d3d0c000067ffffffffffffffff16815260200166354a6ba7a1800067ffffffffffffffff168152602001661aa535d3d0c00067ffffffffffffffff168152602001666a94d74f43000067ffffffffffffffff1681526020016701aa535d3d0c000067ffffffffffffffff16815250604590601e6200067692919062000af0565b506028606355601e606455601e60655560056066556002606755600260685560036069556003606a556003606b5573b546fc62dcb523c4f5f1581021bf27a8019b5516606c60006101000a81548173ffffffffffffffffffffffffffffffffffffffff021916908373ffffffffffffffffffffffffffffffffffffffff1602179055506000607060006101000a81548160ff0219169083151502179055506000607060016101000a81548160ff0219169083151502179055503480156200073c57600080fd5b5060405180606001604052806035815260200162007ee2603591396200076881620008df60201b60201c565b50620007896200077d620008fb60201b60201c565b6200090360201b60201c565b7322b7b595e4bd0304bbb55e475a01adc573986c5f600460006101000a81548173ffffffffffffffffffffffffffffffffffffffff021916908373ffffffffffffffffffffffffffffffffffffffff160217905550739e560d6a9e13cf6fbe7a4819aeaf9a05453932c3600560006101000a81548173ffffffffffffffffffffffffffffffffffffffff021916908373ffffffffffffffffffffffffffffffffffffffff1602179055507364216e7cd90a112d547c92018e3f8fd2055e4b01600660006101000a81548173ffffffffffffffffffffffffffffffffffffffff021916908373ffffffffffffffffffffffffffffffffffffffff16021790555060007310ed43c718714eb63d5aa57b78b54704e256024e90508073ffffffffffffffffffffffffffffffffffffffff1660808173ffffffffffffffffffffffffffffffffffffffff1660601b815250505062000bc5565b8060029080519060200190620008f7929190620009c9565b5050565b600033905090565b6000600360009054906101000a900473ffffffffffffffffffffffffffffffffffffffff16905081600360006101000a81548173ffffffffffffffffffffffffffffffffffffffff021916908373ffffffffffffffffffffffffffffffffffffffff1602179055508173ffffffffffffffffffffffffffffffffffffffff168173ffffffffffffffffffffffffffffffffffffffff167f8be0079c531659141344cd1fd0a4f28419497f9722a3daafe3b4186f6b6457e060405160405180910390a35050565b828054620009d79062000b60565b90600052602060002090601f016020900481019282620009fb576000855562000a47565b82601f1062000a1657805160ff191683800117855562000a47565b8280016001018555821562000a47579182015b8281111562000a4657825182559160200191906001019062000a29565b5b50905062000a56919062000b41565b5090565b82601e810192821562000a93579160200282015b8281111562000a92578251829062ffffff1690559160200191906001019062000a6e565b5b50905062000aa2919062000b41565b5090565b82601e810192821562000add579160200282015b8281111562000adc578251829060ff1690559160200191906001019062000aba565b5b50905062000aec919062000b41565b5090565b82601e810192821562000b2e579160200282015b8281111562000b2d578251829067ffffffffffffffff1690559160200191906001019062000b04565b5b50905062000b3d919062000b41565b5090565b5b8082111562000b5c57600081600090555060010162000b42565b5090565b6000600282049050600182168062000b7957607f821691505b6020821081141562000b905762000b8f62000b96565b5b50919050565b7f4e487b7100000000000000000000000000000000000000000000000000000000600052602260045260246000fd5b60805160601c6172f062000bf26000396000818161223001528181613dde0152613f3b01526172f06000f3fe60806040526004361061027b5760003560e01c806395d89b411161014f578063ce24359c116100c1578063ef463b641161007a578063ef463b6414610963578063f242432a146109a1578063f2fde38b146109ca578063f399a751146109f3578063f6361c9d14610a30578063fe1881c414610a5b5761027b565b8063ce24359c14610872578063d9397adc1461088e578063e13401e4146108a5578063e5dffed3146108d0578063e985e9c5146108fb578063edd43c9f146109385761027b565b8063b3bc6c8f11610113578063b3bc6c8f14610772578063b4ecbe221461079d578063b903b07d146107b4578063c0ff4bb4146107df578063c48d6fc71461081c578063caa9f716146108475761027b565b806395d89b4114610679578063a22cb465146106a4578063a6c808ff146106cd578063ae95f107146106f8578063afa85e32146107355761027b565b806337cacee7116101f357806359927044116101ac578063599270441461058a578063636737d5146105b55780636a884b8f146105de578063715018a6146105fa57806380fba42f146106115780638da5cb5b1461064e5761027b565b806337cacee71461045457806347ee03941461047f5780634e1273f4146104a857806351f038c5146104e557806357668602146105225780635784e7da1461055f5761027b565b806306fdde031161024557806306fdde03146103655780630e89341c146103905780631b2ef1ca146103cd5780632be09561146103e95780632eb2c2d61461040057806334c73884146104295761027b565b80629f888214610280578062fdd58e146102ab578063017043a5146102e857806301bf6648146102ff57806301ffc9a714610328575b600080fd5b34801561028c57600080fd5b50610295610a86565b6040516102a29190616269565b60405180910390f35b3480156102b757600080fd5b506102d260048036038101906102cd91906152dc565b610a8c565b6040516102df9190616269565b60405180910390f35b3480156102f457600080fd5b506102fd610b55565b005b34801561030b57600080fd5b506103266004803603810190610321919061509c565b610b7a565b005b34801561033457600080fd5b5061034f600480360381019061034a9190615433565b610bdd565b60405161035c9190615d45565b60405180910390f35b34801561037157600080fd5b5061037a610cbf565b6040516103879190615dc7565b60405180910390f35b34801561039c57600080fd5b506103b760048036038101906103b2919061548d565b610d4d565b6040516103c49190615dc7565b60405180910390f35b6103e760048036038101906103e291906154ba565b610de1565b005b3480156103f557600080fd5b506103fe610e3e565b005b34801561040c57600080fd5b5061042760048036038101906104229190615136565b610e63565b005b34801561043557600080fd5b5061043e6119c7565b60405161044b9190615d45565b60405180910390f35b34801561046057600080fd5b506104696119da565b6040516104769190616269565b60405180910390f35b34801561048b57600080fd5b506104a660048036038101906104a1919061509c565b6119e0565b005b3480156104b457600080fd5b506104cf60048036038101906104ca919061531c565b611a43565b6040516104dc9190615cec565b60405180910390f35b3480156104f157600080fd5b5061050c600480360381019061050791906152dc565b611b5c565b6040516105199190616269565b60405180910390f35b34801561052e57600080fd5b506105496004803603810190610544919061548d565b611bb7565b6040516105569190616269565b60405180910390f35b34801561056b57600080fd5b50610574611bd2565b6040516105819190615c0f565b60405180910390f35b34801561059657600080fd5b5061059f611bf8565b6040516105ac9190615c0f565b60405180910390f35b3480156105c157600080fd5b506105dc60048036038101906105d79190615394565b611c1e565b005b6105f860048036038101906105f391906154ba565b611d33565b005b34801561060657600080fd5b5061060f611f1b565b005b34801561061d57600080fd5b506106386004803603810190610633919061548d565b611f2f565b6040516106459190616269565b60405180910390f35b34801561065a57600080fd5b50610663611f4a565b6040516106709190615bf4565b60405180910390f35b34801561068557600080fd5b5061068e611f74565b60405161069b9190615dc7565b60405180910390f35b3480156106b057600080fd5b506106cb60048036038101906106c6919061529c565b612002565b005b3480156106d957600080fd5b506106e2612018565b6040516106ef9190616269565b60405180910390f35b34801561070457600080fd5b5061071f600480360381019061071a91906152dc565b61201e565b60405161072c9190616269565b60405180910390f35b34801561074157600080fd5b5061075c600480360381019061075791906152dc565b612043565b6040516107699190616269565b60405180910390f35b34801561077e57600080fd5b506107876120a1565b6040516107949190616269565b60405180910390f35b3480156107a957600080fd5b506107b26120a7565b005b3480156107c057600080fd5b506107c96120cc565b6040516107d69190616269565b60405180910390f35b3480156107eb57600080fd5b506108066004803603810190610801919061548d565b6120d2565b6040516108139190616269565b60405180910390f35b34801561082857600080fd5b506108316120ed565b60405161083e9190616269565b60405180910390f35b34801561085357600080fd5b5061085c6120f3565b6040516108699190616269565b60405180910390f35b61088c600480360381019061088791906154ba565b6120f9565b005b34801561089a57600080fd5b506108a36121e3565b005b3480156108b157600080fd5b506108ba612208565b6040516108c79190615c0f565b60405180910390f35b3480156108dc57600080fd5b506108e561222e565b6040516108f29190615d60565b60405180910390f35b34801561090757600080fd5b50610922600480360381019061091d91906150f6565b612252565b60405161092f9190615d45565b60405180910390f35b34801561094457600080fd5b5061094d6122e6565b60405161095a9190616269565b60405180910390f35b34801561096f57600080fd5b5061098a600480360381019061098591906152dc565b6122ec565b604051610998929190616284565b60405180910390f35b3480156109ad57600080fd5b506109c860048036038101906109c39190615205565b61231d565b005b3480156109d657600080fd5b506109f160048036038101906109ec919061509c565b612e21565b005b3480156109ff57600080fd5b50610a1a6004803603810190610a1591906152dc565b612ea5565b604051610a279190616269565b60405180910390f35b348015610a3c57600080fd5b50610a45612f03565b604051610a529190616269565b60405180910390f35b348015610a6757600080fd5b50610a70612f09565b604051610a7d9190615d45565b60405180910390f35b60635481565b60008073ffffffffffffffffffffffffffffffffffffffff168373ffffffffffffffffffffffffffffffffffffffff161415610afd576040517f08c379a0000000000000000000000000000000000000000000000000000000008152600401610af490615f29565b60405180910390fd5b60008083815260200190815260200160002060008473ffffffffffffffffffffffffffffffffffffffff1673ffffffffffffffffffffffffffffffffffffffff16815260200190815260200160002054905092915050565b610b5d612f1c565b6000607060006101000a81548160ff021916908315150217905550565b610b82612f1c565b6000606f60008373ffffffffffffffffffffffffffffffffffffffff1673ffffffffffffffffffffffffffffffffffffffff16815260200190815260200160002060006101000a81548160ff02191690831515021790555050565b60007fd9b67a26000000000000000000000000000000000000000000000000000000007bffffffffffffffffffffffffffffffffffffffffffffffffffffffff1916827bffffffffffffffffffffffffffffffffffffffffffffffffffffffff19161480610ca857507f0e89341c000000000000000000000000000000000000000000000000000000007bffffffffffffffffffffffffffffffffffffffffffffffffffffffff1916827bffffffffffffffffffffffffffffffffffffffffffffffffffffffff1916145b80610cb85750610cb782612f9a565b5b9050919050565b60078054610ccc90616635565b80601f0160208091040260200160405190810160405280929190818152602001828054610cf890616635565b8015610d455780601f10610d1a57610100808354040283529160200191610d45565b820191906000526020600020905b815481529060010190602001808311610d2857829003601f168201915b505050505081565b606060028054610d5c90616635565b80601f0160208091040260200160405190810160405280929190818152602001828054610d8890616635565b8015610dd55780601f10610daa57610100808354040283529160200191610dd5565b820191906000526020600020905b815481529060010190602001808311610db857829003601f168201915b50505050509050919050565b607060019054906101000a900460ff16610e30576040517f08c379a0000000000000000000000000000000000000000000000000000000008152600401610e2790615f69565b60405180910390fd5b610e3a8282613004565b5050565b610e46612f1c565b6001607060006101000a81548160ff021916908315150217905550565b60005b83518110156119b257610e77613a0c565b73ffffffffffffffffffffffffffffffffffffffff168673ffffffffffffffffffffffffffffffffffffffff161480610ebd5750610ebc86610eb7613a0c565b612252565b5b610efc576040517f08c379a0000000000000000000000000000000000000000000000000000000008152600401610ef390615e29565b60405180910390fd5b6000848281518110610f1157610f1061676e565b5b602002602001015190506000848381518110610f3057610f2f61676e565b5b602002602001015190506002821415610fef57606554610fa982606e60008b73ffffffffffffffffffffffffffffffffffffffff1673ffffffffffffffffffffffffffffffffffffffff168152602001908152602001600020600086815260200190815260200160002054613a1490919063ffffffff16565b1115610fea576040517f08c379a0000000000000000000000000000000000000000000000000000000008152600401610fe190616189565b60405180910390fd5b611591565b60038214156110a45760645461105e82606e60008b73ffffffffffffffffffffffffffffffffffffffff1673ffffffffffffffffffffffffffffffffffffffff168152602001908152602001600020600086815260200190815260200160002054613a1490919063ffffffff16565b111561109f576040517f08c379a000000000000000000000000000000000000000000000000000000000815260040161109690616129565b60405180910390fd5b611590565b601d8214156111595760665461111382606e60008b73ffffffffffffffffffffffffffffffffffffffff1673ffffffffffffffffffffffffffffffffffffffff168152602001908152602001600020600086815260200190815260200160002054613a1490919063ffffffff16565b1115611154576040517f08c379a000000000000000000000000000000000000000000000000000000000815260040161114b90616149565b60405180910390fd5b61158f565b601482141561120e576067546111c882606e60003373ffffffffffffffffffffffffffffffffffffffff1673ffffffffffffffffffffffffffffffffffffffff168152602001908152602001600020600086815260200190815260200160002054613a1490919063ffffffff16565b1115611209576040517f08c379a000000000000000000000000000000000000000000000000000000000815260040161120090616069565b60405180910390fd5b61158e565b60158214156112c35760685461127d82606e60003373ffffffffffffffffffffffffffffffffffffffff1673ffffffffffffffffffffffffffffffffffffffff168152602001908152602001600020600086815260200190815260200160002054613a1490919063ffffffff16565b11156112be576040517f08c379a00000000000000000000000000000000000000000000000000000000081526004016112b590615e09565b60405180910390fd5b61158d565b60168214156113785760695461133282606e60003373ffffffffffffffffffffffffffffffffffffffff1673ffffffffffffffffffffffffffffffffffffffff168152602001908152602001600020600086815260200190815260200160002054613a1490919063ffffffff16565b1115611373576040517f08c379a000000000000000000000000000000000000000000000000000000000815260040161136a90616029565b60405180910390fd5b61158c565b600e82141561142d57606a546113e782606e60003373ffffffffffffffffffffffffffffffffffffffff1673ffffffffffffffffffffffffffffffffffffffff168152602001908152602001600020600086815260200190815260200160002054613a1490919063ffffffff16565b1115611428576040517f08c379a000000000000000000000000000000000000000000000000000000000815260040161141f90616169565b60405180910390fd5b61158b565b60088214156114e257606b5461149c82606e60003373ffffffffffffffffffffffffffffffffffffffff1673ffffffffffffffffffffffffffffffffffffffff168152602001908152602001600020600086815260200190815260200160002054613a1490919063ffffffff16565b11156114dd576040517f08c379a00000000000000000000000000000000000000000000000000000000081526004016114d490616009565b60405180910390fd5b61158a565b60635461154882606e60008b73ffffffffffffffffffffffffffffffffffffffff1673ffffffffffffffffffffffffffffffffffffffff168152602001908152602001600020600086815260200190815260200160002054613a1490919063ffffffff16565b1115611589576040517f08c379a000000000000000000000000000000000000000000000000000000000815260040161158090615e89565b60405180910390fd5b5b5b5b5b5b5b5b5b6115f481606e60008b73ffffffffffffffffffffffffffffffffffffffff1673ffffffffffffffffffffffffffffffffffffffff168152602001908152602001600020600085815260200190815260200160002054613a2a90919063ffffffff16565b606e60008a73ffffffffffffffffffffffffffffffffffffffff1673ffffffffffffffffffffffffffffffffffffffff1681526020019081526020016000206000848152602001908152602001600020819055506116ab81606e60008a73ffffffffffffffffffffffffffffffffffffffff1673ffffffffffffffffffffffffffffffffffffffff168152602001908152602001600020600085815260200190815260200160002054613a1490919063ffffffff16565b606e60008973ffffffffffffffffffffffffffffffffffffffff1673ffffffffffffffffffffffffffffffffffffffff16815260200190815260200160002060008481526020019081526020016000208190555061179f61173d8261172f6002604587601e811061171f5761171e61676e565b5b0154613a4090919063ffffffff16565b613a5690919063ffffffff16565b606d60008b73ffffffffffffffffffffffffffffffffffffffff1673ffffffffffffffffffffffffffffffffffffffff168152602001908152602001600020600085815260200190815260200160002060000154613a2a90919063ffffffff16565b606d60008a73ffffffffffffffffffffffffffffffffffffffff1673ffffffffffffffffffffffffffffffffffffffff16815260200190815260200160002060008481526020019081526020016000206000018190555061185c81606d60008b73ffffffffffffffffffffffffffffffffffffffff1673ffffffffffffffffffffffffffffffffffffffff168152602001908152602001600020600085815260200190815260200160002060010154613a2a90919063ffffffff16565b606d60008a73ffffffffffffffffffffffffffffffffffffffff1673ffffffffffffffffffffffffffffffffffffffff1681526020019081526020016000206000848152602001908152602001600020600101819055506118ee816118e06002604586601e81106118d0576118cf61676e565b5b0154613a4090919063ffffffff16565b613a5690919063ffffffff16565b606d60008973ffffffffffffffffffffffffffffffffffffffff1673ffffffffffffffffffffffffffffffffffffffff16815260200190815260200160002060008481526020019081526020016000206000018190555080606d60008973ffffffffffffffffffffffffffffffffffffffff1673ffffffffffffffffffffffffffffffffffffffff168152602001908152602001600020600084815260200190815260200160002060010181905550505080806119aa90616698565b915050610e66565b506119c08585858585613a6c565b5050505050565b607060009054906101000a900460ff1681565b60665481565b6119e8612f1c565b6001606f60008373ffffffffffffffffffffffffffffffffffffffff1673ffffffffffffffffffffffffffffffffffffffff16815260200190815260200160002060006101000a81548160ff02191690831515021790555050565b60608151835114611a89576040517f08c379a0000000000000000000000000000000000000000000000000000000008152600401611a80906161e9565b60405180910390fd5b6000835167ffffffffffffffff811115611aa657611aa561679d565b5b604051908082528060200260200182016040528015611ad45781602001602082028036833780820191505090505b50905060005b8451811015611b5157611b21858281518110611af957611af861676e565b5b6020026020010151858381518110611b1457611b1361676e565b5b6020026020010151610a8c565b828281518110611b3457611b3361676e565b5b60200260200101818152505080611b4a90616698565b9050611ada565b508091505092915050565b6000606e60008473ffffffffffffffffffffffffffffffffffffffff1673ffffffffffffffffffffffffffffffffffffffff168152602001908152602001600020600083815260200190815260200160002054905092915050565b602781601e8110611bc757600080fd5b016000915090505481565b600660009054906101000a900473ffffffffffffffffffffffffffffffffffffffff1681565b600560009054906101000a900473ffffffffffffffffffffffffffffffffffffffff1681565b611c26612f1c565b60008060005b8651811015611c9f57611c8a611c7b600260458a8581518110611c5257611c5161676e565b5b6020026020010151601e8110611c6b57611c6a61676e565b5b0154613a4090919063ffffffff16565b84613a1490919063ffffffff16565b92508080611c9790616698565b915050611c2c565b5060005b8551811015611d1657611d01611cf260026045898581518110611cc957611cc861676e565b5b6020026020010151601e8110611ce257611ce161676e565b5b0154613a4090919063ffffffff16565b83613a1490919063ffffffff16565b91508080611d0e90616698565b915050611ca3565b50611d218285613d8e565b611d2b8184613d8e565b505050505050565b600073ffffffffffffffffffffffffffffffffffffffff163373ffffffffffffffffffffffffffffffffffffffff161415611da3576040517f08c379a0000000000000000000000000000000000000000000000000000000008152600401611d9a90615e69565b60405180910390fd5b611dde81611dd06002604586601e8110611dc057611dbf61676e565b5b0154613a4090919063ffffffff16565b613a5690919063ffffffff16565b341015611e20576040517f08c379a0000000000000000000000000000000000000000000000000000000008152600401611e1790615fa9565b60405180910390fd5b611ec0611e5e82611e506002604587601e8110611e4057611e3f61676e565b5b0154613a4090919063ffffffff16565b613a5690919063ffffffff16565b606d60003373ffffffffffffffffffffffffffffffffffffffff1673ffffffffffffffffffffffffffffffffffffffff168152602001908152602001600020600085815260200190815260200160002060000154613a1490919063ffffffff16565b606d60003373ffffffffffffffffffffffffffffffffffffffff1673ffffffffffffffffffffffffffffffffffffffff1681526020019081526020016000206000848152602001908152602001600020600001819055505050565b611f23612f1c565b611f2d6000613fdd565b565b600981601e8110611f3f57600080fd5b016000915090505481565b6000600360009054906101000a900473ffffffffffffffffffffffffffffffffffffffff16905090565b60088054611f8190616635565b80601f0160208091040260200160405190810160405280929190818152602001828054611fad90616635565b8015611ffa5780601f10611fcf57610100808354040283529160200191611ffa565b820191906000526020600020905b815481529060010190602001808311611fdd57829003601f168201915b505050505081565b61201461200d613a0c565b83836140a3565b5050565b60655481565b606e602052816000526040600020602052806000526040600020600091509150505481565b6000606d60008473ffffffffffffffffffffffffffffffffffffffff1673ffffffffffffffffffffffffffffffffffffffff168152602001908152602001600020600083815260200190815260200160002060010154905092915050565b60685481565b6120af612f1c565b6000607060016101000a81548160ff021916908315150217905550565b60675481565b604581601e81106120e257600080fd5b016000915090505481565b606a5481565b60645481565b607060019054906101000a900460ff1615612149576040517f08c379a000000000000000000000000000000000000000000000000000000000815260040161214090616109565b60405180910390fd5b606f60003373ffffffffffffffffffffffffffffffffffffffff1673ffffffffffffffffffffffffffffffffffffffff16815260200190815260200160002060009054906101000a900460ff166121d5576040517f08c379a00000000000000000000000000000000000000000000000000000000081526004016121cc906160c9565b60405180910390fd5b6121df8282613004565b5050565b6121eb612f1c565b6001607060016101000a81548160ff021916908315150217905550565b600460009054906101000a900473ffffffffffffffffffffffffffffffffffffffff1681565b7f000000000000000000000000000000000000000000000000000000000000000081565b6000600160008473ffffffffffffffffffffffffffffffffffffffff1673ffffffffffffffffffffffffffffffffffffffff16815260200190815260200160002060008373ffffffffffffffffffffffffffffffffffffffff1673ffffffffffffffffffffffffffffffffffffffff16815260200190815260200160002060009054906101000a900460ff16905092915050565b606b5481565b606d602052816000526040600020602052806000526040600020600091509150508060000154908060010154905082565b612325613a0c565b73ffffffffffffffffffffffffffffffffffffffff168573ffffffffffffffffffffffffffffffffffffffff16148061236b575061236a85612365613a0c565b612252565b5b6123aa576040517f08c379a00000000000000000000000000000000000000000000000000000000081526004016123a190615e29565b60405180910390fd5b600283141561245f5760655461241983606e60008873ffffffffffffffffffffffffffffffffffffffff1673ffffffffffffffffffffffffffffffffffffffff168152602001908152602001600020600087815260200190815260200160002054613a1490919063ffffffff16565b111561245a576040517f08c379a000000000000000000000000000000000000000000000000000000000815260040161245190616189565b60405180910390fd5b612a01565b6003831415612514576064546124ce83606e60008873ffffffffffffffffffffffffffffffffffffffff1673ffffffffffffffffffffffffffffffffffffffff168152602001908152602001600020600087815260200190815260200160002054613a1490919063ffffffff16565b111561250f576040517f08c379a000000000000000000000000000000000000000000000000000000000815260040161250690616129565b60405180910390fd5b612a00565b601d8314156125c95760665461258383606e60008873ffffffffffffffffffffffffffffffffffffffff1673ffffffffffffffffffffffffffffffffffffffff168152602001908152602001600020600087815260200190815260200160002054613a1490919063ffffffff16565b11156125c4576040517f08c379a00000000000000000000000000000000000000000000000000000000081526004016125bb90616149565b60405180910390fd5b6129ff565b601483141561267e5760675461263883606e60003373ffffffffffffffffffffffffffffffffffffffff1673ffffffffffffffffffffffffffffffffffffffff168152602001908152602001600020600087815260200190815260200160002054613a1490919063ffffffff16565b1115612679576040517f08c379a000000000000000000000000000000000000000000000000000000000815260040161267090616069565b60405180910390fd5b6129fe565b6015831415612733576068546126ed83606e60003373ffffffffffffffffffffffffffffffffffffffff1673ffffffffffffffffffffffffffffffffffffffff168152602001908152602001600020600087815260200190815260200160002054613a1490919063ffffffff16565b111561272e576040517f08c379a000000000000000000000000000000000000000000000000000000000815260040161272590615e09565b60405180910390fd5b6129fd565b60168314156127e8576069546127a283606e60003373ffffffffffffffffffffffffffffffffffffffff1673ffffffffffffffffffffffffffffffffffffffff168152602001908152602001600020600087815260200190815260200160002054613a1490919063ffffffff16565b11156127e3576040517f08c379a00000000000000000000000000000000000000000000000000000000081526004016127da90616029565b60405180910390fd5b6129fc565b600e83141561289d57606a5461285783606e60003373ffffffffffffffffffffffffffffffffffffffff1673ffffffffffffffffffffffffffffffffffffffff168152602001908152602001600020600087815260200190815260200160002054613a1490919063ffffffff16565b1115612898576040517f08c379a000000000000000000000000000000000000000000000000000000000815260040161288f90616169565b60405180910390fd5b6129fb565b600883141561295257606b5461290c83606e60003373ffffffffffffffffffffffffffffffffffffffff1673ffffffffffffffffffffffffffffffffffffffff168152602001908152602001600020600087815260200190815260200160002054613a1490919063ffffffff16565b111561294d576040517f08c379a000000000000000000000000000000000000000000000000000000000815260040161294490616009565b60405180910390fd5b6129fa565b6063546129b883606e60008873ffffffffffffffffffffffffffffffffffffffff1673ffffffffffffffffffffffffffffffffffffffff168152602001908152602001600020600087815260200190815260200160002054613a1490919063ffffffff16565b11156129f9576040517f08c379a00000000000000000000000000000000000000000000000000000000081526004016129f090615e89565b60405180910390fd5b5b5b5b5b5b5b5b5b612a0e8585858585614210565b612a7182606e60008873ffffffffffffffffffffffffffffffffffffffff1673ffffffffffffffffffffffffffffffffffffffff168152602001908152602001600020600086815260200190815260200160002054613a2a90919063ffffffff16565b606e60008773ffffffffffffffffffffffffffffffffffffffff1673ffffffffffffffffffffffffffffffffffffffff168152602001908152602001600020600085815260200190815260200160002081905550612b2882606e60008773ffffffffffffffffffffffffffffffffffffffff1673ffffffffffffffffffffffffffffffffffffffff168152602001908152602001600020600086815260200190815260200160002054613a1490919063ffffffff16565b606e60008673ffffffffffffffffffffffffffffffffffffffff1673ffffffffffffffffffffffffffffffffffffffff168152602001908152602001600020600085815260200190815260200160002081905550612c1c612bba83612bac6002604588601e8110612b9c57612b9b61676e565b5b0154613a4090919063ffffffff16565b613a5690919063ffffffff16565b606d60008873ffffffffffffffffffffffffffffffffffffffff1673ffffffffffffffffffffffffffffffffffffffff168152602001908152602001600020600086815260200190815260200160002060000154613a2a90919063ffffffff16565b606d60008773ffffffffffffffffffffffffffffffffffffffff1673ffffffffffffffffffffffffffffffffffffffff168152602001908152602001600020600085815260200190815260200160002060000181905550612cd982606d60008873ffffffffffffffffffffffffffffffffffffffff1673ffffffffffffffffffffffffffffffffffffffff168152602001908152602001600020600086815260200190815260200160002060010154613a2a90919063ffffffff16565b606d60008773ffffffffffffffffffffffffffffffffffffffff1673ffffffffffffffffffffffffffffffffffffffff168152602001908152602001600020600085815260200190815260200160002060010181905550612d6b82612d5d6002604587601e8110612d4d57612d4c61676e565b5b0154613a4090919063ffffffff16565b613a5690919063ffffffff16565b606d60008673ffffffffffffffffffffffffffffffffffffffff1673ffffffffffffffffffffffffffffffffffffffff16815260200190815260200160002060008581526020019081526020016000206000018190555081606d60008673ffffffffffffffffffffffffffffffffffffffff1673ffffffffffffffffffffffffffffffffffffffff1681526020019081526020016000206000858152602001908152602001600020600101819055505050505050565b612e29612f1c565b600073ffffffffffffffffffffffffffffffffffffffff168173ffffffffffffffffffffffffffffffffffffffff161415612e99576040517f08c379a0000000000000000000000000000000000000000000000000000000008152600401612e9090615ec9565b60405180910390fd5b612ea281613fdd565b50565b6000606d60008473ffffffffffffffffffffffffffffffffffffffff1673ffffffffffffffffffffffffffffffffffffffff168152602001908152602001600020600083815260200190815260200160002060000154905092915050565b60695481565b607060019054906101000a900460ff1681565b612f24613a0c565b73ffffffffffffffffffffffffffffffffffffffff16612f42611f4a565b73ffffffffffffffffffffffffffffffffffffffff1614612f98576040517f08c379a0000000000000000000000000000000000000000000000000000000008152600401612f8f906160e9565b60405180910390fd5b565b60007f01ffc9a7000000000000000000000000000000000000000000000000000000007bffffffffffffffffffffffffffffffffffffffffffffffffffffffff1916827bffffffffffffffffffffffffffffffffffffffffffffffffffffffff1916149050919050565b607060009054906101000a900460ff16613053576040517f08c379a000000000000000000000000000000000000000000000000000000000815260040161304a90616209565b60405180910390fd5b600073ffffffffffffffffffffffffffffffffffffffff163373ffffffffffffffffffffffffffffffffffffffff1614156130c3576040517f08c379a00000000000000000000000000000000000000000000000000000000081526004016130ba90615ea9565b60405180910390fd5b600982601e81106130d7576130d661676e565b5b015461310182602785601e81106130f1576130f061676e565b5b0154613a1490919063ffffffff16565b10613141576040517f08c379a000000000000000000000000000000000000000000000000000000000815260040161313890615f89565b60405180910390fd5b61316981604584601e81106131595761315861676e565b5b0154613a5690919063ffffffff16565b3410156131ab576040517f08c379a00000000000000000000000000000000000000000000000000000000081526004016131a290615f49565b60405180910390fd5b60028214156132605760655461321a82606e60003373ffffffffffffffffffffffffffffffffffffffff1673ffffffffffffffffffffffffffffffffffffffff168152602001908152602001600020600086815260200190815260200160002054613a1490919063ffffffff16565b111561325b576040517f08c379a0000000000000000000000000000000000000000000000000000000008152600401613252906161a9565b60405180910390fd5b613802565b6003821415613315576064546132cf82606e60003373ffffffffffffffffffffffffffffffffffffffff1673ffffffffffffffffffffffffffffffffffffffff168152602001908152602001600020600086815260200190815260200160002054613a1490919063ffffffff16565b1115613310576040517f08c379a000000000000000000000000000000000000000000000000000000000815260040161330790615ee9565b60405180910390fd5b613801565b601d8214156133ca5760665461338482606e60003373ffffffffffffffffffffffffffffffffffffffff1673ffffffffffffffffffffffffffffffffffffffff168152602001908152602001600020600086815260200190815260200160002054613a1490919063ffffffff16565b11156133c5576040517f08c379a00000000000000000000000000000000000000000000000000000000081526004016133bc90616089565b60405180910390fd5b613800565b601482141561347f5760675461343982606e60003373ffffffffffffffffffffffffffffffffffffffff1673ffffffffffffffffffffffffffffffffffffffff168152602001908152602001600020600086815260200190815260200160002054613a1490919063ffffffff16565b111561347a576040517f08c379a000000000000000000000000000000000000000000000000000000000815260040161347190616069565b60405180910390fd5b6137ff565b6015821415613534576068546134ee82606e60003373ffffffffffffffffffffffffffffffffffffffff1673ffffffffffffffffffffffffffffffffffffffff168152602001908152602001600020600086815260200190815260200160002054613a1490919063ffffffff16565b111561352f576040517f08c379a000000000000000000000000000000000000000000000000000000000815260040161352690615e09565b60405180910390fd5b6137fe565b60168214156135e9576069546135a382606e60003373ffffffffffffffffffffffffffffffffffffffff1673ffffffffffffffffffffffffffffffffffffffff168152602001908152602001600020600086815260200190815260200160002054613a1490919063ffffffff16565b11156135e4576040517f08c379a00000000000000000000000000000000000000000000000000000000081526004016135db90616029565b60405180910390fd5b6137fd565b600e82141561369e57606a5461365882606e60003373ffffffffffffffffffffffffffffffffffffffff1673ffffffffffffffffffffffffffffffffffffffff168152602001908152602001600020600086815260200190815260200160002054613a1490919063ffffffff16565b1115613699576040517f08c379a000000000000000000000000000000000000000000000000000000000815260040161369090616169565b60405180910390fd5b6137fc565b600882141561375357606b5461370d82606e60003373ffffffffffffffffffffffffffffffffffffffff1673ffffffffffffffffffffffffffffffffffffffff168152602001908152602001600020600086815260200190815260200160002054613a1490919063ffffffff16565b111561374e576040517f08c379a000000000000000000000000000000000000000000000000000000000815260040161374590616009565b60405180910390fd5b6137fb565b6063546137b982606e60003373ffffffffffffffffffffffffffffffffffffffff1673ffffffffffffffffffffffffffffffffffffffff168152602001908152602001600020600086815260200190815260200160002054613a1490919063ffffffff16565b11156137fa576040517f08c379a00000000000000000000000000000000000000000000000000000000081526004016137f190615fc9565b60405180910390fd5b5b5b5b5b5b5b5b5b61380b826144ac565b61383381602784601e81106138235761382261676e565b5b0154613a1490919063ffffffff16565b602783601e81106138475761384661676e565b5b018190555061386733838360405180602001604052806000815250614846565b6138ca81606e60003373ffffffffffffffffffffffffffffffffffffffff1673ffffffffffffffffffffffffffffffffffffffff168152602001908152602001600020600085815260200190815260200160002054613a1490919063ffffffff16565b606e60003373ffffffffffffffffffffffffffffffffffffffff1673ffffffffffffffffffffffffffffffffffffffff1681526020019081526020016000206000848152602001908152602001600020819055506139598161394b6002604586601e811061393b5761393a61676e565b5b0154613a4090919063ffffffff16565b613a5690919063ffffffff16565b606d60003373ffffffffffffffffffffffffffffffffffffffff1673ffffffffffffffffffffffffffffffffffffffff16815260200190815260200160002060008481526020019081526020016000206000018190555080606d60003373ffffffffffffffffffffffffffffffffffffffff1673ffffffffffffffffffffffffffffffffffffffff1681526020019081526020016000206000848152602001908152602001600020600101819055505050565b600033905090565b60008183613a229190616410565b905092915050565b60008183613a3891906164f1565b905092915050565b60008183613a4e9190616466565b905092915050565b60008183613a649190616497565b905092915050565b8151835114613ab0576040517f08c379a0000000000000000000000000000000000000000000000000000000008152600401613aa790616229565b60405180910390fd5b600073ffffffffffffffffffffffffffffffffffffffff168473ffffffffffffffffffffffffffffffffffffffff161415613b20576040517f08c379a0000000000000000000000000000000000000000000000000000000008152600401613b1790616049565b60405180910390fd5b6000613b2a613a0c565b9050613b3a8187878787876149f7565b60005b8451811015613ceb576000858281518110613b5b57613b5a61676e565b5b602002602001015190506000858381518110613b7a57613b7961676e565b5b60200260200101519050600080600084815260200190815260200160002060008b73ffffffffffffffffffffffffffffffffffffffff1673ffffffffffffffffffffffffffffffffffffffff16815260200190815260200160002054905081811015613c1b576040517f08c379a0000000000000000000000000000000000000000000000000000000008152600401613c12906160a9565b60405180910390fd5b81810360008085815260200190815260200160002060008c73ffffffffffffffffffffffffffffffffffffffff1673ffffffffffffffffffffffffffffffffffffffff168152602001908152602001600020819055508160008085815260200190815260200160002060008b73ffffffffffffffffffffffffffffffffffffffff1673ffffffffffffffffffffffffffffffffffffffff1681526020019081526020016000206000828254613cd09190616410565b9250508190555050505080613ce490616698565b9050613b3d565b508473ffffffffffffffffffffffffffffffffffffffff168673ffffffffffffffffffffffffffffffffffffffff168273ffffffffffffffffffffffffffffffffffffffff167f4a39dc06d4c0dbc64b70af90fd698a233a518aa5d07e595d983b8c0526c8f7fb8787604051613d62929190615d0e565b60405180910390a4613d788187878787876149ff565b613d86818787878787614a07565b505050505050565b6000600267ffffffffffffffff811115613dab57613daa61679d565b5b604051908082528060200260200182016040528015613dd95781602001602082028036833780820191505090505b5090507f000000000000000000000000000000000000000000000000000000000000000073ffffffffffffffffffffffffffffffffffffffff1663ad5c46486040518163ffffffff1660e01b815260040160206040518083038186803b158015613e4257600080fd5b505afa158015613e56573d6000803e3d6000fd5b505050506040513d601f19601f82011682018060405250810190613e7a91906150c9565b81600081518110613e8e57613e8d61676e565b5b602002602001019073ffffffffffffffffffffffffffffffffffffffff16908173ffffffffffffffffffffffffffffffffffffffff1681525050606c60009054906101000a900473ffffffffffffffffffffffffffffffffffffffff1681600181518110613eff57613efe61676e565b5b602002602001019073ffffffffffffffffffffffffffffffffffffffff16908173ffffffffffffffffffffffffffffffffffffffff16815250507f000000000000000000000000000000000000000000000000000000000000000073ffffffffffffffffffffffffffffffffffffffff1663b6f9de958460008486600f42613f879190616410565b6040518663ffffffff1660e01b8152600401613fa69493929190615d7b565b6000604051808303818588803b158015613fbf57600080fd5b505af1158015613fd3573d6000803e3d6000fd5b5050505050505050565b6000600360009054906101000a900473ffffffffffffffffffffffffffffffffffffffff16905081600360006101000a81548173ffffffffffffffffffffffffffffffffffffffff021916908373ffffffffffffffffffffffffffffffffffffffff1602179055508173ffffffffffffffffffffffffffffffffffffffff168173ffffffffffffffffffffffffffffffffffffffff167f8be0079c531659141344cd1fd0a4f28419497f9722a3daafe3b4186f6b6457e060405160405180910390a35050565b8173ffffffffffffffffffffffffffffffffffffffff168373ffffffffffffffffffffffffffffffffffffffff161415614112576040517f08c379a0000000000000000000000000000000000000000000000000000000008152600401614109906161c9565b60405180910390fd5b80600160008573ffffffffffffffffffffffffffffffffffffffff1673ffffffffffffffffffffffffffffffffffffffff16815260200190815260200160002060008473ffffffffffffffffffffffffffffffffffffffff1673ffffffffffffffffffffffffffffffffffffffff16815260200190815260200160002060006101000a81548160ff0219169083151502179055508173ffffffffffffffffffffffffffffffffffffffff168373ffffffffffffffffffffffffffffffffffffffff167f17307eab39ab6107e8899845ad3d59bd9653f200f220920489ca2b5937696c31836040516142039190615d45565b60405180910390a3505050565b600073ffffffffffffffffffffffffffffffffffffffff168473ffffffffffffffffffffffffffffffffffffffff161415614280576040517f08c379a000000000000000000000000000000000000000000000000000000000815260040161427790616049565b60405180910390fd5b600061428a613a0c565b9050600061429785614bee565b905060006142a485614bee565b90506142b48389898585896149f7565b600080600088815260200190815260200160002060008a73ffffffffffffffffffffffffffffffffffffffff1673ffffffffffffffffffffffffffffffffffffffff1681526020019081526020016000205490508581101561434b576040517f08c379a0000000000000000000000000000000000000000000000000000000008152600401614342906160a9565b60405180910390fd5b85810360008089815260200190815260200160002060008b73ffffffffffffffffffffffffffffffffffffffff1673ffffffffffffffffffffffffffffffffffffffff168152602001908152602001600020819055508560008089815260200190815260200160002060008a73ffffffffffffffffffffffffffffffffffffffff1673ffffffffffffffffffffffffffffffffffffffff16815260200190815260200160002060008282546144009190616410565b925050819055508773ffffffffffffffffffffffffffffffffffffffff168973ffffffffffffffffffffffffffffffffffffffff168573ffffffffffffffffffffffffffffffffffffffff167fc3d58168c5ae7397731d063d5bbf3d657854427343f4c083240f7aacaa2d0f628a8a60405161447d929190616284565b60405180910390a4614493848a8a86868a6149ff565b6144a1848a8a8a8a8a614c68565b505050505050505050565b601d811415614760576000600460009054906101000a900473ffffffffffffffffffffffffffffffffffffffff1673ffffffffffffffffffffffffffffffffffffffff16614504600334613a4090919063ffffffff16565b60405161451090615bdf565b60006040518083038185875af1925050503d806000811461454d576040519150601f19603f3d011682016040523d82523d6000602084013e614552565b606091505b5050905080614596576040517f08c379a000000000000000000000000000000000000000000000000000000000815260040161458d90615f09565b60405180910390fd5b6000600560009054906101000a900473ffffffffffffffffffffffffffffffffffffffff1673ffffffffffffffffffffffffffffffffffffffff166145e5600334613a4090919063ffffffff16565b6040516145f190615bdf565b60006040518083038185875af1925050503d806000811461462e576040519150601f19603f3d011682016040523d82523d6000602084013e614633565b606091505b5050905080614677576040517f08c379a000000000000000000000000000000000000000000000000000000000815260040161466e90615fe9565b60405180910390fd5b6000600660009054906101000a900473ffffffffffffffffffffffffffffffffffffffff1673ffffffffffffffffffffffffffffffffffffffff166146c6600334613a4090919063ffffffff16565b6040516146d290615bdf565b60006040518083038185875af1925050503d806000811461470f576040519150601f19603f3d011682016040523d82523d6000602084013e614714565b606091505b5050905080614758576040517f08c379a000000000000000000000000000000000000000000000000000000000815260040161474f90615fe9565b60405180910390fd5b505050614843565b6000600560009054906101000a900473ffffffffffffffffffffffffffffffffffffffff1673ffffffffffffffffffffffffffffffffffffffff166147af600234613a4090919063ffffffff16565b6040516147bb90615bdf565b60006040518083038185875af1925050503d80600081146147f8576040519150601f19603f3d011682016040523d82523d6000602084013e6147fd565b606091505b5050905080614841576040517f08c379a000000000000000000000000000000000000000000000000000000000815260040161483890615fe9565b60405180910390fd5b505b50565b600073ffffffffffffffffffffffffffffffffffffffff168473ffffffffffffffffffffffffffffffffffffffff1614156148b6576040517f08c379a00000000000000000000000000000000000000000000000000000000081526004016148ad90616249565b60405180910390fd5b60006148c0613a0c565b905060006148cd85614bee565b905060006148da85614bee565b90506148eb836000898585896149f7565b8460008088815260200190815260200160002060008973ffffffffffffffffffffffffffffffffffffffff1673ffffffffffffffffffffffffffffffffffffffff168152602001908152602001600020600082825461494a9190616410565b925050819055508673ffffffffffffffffffffffffffffffffffffffff16600073ffffffffffffffffffffffffffffffffffffffff168473ffffffffffffffffffffffffffffffffffffffff167fc3d58168c5ae7397731d063d5bbf3d657854427343f4c083240f7aacaa2d0f6289896040516149c8929190616284565b60405180910390a46149df836000898585896149ff565b6149ee83600089898989614c68565b50505050505050565b505050505050565b505050505050565b614a268473ffffffffffffffffffffffffffffffffffffffff16614e4f565b15614be6578373ffffffffffffffffffffffffffffffffffffffff1663bc197c8187878686866040518663ffffffff1660e01b8152600401614a6c959493929190615c2a565b602060405180830381600087803b158015614a8657600080fd5b505af1925050508015614ab757506040513d601f19601f82011682018060405250810190614ab49190615460565b60015b614b5d57614ac36167cc565b806308c379a01415614b205750614ad86171c8565b80614ae35750614b22565b806040517f08c379a0000000000000000000000000000000000000000000000000000000008152600401614b179190615dc7565b60405180910390fd5b505b6040517f08c379a0000000000000000000000000000000000000000000000000000000008152600401614b5490615de9565b60405180910390fd5b63bc197c8160e01b7bffffffffffffffffffffffffffffffffffffffffffffffffffffffff1916817bffffffffffffffffffffffffffffffffffffffffffffffffffffffff191614614be4576040517f08c379a0000000000000000000000000000000000000000000000000000000008152600401614bdb90615e49565b60405180910390fd5b505b505050505050565b60606000600167ffffffffffffffff811115614c0d57614c0c61679d565b5b604051908082528060200260200182016040528015614c3b5781602001602082028036833780820191505090505b5090508281600081518110614c5357614c5261676e565b5b60200260200101818152505080915050919050565b614c878473ffffffffffffffffffffffffffffffffffffffff16614e4f565b15614e47578373ffffffffffffffffffffffffffffffffffffffff1663f23a6e6187878686866040518663ffffffff1660e01b8152600401614ccd959493929190615c92565b602060405180830381600087803b158015614ce757600080fd5b505af1925050508015614d1857506040513d601f19601f82011682018060405250810190614d159190615460565b60015b614dbe57614d246167cc565b806308c379a01415614d815750614d396171c8565b80614d445750614d83565b806040517f08c379a0000000000000000000000000000000000000000000000000000000008152600401614d789190615dc7565b60405180910390fd5b505b6040517f08c379a0000000000000000000000000000000000000000000000000000000008152600401614db590615de9565b60405180910390fd5b63f23a6e6160e01b7bffffffffffffffffffffffffffffffffffffffffffffffffffffffff1916817bffffffffffffffffffffffffffffffffffffffffffffffffffffffff191614614e45576040517f08c379a0000000000000000000000000000000000000000000000000000000008152600401614e3c90615e49565b60405180910390fd5b505b505050505050565b6000808273ffffffffffffffffffffffffffffffffffffffff163b119050919050565b6000614e85614e80846162d2565b6162ad565b90508083825260208201905082856020860282011115614ea857614ea76167f3565b5b60005b85811015614ed85781614ebe8882614f94565b845260208401935060208301925050600181019050614eab565b5050509392505050565b6000614ef5614ef0846162fe565b6162ad565b90508083825260208201905082856020860282011115614f1857614f176167f3565b5b60005b85811015614f485781614f2e8882615087565b845260208401935060208301925050600181019050614f1b565b5050509392505050565b6000614f65614f608461632a565b6162ad565b905082815260208101848484011115614f8157614f806167f8565b5b614f8c8482856165f3565b509392505050565b600081359050614fa38161725e565b92915050565b600081519050614fb88161725e565b92915050565b600082601f830112614fd357614fd26167ee565b5b8135614fe3848260208601614e72565b91505092915050565b600082601f830112615001576150006167ee565b5b8135615011848260208601614ee2565b91505092915050565b60008135905061502981617275565b92915050565b60008135905061503e8161728c565b92915050565b6000815190506150538161728c565b92915050565b600082601f83011261506e5761506d6167ee565b5b813561507e848260208601614f52565b91505092915050565b600081359050615096816172a3565b92915050565b6000602082840312156150b2576150b1616802565b5b60006150c084828501614f94565b91505092915050565b6000602082840312156150df576150de616802565b5b60006150ed84828501614fa9565b91505092915050565b6000806040838503121561510d5761510c616802565b5b600061511b85828601614f94565b925050602061512c85828601614f94565b9150509250929050565b600080600080600060a0868803121561515257615151616802565b5b600061516088828901614f94565b955050602061517188828901614f94565b945050604086013567ffffffffffffffff811115615192576151916167fd565b5b61519e88828901614fec565b935050606086013567ffffffffffffffff8111156151bf576151be6167fd565b5b6151cb88828901614fec565b925050608086013567ffffffffffffffff8111156151ec576151eb6167fd565b5b6151f888828901615059565b9150509295509295909350565b600080600080600060a0868803121561522157615220616802565b5b600061522f88828901614f94565b955050602061524088828901614f94565b945050604061525188828901615087565b935050606061526288828901615087565b925050608086013567ffffffffffffffff811115615283576152826167fd565b5b61528f88828901615059565b9150509295509295909350565b600080604083850312156152b3576152b2616802565b5b60006152c185828601614f94565b92505060206152d28582860161501a565b9150509250929050565b600080604083850312156152f3576152f2616802565b5b600061530185828601614f94565b925050602061531285828601615087565b9150509250929050565b6000806040838503121561533357615332616802565b5b600083013567ffffffffffffffff811115615351576153506167fd565b5b61535d85828601614fbe565b925050602083013567ffffffffffffffff81111561537e5761537d6167fd565b5b61538a85828601614fec565b9150509250929050565b600080600080608085870312156153ae576153ad616802565b5b600085013567ffffffffffffffff8111156153cc576153cb6167fd565b5b6153d887828801614fec565b945050602085013567ffffffffffffffff8111156153f9576153f86167fd565b5b61540587828801614fec565b935050604061541687828801614f94565b925050606061542787828801614f94565b91505092959194509250565b60006020828403121561544957615448616802565b5b60006154578482850161502f565b91505092915050565b60006020828403121561547657615475616802565b5b600061548484828501615044565b91505092915050565b6000602082840312156154a3576154a2616802565b5b60006154b184828501615087565b91505092915050565b600080604083850312156154d1576154d0616802565b5b60006154df85828601615087565b92505060206154f085828601615087565b9150509250929050565b60006155068383615539565b60208301905092915050565b600061551e8383615bc1565b60208301905092915050565b61553381616537565b82525050565b61554281616525565b82525050565b61555181616525565b82525050565b60006155628261637b565b61556c81856163c1565b93506155778361635b565b8060005b838110156155a857815161558f88826154fa565b975061559a836163a7565b92505060018101905061557b565b5085935050505092915050565b60006155c082616386565b6155ca81856163d2565b93506155d58361636b565b8060005b838110156156065781516155ed8882615512565b97506155f8836163b4565b9250506001810190506155d9565b5085935050505092915050565b61561c81616549565b82525050565b600061562d82616391565b61563781856163e3565b9350615647818560208601616602565b61565081616807565b840191505092915050565b615664816165ab565b82525050565b615673816165bd565b82525050565b60006156848261639c565b61568e81856163ff565b935061569e818560208601616602565b6156a781616807565b840191505092915050565b60006156bf6034836163ff565b91506156ca82616825565b604082019050919050565b60006156e26029836163ff565b91506156ed82616874565b604082019050919050565b6000615705602f836163ff565b9150615710826168c3565b604082019050919050565b60006157286028836163ff565b915061573382616912565b604082019050919050565b600061574b601f836163ff565b915061575682616961565b602082019050919050565b600061576e602a836163ff565b91506157798261698a565b604082019050919050565b6000615791601d836163ff565b915061579c826169d9565b602082019050919050565b60006157b46026836163ff565b91506157bf82616a02565b604082019050919050565b60006157d76029836163ff565b91506157e282616a51565b604082019050919050565b60006157fa602d836163ff565b915061580582616aa0565b604082019050919050565b600061581d602a836163ff565b915061582882616aef565b604082019050919050565b6000615840601c836163ff565b915061584b82616b3e565b602082019050919050565b6000615863601b836163ff565b915061586e82616b67565b602082019050919050565b60006158866019836163ff565b915061589182616b90565b602082019050919050565b60006158a9601e836163ff565b91506158b482616bb9565b602082019050919050565b60006158cc6028836163ff565b91506158d782616be2565b604082019050919050565b60006158ef6015836163ff565b91506158fa82616c31565b602082019050919050565b60006159126023836163ff565b915061591d82616c5a565b604082019050919050565b60006159356023836163ff565b915061594082616ca9565b604082019050919050565b60006159586025836163ff565b915061596382616cf8565b604082019050919050565b600061597b6024836163ff565b915061598682616d47565b604082019050919050565b600061599e6021836163ff565b91506159a982616d96565b604082019050919050565b60006159c1602a836163ff565b91506159cc82616de5565b604082019050919050565b60006159e46023836163ff565b91506159ef82616e34565b604082019050919050565b6000615a076020836163ff565b9150615a1282616e83565b602082019050919050565b6000615a2a6015836163ff565b9150615a3582616eac565b602082019050919050565b6000615a4d602b836163ff565b9150615a5882616ed5565b604082019050919050565b6000615a706023836163ff565b9150615a7b82616f24565b604082019050919050565b6000615a936000836163f4565b9150615a9e82616f73565b600082019050919050565b6000615ab66029836163ff565b9150615ac182616f76565b604082019050919050565b6000615ad9602a836163ff565b9150615ae482616fc5565b604082019050919050565b6000615afc6028836163ff565b9150615b0782617014565b604082019050919050565b6000615b1f6029836163ff565b9150615b2a82617063565b604082019050919050565b6000615b426029836163ff565b9150615b4d826170b2565b604082019050919050565b6000615b656017836163ff565b9150615b7082617101565b602082019050919050565b6000615b886028836163ff565b9150615b938261712a565b604082019050919050565b6000615bab6021836163ff565b9150615bb682617179565b604082019050919050565b615bca816165a1565b82525050565b615bd9816165a1565b82525050565b6000615bea82615a86565b9150819050919050565b6000602082019050615c096000830184615548565b92915050565b6000602082019050615c24600083018461552a565b92915050565b600060a082019050615c3f6000830188615548565b615c4c6020830187615548565b8181036040830152615c5e81866155b5565b90508181036060830152615c7281856155b5565b90508181036080830152615c868184615622565b90509695505050505050565b600060a082019050615ca76000830188615548565b615cb46020830187615548565b615cc16040830186615bd0565b615cce6060830185615bd0565b8181036080830152615ce08184615622565b90509695505050505050565b60006020820190508181036000830152615d0681846155b5565b905092915050565b60006040820190508181036000830152615d2881856155b5565b90508181036020830152615d3c81846155b5565b90509392505050565b6000602082019050615d5a6000830184615613565b92915050565b6000602082019050615d75600083018461565b565b92915050565b6000608082019050615d90600083018761566a565b8181036020830152615da28186615557565b9050615db16040830185615548565b615dbe6060830184615bd0565b95945050505050565b60006020820190508181036000830152615de18184615679565b905092915050565b60006020820190508181036000830152615e02816156b2565b9050919050565b60006020820190508181036000830152615e22816156d5565b9050919050565b60006020820190508181036000830152615e42816156f8565b9050919050565b60006020820190508181036000830152615e628161571b565b9050919050565b60006020820190508181036000830152615e828161573e565b9050919050565b60006020820190508181036000830152615ea281615761565b9050919050565b60006020820190508181036000830152615ec281615784565b9050919050565b60006020820190508181036000830152615ee2816157a7565b9050919050565b60006020820190508181036000830152615f02816157ca565b9050919050565b60006020820190508181036000830152615f22816157ed565b9050919050565b60006020820190508181036000830152615f4281615810565b9050919050565b60006020820190508181036000830152615f6281615833565b9050919050565b60006020820190508181036000830152615f8281615856565b9050919050565b60006020820190508181036000830152615fa281615879565b9050919050565b60006020820190508181036000830152615fc28161589c565b9050919050565b60006020820190508181036000830152615fe2816158bf565b9050919050565b60006020820190508181036000830152616002816158e2565b9050919050565b6000602082019050818103600083015261602281615905565b9050919050565b6000602082019050818103600083015261604281615928565b9050919050565b600060208201905081810360008301526160628161594b565b9050919050565b600060208201905081810360008301526160828161596e565b9050919050565b600060208201905081810360008301526160a281615991565b9050919050565b600060208201905081810360008301526160c2816159b4565b9050919050565b600060208201905081810360008301526160e2816159d7565b9050919050565b60006020820190508181036000830152616102816159fa565b9050919050565b6000602082019050818103600083015261612281615a1d565b9050919050565b6000602082019050818103600083015261614281615a40565b9050919050565b6000602082019050818103600083015261616281615a63565b9050919050565b6000602082019050818103600083015261618281615aa9565b9050919050565b600060208201905081810360008301526161a281615acc565b9050919050565b600060208201905081810360008301526161c281615aef565b9050919050565b600060208201905081810360008301526161e281615b12565b9050919050565b6000602082019050818103600083015261620281615b35565b9050919050565b6000602082019050818103600083015261622281615b58565b9050919050565b6000602082019050818103600083015261624281615b7b565b9050919050565b6000602082019050818103600083015261626281615b9e565b9050919050565b600060208201905061627e6000830184615bd0565b92915050565b60006040820190506162996000830185615bd0565b6162a66020830184615bd0565b9392505050565b60006162b76162c8565b90506162c38282616667565b919050565b6000604051905090565b600067ffffffffffffffff8211156162ed576162ec61679d565b5b602082029050602081019050919050565b600067ffffffffffffffff8211156163195761631861679d565b5b602082029050602081019050919050565b600067ffffffffffffffff8211156163455761634461679d565b5b61634e82616807565b9050602081019050919050565b6000819050602082019050919050565b6000819050602082019050919050565b600081519050919050565b600081519050919050565b600081519050919050565b600081519050919050565b6000602082019050919050565b6000602082019050919050565b600082825260208201905092915050565b600082825260208201905092915050565b600082825260208201905092915050565b600081905092915050565b600082825260208201905092915050565b600061641b826165a1565b9150616426836165a1565b9250827fffffffffffffffffffffffffffffffffffffffffffffffffffffffffffffffff0382111561645b5761645a6166e1565b5b828201905092915050565b6000616471826165a1565b915061647c836165a1565b92508261648c5761648b616710565b5b828204905092915050565b60006164a2826165a1565b91506164ad836165a1565b9250817fffffffffffffffffffffffffffffffffffffffffffffffffffffffffffffffff04831182151516156164e6576164e56166e1565b5b828202905092915050565b60006164fc826165a1565b9150616507836165a1565b92508282101561651a576165196166e1565b5b828203905092915050565b600061653082616581565b9050919050565b600061654282616581565b9050919050565b60008115159050919050565b60007fffffffff0000000000000000000000000000000000000000000000000000000082169050919050565b600073ffffffffffffffffffffffffffffffffffffffff82169050919050565b6000819050919050565b60006165b6826165cf565b9050919050565b60006165c8826165a1565b9050919050565b60006165da826165e1565b9050919050565b60006165ec82616581565b9050919050565b82818337600083830152505050565b60005b83811015616620578082015181840152602081019050616605565b8381111561662f576000848401525b50505050565b6000600282049050600182168061664d57607f821691505b602082108114156166615761666061673f565b5b50919050565b61667082616807565b810181811067ffffffffffffffff8211171561668f5761668e61679d565b5b80604052505050565b60006166a3826165a1565b91507fffffffffffffffffffffffffffffffffffffffffffffffffffffffffffffffff8214156166d6576166d56166e1565b5b600182019050919050565b7f4e487b7100000000000000000000000000000000000000000000000000000000600052601160045260246000fd5b7f4e487b7100000000000000000000000000000000000000000000000000000000600052601260045260246000fd5b7f4e487b7100000000000000000000000000000000000000000000000000000000600052602260045260246000fd5b7f4e487b7100000000000000000000000000000000000000000000000000000000600052603260045260246000fd5b7f4e487b7100000000000000000000000000000000000000000000000000000000600052604160045260246000fd5b600060033d11156167eb5760046000803e6167e8600051616818565b90505b90565b600080fd5b600080fd5b600080fd5b600080fd5b600080fd5b6000601f19601f8301169050919050565b60008160e01c9050919050565b7f455243313135353a207472616e7366657220746f206e6f6e204552433131353560008201527f526563656976657220696d706c656d656e746572000000000000000000000000602082015250565b7f596f752063616e206e6f74206d696e74206d6f7265207468616e20322042616260008201527f7920447261676f6e730000000000000000000000000000000000000000000000602082015250565b7f455243313135353a2063616c6c6572206973206e6f7420746f6b656e206f776e60008201527f6572206e6f7220617070726f7665640000000000000000000000000000000000602082015250565b7f455243313135353a204552433131353552656365697665722072656a6563746560008201527f6420746f6b656e73000000000000000000000000000000000000000000000000602082015250565b7f43616e6e6f7420726576697665206f6e2061207a65726f206164647265737300600082015250565b7f4e6f20616464726573732063616e206f776e206d6f7265207468616e2034302060008201527f6f6620616e79204e465400000000000000000000000000000000000000000000602082015250565b7f43616e6e6f74206d696e7420746f2061207a65726f2061646472657373000000600082015250565b7f4f776e61626c653a206e6577206f776e657220697320746865207a65726f206160008201527f6464726573730000000000000000000000000000000000000000000000000000602082015250565b7f596f752063616e206e6f74206d696e74206d6f7265207468616e20333020737460008201527f6f6e652077616c6c730000000000000000000000000000000000000000000000602082015250565b7f4661696c656420746f206465706f7369746520746f206d61726b6574696e675f60008201527f636f6e7465737457616c6c657400000000000000000000000000000000000000602082015250565b7f455243313135353a2061646472657373207a65726f206973206e6f742061207660008201527f616c6964206f776e657200000000000000000000000000000000000000000000602082015250565b7f416d6f756e7420746f6f20736d616c6c20746f206d696e74206e667400000000600082015250565b7f5075626c6963206d696e7420686173206e6f7420737461727465640000000000600082015250565b7f4d696e7420616d6f756e74206e6f7420617661696c61626c6500000000000000600082015250565b7f416d6f756e7420746f6f20736d616c6c20746f20726576697665206e66740000600082015250565b7f596f752063616e206e6f74206d696e74206d6f7265207468616e203430206f6660008201527f20616e79204e4654000000000000000000000000000000000000000000000000602082015250565b7f4661696c656420746f207465616d2077616c6c65740000000000000000000000600082015250565b7f596f752063616e206e6f74206d696e74206d6f7265207468616e20332044726f60008201527f6e65730000000000000000000000000000000000000000000000000000000000602082015250565b7f596f752063616e206e6f74206d696e74206d6f7265207468616e203320476f6c60008201527f656d730000000000000000000000000000000000000000000000000000000000602082015250565b7f455243313135353a207472616e7366657220746f20746865207a65726f20616460008201527f6472657373000000000000000000000000000000000000000000000000000000602082015250565b7f596f752063616e206e6f74206d696e74206d6f7265207468616e20322044726160008201527f676f6e7300000000000000000000000000000000000000000000000000000000602082015250565b7f596f752063616e206e6f74206d696e74206d6f7265207468616e2035206c616e60008201527f6400000000000000000000000000000000000000000000000000000000000000602082015250565b7f455243313135353a20696e73756666696369656e742062616c616e636520666f60008201527f72207472616e7366657200000000000000000000000000000000000000000000602082015250565b7f41646472657373206e6f742077686974656c697374656420666f72206d696e7460008201527f696e670000000000000000000000000000000000000000000000000000000000602082015250565b7f4f776e61626c653a2063616c6c6572206973206e6f7420746865206f776e6572600082015250565b7f50726976617465206d696e7420697320656e6465640000000000000000000000600082015250565b7f4e6f20616464726573732063616e206f776e206d6f7265207468616e2033302060008201527f73746f6e652077616c6c73000000000000000000000000000000000000000000602082015250565b7f4e6f20616464726573732063616e206f776e206d6f7265207468616e2035206c60008201527f616e640000000000000000000000000000000000000000000000000000000000602082015250565b50565b7f596f752063616e206e6f74206d696e74206d6f7265207468616e20332047726160008201527f6e642057617264656e0000000000000000000000000000000000000000000000602082015250565b7f4e6f20616464726573732063616e206f776e206d6f7265207468616e2033302060008201527f776f6f642077616c6c7300000000000000000000000000000000000000000000602082015250565b7f596f752063616e206e6f74206d696e74206d6f7265207468616e20333020776f60008201527f6f642077616c6c73000000000000000000000000000000000000000000000000602082015250565b7f455243313135353a2073657474696e6720617070726f76616c2073746174757360008201527f20666f722073656c660000000000000000000000000000000000000000000000602082015250565b7f455243313135353a206163636f756e747320616e6420696473206c656e67746860008201527f206d69736d617463680000000000000000000000000000000000000000000000602082015250565b7f4d696e74696e6720686173206e6f742073746172746564000000000000000000600082015250565b7f455243313135353a2069647320616e6420616d6f756e7473206c656e6774682060008201527f6d69736d61746368000000000000000000000000000000000000000000000000602082015250565b7f455243313135353a206d696e7420746f20746865207a65726f2061646472657360008201527f7300000000000000000000000000000000000000000000000000000000000000602082015250565b600060443d10156171d85761725b565b6171e06162c8565b60043d036004823e80513d602482011167ffffffffffffffff8211171561720857505061725b565b808201805167ffffffffffffffff811115617226575050505061725b565b80602083010160043d03850181111561724357505050505061725b565b61725282602001850186616667565b82955050505050505b90565b61726781616525565b811461727257600080fd5b50565b61727e81616549565b811461728957600080fd5b50565b61729581616555565b81146172a057600080fd5b50565b6172ac816165a1565b81146172b757600080fd5b5056fea2646970667358221220470209eb28ecf987faf97589444846a37a66b1e82fafa5f891d75afc4e2aaebf64736f6c6343000807003368747470733a2f2f67726565647976657273652e636f2f6170692f6765744e66744d657461446174612e7068703f69643d7b69647d",
			"opcodes": "PUSH1 0xA0 PUSH1 0x40 MSTORE PUSH1 0x40 MLOAD DUP1 PUSH1 0x40 ADD PUSH1 0x40 MSTORE DUP1 PUSH1 0xE DUP2 MSTORE PUSH1 0x20 ADD PUSH32 0x47726565647956657273654E4654000000000000000000000000000000000000 DUP2 MSTORE POP PUSH1 0x7 SWAP1 DUP1 MLOAD SWAP1 PUSH1 0x20 ADD SWAP1 PUSH3 0x51 SWAP3 SWAP2 SWAP1 PUSH3 0x9C9 JUMP JUMPDEST POP PUSH1 0x40 MLOAD DUP1 PUSH1 0x40 ADD PUSH1 0x40 MSTORE DUP1 PUSH1 0x4 DUP2 MSTORE PUSH1 0x20 ADD PUSH32 0x474E465400000000000000000000000000000000000000000000000000000000 DUP2 MSTORE POP PUSH1 0x8 SWAP1 DUP1 MLOAD SWAP1 PUSH1 0x20 ADD SWAP1 PUSH3 0x9F SWAP3 SWAP2 SWAP1 PUSH3 0x9C9 JUMP JUMPDEST POP PUSH1 0x40 MLOAD DUP1 PUSH2 0x3C0 ADD PUSH1 0x40 MSTORE DUP1 PUSH3 0x15F90 PUSH3 0xFFFFFF AND DUP2 MSTORE PUSH1 0x20 ADD PUSH2 0x7530 PUSH3 0xFFFFFF AND DUP2 MSTORE PUSH1 0x20 ADD PUSH3 0x1B7740 PUSH3 0xFFFFFF AND DUP2 MSTORE PUSH1 0x20 ADD PUSH3 0x1B7740 PUSH3 0xFFFFFF AND DUP2 MSTORE PUSH1 0x20 ADD PUSH2 0xEA60 PUSH3 0xFFFFFF AND DUP2 MSTORE PUSH1 0x20 ADD PUSH2 0xEA60 PUSH3 0xFFFFFF AND DUP2 MSTORE PUSH1 0x20 ADD PUSH2 0xBB80 PUSH3 0xFFFFFF AND DUP2 MSTORE PUSH1 0x20 ADD PUSH2 0xBB80 PUSH3 0xFFFFFF AND DUP2 MSTORE PUSH1 0x20 ADD PUSH2 0x6978 PUSH3 0xFFFFFF AND DUP2 MSTORE PUSH1 0x20 ADD PUSH2 0x7530 PUSH3 0xFFFFFF AND DUP2 MSTORE PUSH1 0x20 ADD PUSH3 0x15F90 PUSH3 0xFFFFFF AND DUP2 MSTORE PUSH1 0x20 ADD PUSH2 0x7530 PUSH3 0xFFFFFF AND DUP2 MSTORE PUSH1 0x20 ADD PUSH2 0x1FA4 PUSH3 0xFFFFFF AND DUP2 MSTORE PUSH1 0x20 ADD PUSH2 0x34BC PUSH3 0xFFFFFF AND DUP2 MSTORE PUSH1 0x20 ADD PUSH2 0x5460 PUSH3 0xFFFFFF AND DUP2 MSTORE PUSH1 0x20 ADD PUSH3 0x1D4C0 PUSH3 0xFFFFFF AND DUP2 MSTORE PUSH1 0x20 ADD PUSH3 0x2BF20 PUSH3 0xFFFFFF AND DUP2 MSTORE PUSH1 0x20 ADD PUSH2 0x5460 PUSH3 0xFFFFFF AND DUP2 MSTORE PUSH1 0x20 ADD PUSH3 0x3A980 PUSH3 0xFFFFFF AND DUP2 MSTORE PUSH1 0x20 ADD PUSH3 0x1D4C0 PUSH3 0xFFFFFF AND DUP2 MSTORE PUSH1 0x20 ADD PUSH2 0x1C20 PUSH3 0xFFFFFF AND DUP2 MSTORE PUSH1 0x20 ADD PUSH2 0x1FA4 PUSH3 0xFFFFFF AND DUP2 MSTORE PUSH1 0x20 ADD PUSH2 0x2616 PUSH3 0xFFFFFF AND DUP2 MSTORE PUSH1 0x20 ADD PUSH2 0x7530 PUSH3 0xFFFFFF AND DUP2 MSTORE PUSH1 0x20 ADD PUSH3 0x1D4C0 PUSH3 0xFFFFFF AND DUP2 MSTORE PUSH1 0x20 ADD PUSH2 0x7530 PUSH3 0xFFFFFF AND DUP2 MSTORE PUSH1 0x20 ADD PUSH3 0x3A980 PUSH3 0xFFFFFF AND DUP2 MSTORE PUSH1 0x20 ADD PUSH3 0x75300 PUSH3 0xFFFFFF AND DUP2 MSTORE PUSH1 0x20 ADD PUSH3 0x1D4C0 PUSH3 0xFFFFFF AND DUP2 MSTORE PUSH1 0x20 ADD PUSH2 0xEA60 PUSH3 0xFFFFFF AND DUP2 MSTORE POP PUSH1 0x9 SWAP1 PUSH1 0x1E PUSH3 0x24E SWAP3 SWAP2 SWAP1 PUSH3 0xA5A JUMP JUMPDEST POP PUSH1 0x40 MLOAD DUP1 PUSH2 0x3C0 ADD PUSH1 0x40 MSTORE DUP1 PUSH1 0x0 PUSH1 0xFF AND DUP2 MSTORE PUSH1 0x20 ADD PUSH1 0x0 PUSH1 0xFF AND DUP2 MSTORE PUSH1 0x20 ADD PUSH1 0x0 PUSH1 0xFF AND DUP2 MSTORE PUSH1 0x20 ADD PUSH1 0x0 PUSH1 0xFF AND DUP2 MSTORE PUSH1 0x20 ADD PUSH1 0x0 PUSH1 0xFF AND DUP2 MSTORE PUSH1 0x20 ADD PUSH1 0x0 PUSH1 0xFF AND DUP2 MSTORE PUSH1 0x20 ADD PUSH1 0x0 PUSH1 0xFF AND DUP2 MSTORE PUSH1 0x20 ADD PUSH1 0x0 PUSH1 0xFF AND DUP2 MSTORE PUSH1 0x20 ADD PUSH1 0x0 PUSH1 0xFF AND DUP2 MSTORE PUSH1 0x20 ADD PUSH1 0x0 PUSH1 0xFF AND DUP2 MSTORE PUSH1 0x20 ADD PUSH1 0x0 PUSH1 0xFF AND DUP2 MSTORE PUSH1 0x20 ADD PUSH1 0x0 PUSH1 0xFF AND DUP2 MSTORE PUSH1 0x20 ADD PUSH1 0x0 PUSH1 0xFF AND DUP2 MSTORE PUSH1 0x20 ADD PUSH1 0x0 PUSH1 0xFF AND DUP2 MSTORE PUSH1 0x20 ADD PUSH1 0x0 PUSH1 0xFF AND DUP2 MSTORE PUSH1 0x20 ADD PUSH1 0x0 PUSH1 0xFF AND DUP2 MSTORE PUSH1 0x20 ADD PUSH1 0x0 PUSH1 0xFF AND DUP2 MSTORE PUSH1 0x20 ADD PUSH1 0x0 PUSH1 0xFF AND DUP2 MSTORE PUSH1 0x20 ADD PUSH1 0x0 PUSH1 0xFF AND DUP2 MSTORE PUSH1 0x20 ADD PUSH1 0x0 PUSH1 0xFF AND DUP2 MSTORE PUSH1 0x20 ADD PUSH1 0x0 PUSH1 0xFF AND DUP2 MSTORE PUSH1 0x20 ADD PUSH1 0x0 PUSH1 0xFF AND DUP2 MSTORE PUSH1 0x20 ADD PUSH1 0x0 PUSH1 0xFF AND DUP2 MSTORE PUSH1 0x20 ADD PUSH1 0x0 PUSH1 0xFF AND DUP2 MSTORE PUSH1 0x20 ADD PUSH1 0x0 PUSH1 0xFF AND DUP2 MSTORE PUSH1 0x20 ADD PUSH1 0x0 PUSH1 0xFF AND DUP2 MSTORE PUSH1 0x20 ADD PUSH1 0x0 PUSH1 0xFF AND DUP2 MSTORE PUSH1 0x20 ADD PUSH1 0x0 PUSH1 0xFF AND DUP2 MSTORE PUSH1 0x20 ADD PUSH1 0x0 PUSH1 0xFF AND DUP2 MSTORE PUSH1 0x20 ADD PUSH1 0x0 PUSH1 0xFF AND DUP2 MSTORE POP PUSH1 0x27 SWAP1 PUSH1 0x1E PUSH3 0x397 SWAP3 SWAP2 SWAP1 PUSH3 0xAA6 JUMP JUMPDEST POP PUSH1 0x40 MLOAD DUP1 PUSH2 0x3C0 ADD PUSH1 0x40 MSTORE DUP1 PUSH7 0x8E1BC9BF040000 PUSH8 0xFFFFFFFFFFFFFFFF AND DUP2 MSTORE PUSH1 0x20 ADD PUSH8 0x1AA535D3D0C0000 PUSH8 0xFFFFFFFFFFFFFFFF AND DUP2 MSTORE PUSH1 0x20 ADD PUSH7 0x5543DF729C000 PUSH8 0xFFFFFFFFFFFFFFFF AND DUP2 MSTORE PUSH1 0x20 ADD PUSH7 0x5543DF729C000 PUSH8 0xFFFFFFFFFFFFFFFF AND DUP2 MSTORE PUSH1 0x20 ADD PUSH7 0xD529AE9E860000 PUSH8 0xFFFFFFFFFFFFFFFF AND DUP2 MSTORE PUSH1 0x20 ADD PUSH7 0xD529AE9E860000 PUSH8 0xFFFFFFFFFFFFFFFF AND DUP2 MSTORE PUSH1 0x20 ADD PUSH8 0x10A741A46278000 PUSH8 0xFFFFFFFFFFFFFFFF AND DUP2 MSTORE PUSH1 0x20 ADD PUSH8 0x10A741A46278000 PUSH8 0xFFFFFFFFFFFFFFFF AND DUP2 MSTORE PUSH1 0x20 ADD PUSH8 0x1D9B1F5D20D5552 PUSH8 0xFFFFFFFFFFFFFFFF AND DUP2 MSTORE PUSH1 0x20 ADD PUSH8 0x1AA535D3D0C0000 PUSH8 0xFFFFFFFFFFFFFFFF AND DUP2 MSTORE PUSH1 0x20 ADD PUSH7 0x8E1BC9BF040000 PUSH8 0xFFFFFFFFFFFFFFFF AND DUP2 MSTORE PUSH1 0x20 ADD PUSH8 0x1AA535D3D0C0000 PUSH8 0xFFFFFFFFFFFFFFFF AND DUP2 MSTORE PUSH1 0x20 ADD PUSH8 0x62AFBDE1181C6F0 PUSH8 0xFFFFFFFFFFFFFFFF AND DUP2 MSTORE PUSH1 0x20 ADD PUSH8 0x3B363EBA41AAAA4 PUSH8 0xFFFFFFFFFFFFFFFF AND DUP2 MSTORE PUSH1 0x20 ADD PUSH8 0x2501E734690AAA4 PUSH8 0xFFFFFFFFFFFFFFFF AND DUP2 MSTORE PUSH1 0x20 ADD PUSH7 0x6A94D74F430000 PUSH8 0xFFFFFFFFFFFFFFFF AND DUP2 MSTORE PUSH1 0x20 ADD PUSH7 0x470DE4DF820000 PUSH8 0xFFFFFFFFFFFFFFFF AND DUP2 MSTORE PUSH1 0x20 ADD PUSH8 0x2501E734690AAA4 PUSH8 0xFFFFFFFFFFFFFFFF AND DUP2 MSTORE PUSH1 0x20 ADD PUSH7 0x354A6BA7A18000 PUSH8 0xFFFFFFFFFFFFFFFF AND DUP2 MSTORE PUSH1 0x20 ADD PUSH7 0x6A94D74F430000 PUSH8 0xFFFFFFFFFFFFFFFF AND DUP2 MSTORE PUSH1 0x20 ADD PUSH8 0x6F05B59D3B20000 PUSH8 0xFFFFFFFFFFFFFFFF AND DUP2 MSTORE PUSH1 0x20 ADD PUSH8 0x62AFBDE1181C6F0 PUSH8 0xFFFFFFFFFFFFFFFF AND DUP2 MSTORE PUSH1 0x20 ADD PUSH8 0x51FC56DA824EC62 PUSH8 0xFFFFFFFFFFFFFFFF AND DUP2 MSTORE PUSH1 0x20 ADD PUSH8 0x1AA535D3D0C0000 PUSH8 0xFFFFFFFFFFFFFFFF AND DUP2 MSTORE PUSH1 0x20 ADD PUSH7 0x6A94D74F430000 PUSH8 0xFFFFFFFFFFFFFFFF AND DUP2 MSTORE PUSH1 0x20 ADD PUSH8 0x1AA535D3D0C0000 PUSH8 0xFFFFFFFFFFFFFFFF AND DUP2 MSTORE PUSH1 0x20 ADD PUSH7 0x354A6BA7A18000 PUSH8 0xFFFFFFFFFFFFFFFF AND DUP2 MSTORE PUSH1 0x20 ADD PUSH7 0x1AA535D3D0C000 PUSH8 0xFFFFFFFFFFFFFFFF AND DUP2 MSTORE PUSH1 0x20 ADD PUSH7 0x6A94D74F430000 PUSH8 0xFFFFFFFFFFFFFFFF AND DUP2 MSTORE PUSH1 0x20 ADD PUSH8 0x1AA535D3D0C0000 PUSH8 0xFFFFFFFFFFFFFFFF AND DUP2 MSTORE POP PUSH1 0x45 SWAP1 PUSH1 0x1E PUSH3 0x676 SWAP3 SWAP2 SWAP1 PUSH3 0xAF0 JUMP JUMPDEST POP PUSH1 0x28 PUSH1 0x63 SSTORE PUSH1 0x1E PUSH1 0x64 SSTORE PUSH1 0x1E PUSH1 0x65 SSTORE PUSH1 0x5 PUSH1 0x66 SSTORE PUSH1 0x2 PUSH1 0x67 SSTORE PUSH1 0x2 PUSH1 0x68 SSTORE PUSH1 0x3 PUSH1 0x69 SSTORE PUSH1 0x3 PUSH1 0x6A SSTORE PUSH1 0x3 PUSH1 0x6B SSTORE PUSH20 0xB546FC62DCB523C4F5F1581021BF27A8019B5516 PUSH1 0x6C PUSH1 0x0 PUSH2 0x100 EXP DUP2 SLOAD DUP2 PUSH20 0xFFFFFFFFFFFFFFFFFFFFFFFFFFFFFFFFFFFFFFFF MUL NOT AND SWAP1 DUP4 PUSH20 0xFFFFFFFFFFFFFFFFFFFFFFFFFFFFFFFFFFFFFFFF AND MUL OR SWAP1 SSTORE POP PUSH1 0x0 PUSH1 0x70 PUSH1 0x0 PUSH2 0x100 EXP DUP2 SLOAD DUP2 PUSH1 0xFF MUL NOT AND SWAP1 DUP4 ISZERO ISZERO MUL OR SWAP1 SSTORE POP PUSH1 0x0 PUSH1 0x70 PUSH1 0x1 PUSH2 0x100 EXP DUP2 SLOAD DUP2 PUSH1 0xFF MUL NOT AND SWAP1 DUP4 ISZERO ISZERO MUL OR SWAP1 SSTORE POP CALLVALUE DUP1 ISZERO PUSH3 0x73C JUMPI PUSH1 0x0 DUP1 REVERT JUMPDEST POP PUSH1 0x40 MLOAD DUP1 PUSH1 0x60 ADD PUSH1 0x40 MSTORE DUP1 PUSH1 0x35 DUP2 MSTORE PUSH1 0x20 ADD PUSH3 0x7EE2 PUSH1 0x35 SWAP2 CODECOPY PUSH3 0x768 DUP2 PUSH3 0x8DF PUSH1 0x20 SHL PUSH1 0x20 SHR JUMP JUMPDEST POP PUSH3 0x789 PUSH3 0x77D PUSH3 0x8FB PUSH1 0x20 SHL PUSH1 0x20 SHR JUMP JUMPDEST PUSH3 0x903 PUSH1 0x20 SHL PUSH1 0x20 SHR JUMP JUMPDEST PUSH20 0x22B7B595E4BD0304BBB55E475A01ADC573986C5F PUSH1 0x4 PUSH1 0x0 PUSH2 0x100 EXP DUP2 SLOAD DUP2 PUSH20 0xFFFFFFFFFFFFFFFFFFFFFFFFFFFFFFFFFFFFFFFF MUL NOT AND SWAP1 DUP4 PUSH20 0xFFFFFFFFFFFFFFFFFFFFFFFFFFFFFFFFFFFFFFFF AND MUL OR SWAP1 SSTORE POP PUSH20 0x9E560D6A9E13CF6FBE7A4819AEAF9A05453932C3 PUSH1 0x5 PUSH1 0x0 PUSH2 0x100 EXP DUP2 SLOAD DUP2 PUSH20 0xFFFFFFFFFFFFFFFFFFFFFFFFFFFFFFFFFFFFFFFF MUL NOT AND SWAP1 DUP4 PUSH20 0xFFFFFFFFFFFFFFFFFFFFFFFFFFFFFFFFFFFFFFFF AND MUL OR SWAP1 SSTORE POP PUSH20 0x64216E7CD90A112D547C92018E3F8FD2055E4B01 PUSH1 0x6 PUSH1 0x0 PUSH2 0x100 EXP DUP2 SLOAD DUP2 PUSH20 0xFFFFFFFFFFFFFFFFFFFFFFFFFFFFFFFFFFFFFFFF MUL NOT AND SWAP1 DUP4 PUSH20 0xFFFFFFFFFFFFFFFFFFFFFFFFFFFFFFFFFFFFFFFF AND MUL OR SWAP1 SSTORE POP PUSH1 0x0 PUSH20 0x10ED43C718714EB63D5AA57B78B54704E256024E SWAP1 POP DUP1 PUSH20 0xFFFFFFFFFFFFFFFFFFFFFFFFFFFFFFFFFFFFFFFF AND PUSH1 0x80 DUP2 PUSH20 0xFFFFFFFFFFFFFFFFFFFFFFFFFFFFFFFFFFFFFFFF AND PUSH1 0x60 SHL DUP2 MSTORE POP POP POP PUSH3 0xBC5 JUMP JUMPDEST DUP1 PUSH1 0x2 SWAP1 DUP1 MLOAD SWAP1 PUSH1 0x20 ADD SWAP1 PUSH3 0x8F7 SWAP3 SWAP2 SWAP1 PUSH3 0x9C9 JUMP JUMPDEST POP POP JUMP JUMPDEST PUSH1 0x0 CALLER SWAP1 POP SWAP1 JUMP JUMPDEST PUSH1 0x0 PUSH1 0x3 PUSH1 0x0 SWAP1 SLOAD SWAP1 PUSH2 0x100 EXP SWAP1 DIV PUSH20 0xFFFFFFFFFFFFFFFFFFFFFFFFFFFFFFFFFFFFFFFF AND SWAP1 POP DUP2 PUSH1 0x3 PUSH1 0x0 PUSH2 0x100 EXP DUP2 SLOAD DUP2 PUSH20 0xFFFFFFFFFFFFFFFFFFFFFFFFFFFFFFFFFFFFFFFF MUL NOT AND SWAP1 DUP4 PUSH20 0xFFFFFFFFFFFFFFFFFFFFFFFFFFFFFFFFFFFFFFFF AND MUL OR SWAP1 SSTORE POP DUP2 PUSH20 0xFFFFFFFFFFFFFFFFFFFFFFFFFFFFFFFFFFFFFFFF AND DUP2 PUSH20 0xFFFFFFFFFFFFFFFFFFFFFFFFFFFFFFFFFFFFFFFF AND PUSH32 0x8BE0079C531659141344CD1FD0A4F28419497F9722A3DAAFE3B4186F6B6457E0 PUSH1 0x40 MLOAD PUSH1 0x40 MLOAD DUP1 SWAP2 SUB SWAP1 LOG3 POP POP JUMP JUMPDEST DUP3 DUP1 SLOAD PUSH3 0x9D7 SWAP1 PUSH3 0xB60 JUMP JUMPDEST SWAP1 PUSH1 0x0 MSTORE PUSH1 0x20 PUSH1 0x0 KECCAK256 SWAP1 PUSH1 0x1F ADD PUSH1 0x20 SWAP1 DIV DUP2 ADD SWAP3 DUP3 PUSH3 0x9FB JUMPI PUSH1 0x0 DUP6 SSTORE PUSH3 0xA47 JUMP JUMPDEST DUP3 PUSH1 0x1F LT PUSH3 0xA16 JUMPI DUP1 MLOAD PUSH1 0xFF NOT AND DUP4 DUP1 ADD OR DUP6 SSTORE PUSH3 0xA47 JUMP JUMPDEST DUP3 DUP1 ADD PUSH1 0x1 ADD DUP6 SSTORE DUP3 ISZERO PUSH3 0xA47 JUMPI SWAP2 DUP3 ADD JUMPDEST DUP3 DUP2 GT ISZERO PUSH3 0xA46 JUMPI DUP3 MLOAD DUP3 SSTORE SWAP2 PUSH1 0x20 ADD SWAP2 SWAP1 PUSH1 0x1 ADD SWAP1 PUSH3 0xA29 JUMP JUMPDEST JUMPDEST POP SWAP1 POP PUSH3 0xA56 SWAP2 SWAP1 PUSH3 0xB41 JUMP JUMPDEST POP SWAP1 JUMP JUMPDEST DUP3 PUSH1 0x1E DUP2 ADD SWAP3 DUP3 ISZERO PUSH3 0xA93 JUMPI SWAP2 PUSH1 0x20 MUL DUP3 ADD JUMPDEST DUP3 DUP2 GT ISZERO PUSH3 0xA92 JUMPI DUP3 MLOAD DUP3 SWAP1 PUSH3 0xFFFFFF AND SWAP1 SSTORE SWAP2 PUSH1 0x20 ADD SWAP2 SWAP1 PUSH1 0x1 ADD SWAP1 PUSH3 0xA6E JUMP JUMPDEST JUMPDEST POP SWAP1 POP PUSH3 0xAA2 SWAP2 SWAP1 PUSH3 0xB41 JUMP JUMPDEST POP SWAP1 JUMP JUMPDEST DUP3 PUSH1 0x1E DUP2 ADD SWAP3 DUP3 ISZERO PUSH3 0xADD JUMPI SWAP2 PUSH1 0x20 MUL DUP3 ADD JUMPDEST DUP3 DUP2 GT ISZERO PUSH3 0xADC JUMPI DUP3 MLOAD DUP3 SWAP1 PUSH1 0xFF AND SWAP1 SSTORE SWAP2 PUSH1 0x20 ADD SWAP2 SWAP1 PUSH1 0x1 ADD SWAP1 PUSH3 0xABA JUMP JUMPDEST JUMPDEST POP SWAP1 POP PUSH3 0xAEC SWAP2 SWAP1 PUSH3 0xB41 JUMP JUMPDEST POP SWAP1 JUMP JUMPDEST DUP3 PUSH1 0x1E DUP2 ADD SWAP3 DUP3 ISZERO PUSH3 0xB2E JUMPI SWAP2 PUSH1 0x20 MUL DUP3 ADD JUMPDEST DUP3 DUP2 GT ISZERO PUSH3 0xB2D JUMPI DUP3 MLOAD DUP3 SWAP1 PUSH8 0xFFFFFFFFFFFFFFFF AND SWAP1 SSTORE SWAP2 PUSH1 0x20 ADD SWAP2 SWAP1 PUSH1 0x1 ADD SWAP1 PUSH3 0xB04 JUMP JUMPDEST JUMPDEST POP SWAP1 POP PUSH3 0xB3D SWAP2 SWAP1 PUSH3 0xB41 JUMP JUMPDEST POP SWAP1 JUMP JUMPDEST JUMPDEST DUP1 DUP3 GT ISZERO PUSH3 0xB5C JUMPI PUSH1 0x0 DUP2 PUSH1 0x0 SWAP1 SSTORE POP PUSH1 0x1 ADD PUSH3 0xB42 JUMP JUMPDEST POP SWAP1 JUMP JUMPDEST PUSH1 0x0 PUSH1 0x2 DUP3 DIV SWAP1 POP PUSH1 0x1 DUP3 AND DUP1 PUSH3 0xB79 JUMPI PUSH1 0x7F DUP3 AND SWAP2 POP JUMPDEST PUSH1 0x20 DUP3 LT DUP2 EQ ISZERO PUSH3 0xB90 JUMPI PUSH3 0xB8F PUSH3 0xB96 JUMP JUMPDEST JUMPDEST POP SWAP2 SWAP1 POP JUMP JUMPDEST PUSH32 0x4E487B7100000000000000000000000000000000000000000000000000000000 PUSH1 0x0 MSTORE PUSH1 0x22 PUSH1 0x4 MSTORE PUSH1 0x24 PUSH1 0x0 REVERT JUMPDEST PUSH1 0x80 MLOAD PUSH1 0x60 SHR PUSH2 0x72F0 PUSH3 0xBF2 PUSH1 0x0 CODECOPY PUSH1 0x0 DUP2 DUP2 PUSH2 0x2230 ADD MSTORE DUP2 DUP2 PUSH2 0x3DDE ADD MSTORE PUSH2 0x3F3B ADD MSTORE PUSH2 0x72F0 PUSH1 0x0 RETURN INVALID PUSH1 0x80 PUSH1 0x40 MSTORE PUSH1 0x4 CALLDATASIZE LT PUSH2 0x27B JUMPI PUSH1 0x0 CALLDATALOAD PUSH1 0xE0 SHR DUP1 PUSH4 0x95D89B41 GT PUSH2 0x14F JUMPI DUP1 PUSH4 0xCE24359C GT PUSH2 0xC1 JUMPI DUP1 PUSH4 0xEF463B64 GT PUSH2 0x7A JUMPI DUP1 PUSH4 0xEF463B64 EQ PUSH2 0x963 JUMPI DUP1 PUSH4 0xF242432A EQ PUSH2 0x9A1 JUMPI DUP1 PUSH4 0xF2FDE38B EQ PUSH2 0x9CA JUMPI DUP1 PUSH4 0xF399A751 EQ PUSH2 0x9F3 JUMPI DUP1 PUSH4 0xF6361C9D EQ PUSH2 0xA30 JUMPI DUP1 PUSH4 0xFE1881C4 EQ PUSH2 0xA5B JUMPI PUSH2 0x27B JUMP JUMPDEST DUP1 PUSH4 0xCE24359C EQ PUSH2 0x872 JUMPI DUP1 PUSH4 0xD9397ADC EQ PUSH2 0x88E JUMPI DUP1 PUSH4 0xE13401E4 EQ PUSH2 0x8A5 JUMPI DUP1 PUSH4 0xE5DFFED3 EQ PUSH2 0x8D0 JUMPI DUP1 PUSH4 0xE985E9C5 EQ PUSH2 0x8FB JUMPI DUP1 PUSH4 0xEDD43C9F EQ PUSH2 0x938 JUMPI PUSH2 0x27B JUMP JUMPDEST DUP1 PUSH4 0xB3BC6C8F GT PUSH2 0x113 JUMPI DUP1 PUSH4 0xB3BC6C8F EQ PUSH2 0x772 JUMPI DUP1 PUSH4 0xB4ECBE22 EQ PUSH2 0x79D JUMPI DUP1 PUSH4 0xB903B07D EQ PUSH2 0x7B4 JUMPI DUP1 PUSH4 0xC0FF4BB4 EQ PUSH2 0x7DF JUMPI DUP1 PUSH4 0xC48D6FC7 EQ PUSH2 0x81C JUMPI DUP1 PUSH4 0xCAA9F716 EQ PUSH2 0x847 JUMPI PUSH2 0x27B JUMP JUMPDEST DUP1 PUSH4 0x95D89B41 EQ PUSH2 0x679 JUMPI DUP1 PUSH4 0xA22CB465 EQ PUSH2 0x6A4 JUMPI DUP1 PUSH4 0xA6C808FF EQ PUSH2 0x6CD JUMPI DUP1 PUSH4 0xAE95F107 EQ PUSH2 0x6F8 JUMPI DUP1 PUSH4 0xAFA85E32 EQ PUSH2 0x735 JUMPI PUSH2 0x27B JUMP JUMPDEST DUP1 PUSH4 0x37CACEE7 GT PUSH2 0x1F3 JUMPI DUP1 PUSH4 0x59927044 GT PUSH2 0x1AC JUMPI DUP1 PUSH4 0x59927044 EQ PUSH2 0x58A JUMPI DUP1 PUSH4 0x636737D5 EQ PUSH2 0x5B5 JUMPI DUP1 PUSH4 0x6A884B8F EQ PUSH2 0x5DE JUMPI DUP1 PUSH4 0x715018A6 EQ PUSH2 0x5FA JUMPI DUP1 PUSH4 0x80FBA42F EQ PUSH2 0x611 JUMPI DUP1 PUSH4 0x8DA5CB5B EQ PUSH2 0x64E JUMPI PUSH2 0x27B JUMP JUMPDEST DUP1 PUSH4 0x37CACEE7 EQ PUSH2 0x454 JUMPI DUP1 PUSH4 0x47EE0394 EQ PUSH2 0x47F JUMPI DUP1 PUSH4 0x4E1273F4 EQ PUSH2 0x4A8 JUMPI DUP1 PUSH4 0x51F038C5 EQ PUSH2 0x4E5 JUMPI DUP1 PUSH4 0x57668602 EQ PUSH2 0x522 JUMPI DUP1 PUSH4 0x5784E7DA EQ PUSH2 0x55F JUMPI PUSH2 0x27B JUMP JUMPDEST DUP1 PUSH4 0x6FDDE03 GT PUSH2 0x245 JUMPI DUP1 PUSH4 0x6FDDE03 EQ PUSH2 0x365 JUMPI DUP1 PUSH4 0xE89341C EQ PUSH2 0x390 JUMPI DUP1 PUSH4 0x1B2EF1CA EQ PUSH2 0x3CD JUMPI DUP1 PUSH4 0x2BE09561 EQ PUSH2 0x3E9 JUMPI DUP1 PUSH4 0x2EB2C2D6 EQ PUSH2 0x400 JUMPI DUP1 PUSH4 0x34C73884 EQ PUSH2 0x429 JUMPI PUSH2 0x27B JUMP JUMPDEST DUP1 PUSH3 0x9F8882 EQ PUSH2 0x280 JUMPI DUP1 PUSH3 0xFDD58E EQ PUSH2 0x2AB JUMPI DUP1 PUSH4 0x17043A5 EQ PUSH2 0x2E8 JUMPI DUP1 PUSH4 0x1BF6648 EQ PUSH2 0x2FF JUMPI DUP1 PUSH4 0x1FFC9A7 EQ PUSH2 0x328 JUMPI JUMPDEST PUSH1 0x0 DUP1 REVERT JUMPDEST CALLVALUE DUP1 ISZERO PUSH2 0x28C JUMPI PUSH1 0x0 DUP1 REVERT JUMPDEST POP PUSH2 0x295 PUSH2 0xA86 JUMP JUMPDEST PUSH1 0x40 MLOAD PUSH2 0x2A2 SWAP2 SWAP1 PUSH2 0x6269 JUMP JUMPDEST PUSH1 0x40 MLOAD DUP1 SWAP2 SUB SWAP1 RETURN JUMPDEST CALLVALUE DUP1 ISZERO PUSH2 0x2B7 JUMPI PUSH1 0x0 DUP1 REVERT JUMPDEST POP PUSH2 0x2D2 PUSH1 0x4 DUP1 CALLDATASIZE SUB DUP2 ADD SWAP1 PUSH2 0x2CD SWAP2 SWAP1 PUSH2 0x52DC JUMP JUMPDEST PUSH2 0xA8C JUMP JUMPDEST PUSH1 0x40 MLOAD PUSH2 0x2DF SWAP2 SWAP1 PUSH2 0x6269 JUMP JUMPDEST PUSH1 0x40 MLOAD DUP1 SWAP2 SUB SWAP1 RETURN JUMPDEST CALLVALUE DUP1 ISZERO PUSH2 0x2F4 JUMPI PUSH1 0x0 DUP1 REVERT JUMPDEST POP PUSH2 0x2FD PUSH2 0xB55 JUMP JUMPDEST STOP JUMPDEST CALLVALUE DUP1 ISZERO PUSH2 0x30B JUMPI PUSH1 0x0 DUP1 REVERT JUMPDEST POP PUSH2 0x326 PUSH1 0x4 DUP1 CALLDATASIZE SUB DUP2 ADD SWAP1 PUSH2 0x321 SWAP2 SWAP1 PUSH2 0x509C JUMP JUMPDEST PUSH2 0xB7A JUMP JUMPDEST STOP JUMPDEST CALLVALUE DUP1 ISZERO PUSH2 0x334 JUMPI PUSH1 0x0 DUP1 REVERT JUMPDEST POP PUSH2 0x34F PUSH1 0x4 DUP1 CALLDATASIZE SUB DUP2 ADD SWAP1 PUSH2 0x34A SWAP2 SWAP1 PUSH2 0x5433 JUMP JUMPDEST PUSH2 0xBDD JUMP JUMPDEST PUSH1 0x40 MLOAD PUSH2 0x35C SWAP2 SWAP1 PUSH2 0x5D45 JUMP JUMPDEST PUSH1 0x40 MLOAD DUP1 SWAP2 SUB SWAP1 RETURN JUMPDEST CALLVALUE DUP1 ISZERO PUSH2 0x371 JUMPI PUSH1 0x0 DUP1 REVERT JUMPDEST POP PUSH2 0x37A PUSH2 0xCBF JUMP JUMPDEST PUSH1 0x40 MLOAD PUSH2 0x387 SWAP2 SWAP1 PUSH2 0x5DC7 JUMP JUMPDEST PUSH1 0x40 MLOAD DUP1 SWAP2 SUB SWAP1 RETURN JUMPDEST CALLVALUE DUP1 ISZERO PUSH2 0x39C JUMPI PUSH1 0x0 DUP1 REVERT JUMPDEST POP PUSH2 0x3B7 PUSH1 0x4 DUP1 CALLDATASIZE SUB DUP2 ADD SWAP1 PUSH2 0x3B2 SWAP2 SWAP1 PUSH2 0x548D JUMP JUMPDEST PUSH2 0xD4D JUMP JUMPDEST PUSH1 0x40 MLOAD PUSH2 0x3C4 SWAP2 SWAP1 PUSH2 0x5DC7 JUMP JUMPDEST PUSH1 0x40 MLOAD DUP1 SWAP2 SUB SWAP1 RETURN JUMPDEST PUSH2 0x3E7 PUSH1 0x4 DUP1 CALLDATASIZE SUB DUP2 ADD SWAP1 PUSH2 0x3E2 SWAP2 SWAP1 PUSH2 0x54BA JUMP JUMPDEST PUSH2 0xDE1 JUMP JUMPDEST STOP JUMPDEST CALLVALUE DUP1 ISZERO PUSH2 0x3F5 JUMPI PUSH1 0x0 DUP1 REVERT JUMPDEST POP PUSH2 0x3FE PUSH2 0xE3E JUMP JUMPDEST STOP JUMPDEST CALLVALUE DUP1 ISZERO PUSH2 0x40C JUMPI PUSH1 0x0 DUP1 REVERT JUMPDEST POP PUSH2 0x427 PUSH1 0x4 DUP1 CALLDATASIZE SUB DUP2 ADD SWAP1 PUSH2 0x422 SWAP2 SWAP1 PUSH2 0x5136 JUMP JUMPDEST PUSH2 0xE63 JUMP JUMPDEST STOP JUMPDEST CALLVALUE DUP1 ISZERO PUSH2 0x435 JUMPI PUSH1 0x0 DUP1 REVERT JUMPDEST POP PUSH2 0x43E PUSH2 0x19C7 JUMP JUMPDEST PUSH1 0x40 MLOAD PUSH2 0x44B SWAP2 SWAP1 PUSH2 0x5D45 JUMP JUMPDEST PUSH1 0x40 MLOAD DUP1 SWAP2 SUB SWAP1 RETURN JUMPDEST CALLVALUE DUP1 ISZERO PUSH2 0x460 JUMPI PUSH1 0x0 DUP1 REVERT JUMPDEST POP PUSH2 0x469 PUSH2 0x19DA JUMP JUMPDEST PUSH1 0x40 MLOAD PUSH2 0x476 SWAP2 SWAP1 PUSH2 0x6269 JUMP JUMPDEST PUSH1 0x40 MLOAD DUP1 SWAP2 SUB SWAP1 RETURN JUMPDEST CALLVALUE DUP1 ISZERO PUSH2 0x48B JUMPI PUSH1 0x0 DUP1 REVERT JUMPDEST POP PUSH2 0x4A6 PUSH1 0x4 DUP1 CALLDATASIZE SUB DUP2 ADD SWAP1 PUSH2 0x4A1 SWAP2 SWAP1 PUSH2 0x509C JUMP JUMPDEST PUSH2 0x19E0 JUMP JUMPDEST STOP JUMPDEST CALLVALUE DUP1 ISZERO PUSH2 0x4B4 JUMPI PUSH1 0x0 DUP1 REVERT JUMPDEST POP PUSH2 0x4CF PUSH1 0x4 DUP1 CALLDATASIZE SUB DUP2 ADD SWAP1 PUSH2 0x4CA SWAP2 SWAP1 PUSH2 0x531C JUMP JUMPDEST PUSH2 0x1A43 JUMP JUMPDEST PUSH1 0x40 MLOAD PUSH2 0x4DC SWAP2 SWAP1 PUSH2 0x5CEC JUMP JUMPDEST PUSH1 0x40 MLOAD DUP1 SWAP2 SUB SWAP1 RETURN JUMPDEST CALLVALUE DUP1 ISZERO PUSH2 0x4F1 JUMPI PUSH1 0x0 DUP1 REVERT JUMPDEST POP PUSH2 0x50C PUSH1 0x4 DUP1 CALLDATASIZE SUB DUP2 ADD SWAP1 PUSH2 0x507 SWAP2 SWAP1 PUSH2 0x52DC JUMP JUMPDEST PUSH2 0x1B5C JUMP JUMPDEST PUSH1 0x40 MLOAD PUSH2 0x519 SWAP2 SWAP1 PUSH2 0x6269 JUMP JUMPDEST PUSH1 0x40 MLOAD DUP1 SWAP2 SUB SWAP1 RETURN JUMPDEST CALLVALUE DUP1 ISZERO PUSH2 0x52E JUMPI PUSH1 0x0 DUP1 REVERT JUMPDEST POP PUSH2 0x549 PUSH1 0x4 DUP1 CALLDATASIZE SUB DUP2 ADD SWAP1 PUSH2 0x544 SWAP2 SWAP1 PUSH2 0x548D JUMP JUMPDEST PUSH2 0x1BB7 JUMP JUMPDEST PUSH1 0x40 MLOAD PUSH2 0x556 SWAP2 SWAP1 PUSH2 0x6269 JUMP JUMPDEST PUSH1 0x40 MLOAD DUP1 SWAP2 SUB SWAP1 RETURN JUMPDEST CALLVALUE DUP1 ISZERO PUSH2 0x56B JUMPI PUSH1 0x0 DUP1 REVERT JUMPDEST POP PUSH2 0x574 PUSH2 0x1BD2 JUMP JUMPDEST PUSH1 0x40 MLOAD PUSH2 0x581 SWAP2 SWAP1 PUSH2 0x5C0F JUMP JUMPDEST PUSH1 0x40 MLOAD DUP1 SWAP2 SUB SWAP1 RETURN JUMPDEST CALLVALUE DUP1 ISZERO PUSH2 0x596 JUMPI PUSH1 0x0 DUP1 REVERT JUMPDEST POP PUSH2 0x59F PUSH2 0x1BF8 JUMP JUMPDEST PUSH1 0x40 MLOAD PUSH2 0x5AC SWAP2 SWAP1 PUSH2 0x5C0F JUMP JUMPDEST PUSH1 0x40 MLOAD DUP1 SWAP2 SUB SWAP1 RETURN JUMPDEST CALLVALUE DUP1 ISZERO PUSH2 0x5C1 JUMPI PUSH1 0x0 DUP1 REVERT JUMPDEST POP PUSH2 0x5DC PUSH1 0x4 DUP1 CALLDATASIZE SUB DUP2 ADD SWAP1 PUSH2 0x5D7 SWAP2 SWAP1 PUSH2 0x5394 JUMP JUMPDEST PUSH2 0x1C1E JUMP JUMPDEST STOP JUMPDEST PUSH2 0x5F8 PUSH1 0x4 DUP1 CALLDATASIZE SUB DUP2 ADD SWAP1 PUSH2 0x5F3 SWAP2 SWAP1 PUSH2 0x54BA JUMP JUMPDEST PUSH2 0x1D33 JUMP JUMPDEST STOP JUMPDEST CALLVALUE DUP1 ISZERO PUSH2 0x606 JUMPI PUSH1 0x0 DUP1 REVERT JUMPDEST POP PUSH2 0x60F PUSH2 0x1F1B JUMP JUMPDEST STOP JUMPDEST CALLVALUE DUP1 ISZERO PUSH2 0x61D JUMPI PUSH1 0x0 DUP1 REVERT JUMPDEST POP PUSH2 0x638 PUSH1 0x4 DUP1 CALLDATASIZE SUB DUP2 ADD SWAP1 PUSH2 0x633 SWAP2 SWAP1 PUSH2 0x548D JUMP JUMPDEST PUSH2 0x1F2F JUMP JUMPDEST PUSH1 0x40 MLOAD PUSH2 0x645 SWAP2 SWAP1 PUSH2 0x6269 JUMP JUMPDEST PUSH1 0x40 MLOAD DUP1 SWAP2 SUB SWAP1 RETURN JUMPDEST CALLVALUE DUP1 ISZERO PUSH2 0x65A JUMPI PUSH1 0x0 DUP1 REVERT JUMPDEST POP PUSH2 0x663 PUSH2 0x1F4A JUMP JUMPDEST PUSH1 0x40 MLOAD PUSH2 0x670 SWAP2 SWAP1 PUSH2 0x5BF4 JUMP JUMPDEST PUSH1 0x40 MLOAD DUP1 SWAP2 SUB SWAP1 RETURN JUMPDEST CALLVALUE DUP1 ISZERO PUSH2 0x685 JUMPI PUSH1 0x0 DUP1 REVERT JUMPDEST POP PUSH2 0x68E PUSH2 0x1F74 JUMP JUMPDEST PUSH1 0x40 MLOAD PUSH2 0x69B SWAP2 SWAP1 PUSH2 0x5DC7 JUMP JUMPDEST PUSH1 0x40 MLOAD DUP1 SWAP2 SUB SWAP1 RETURN JUMPDEST CALLVALUE DUP1 ISZERO PUSH2 0x6B0 JUMPI PUSH1 0x0 DUP1 REVERT JUMPDEST POP PUSH2 0x6CB PUSH1 0x4 DUP1 CALLDATASIZE SUB DUP2 ADD SWAP1 PUSH2 0x6C6 SWAP2 SWAP1 PUSH2 0x529C JUMP JUMPDEST PUSH2 0x2002 JUMP JUMPDEST STOP JUMPDEST CALLVALUE DUP1 ISZERO PUSH2 0x6D9 JUMPI PUSH1 0x0 DUP1 REVERT JUMPDEST POP PUSH2 0x6E2 PUSH2 0x2018 JUMP JUMPDEST PUSH1 0x40 MLOAD PUSH2 0x6EF SWAP2 SWAP1 PUSH2 0x6269 JUMP JUMPDEST PUSH1 0x40 MLOAD DUP1 SWAP2 SUB SWAP1 RETURN JUMPDEST CALLVALUE DUP1 ISZERO PUSH2 0x704 JUMPI PUSH1 0x0 DUP1 REVERT JUMPDEST POP PUSH2 0x71F PUSH1 0x4 DUP1 CALLDATASIZE SUB DUP2 ADD SWAP1 PUSH2 0x71A SWAP2 SWAP1 PUSH2 0x52DC JUMP JUMPDEST PUSH2 0x201E JUMP JUMPDEST PUSH1 0x40 MLOAD PUSH2 0x72C SWAP2 SWAP1 PUSH2 0x6269 JUMP JUMPDEST PUSH1 0x40 MLOAD DUP1 SWAP2 SUB SWAP1 RETURN JUMPDEST CALLVALUE DUP1 ISZERO PUSH2 0x741 JUMPI PUSH1 0x0 DUP1 REVERT JUMPDEST POP PUSH2 0x75C PUSH1 0x4 DUP1 CALLDATASIZE SUB DUP2 ADD SWAP1 PUSH2 0x757 SWAP2 SWAP1 PUSH2 0x52DC JUMP JUMPDEST PUSH2 0x2043 JUMP JUMPDEST PUSH1 0x40 MLOAD PUSH2 0x769 SWAP2 SWAP1 PUSH2 0x6269 JUMP JUMPDEST PUSH1 0x40 MLOAD DUP1 SWAP2 SUB SWAP1 RETURN JUMPDEST CALLVALUE DUP1 ISZERO PUSH2 0x77E JUMPI PUSH1 0x0 DUP1 REVERT JUMPDEST POP PUSH2 0x787 PUSH2 0x20A1 JUMP JUMPDEST PUSH1 0x40 MLOAD PUSH2 0x794 SWAP2 SWAP1 PUSH2 0x6269 JUMP JUMPDEST PUSH1 0x40 MLOAD DUP1 SWAP2 SUB SWAP1 RETURN JUMPDEST CALLVALUE DUP1 ISZERO PUSH2 0x7A9 JUMPI PUSH1 0x0 DUP1 REVERT JUMPDEST POP PUSH2 0x7B2 PUSH2 0x20A7 JUMP JUMPDEST STOP JUMPDEST CALLVALUE DUP1 ISZERO PUSH2 0x7C0 JUMPI PUSH1 0x0 DUP1 REVERT JUMPDEST POP PUSH2 0x7C9 PUSH2 0x20CC JUMP JUMPDEST PUSH1 0x40 MLOAD PUSH2 0x7D6 SWAP2 SWAP1 PUSH2 0x6269 JUMP JUMPDEST PUSH1 0x40 MLOAD DUP1 SWAP2 SUB SWAP1 RETURN JUMPDEST CALLVALUE DUP1 ISZERO PUSH2 0x7EB JUMPI PUSH1 0x0 DUP1 REVERT JUMPDEST POP PUSH2 0x806 PUSH1 0x4 DUP1 CALLDATASIZE SUB DUP2 ADD SWAP1 PUSH2 0x801 SWAP2 SWAP1 PUSH2 0x548D JUMP JUMPDEST PUSH2 0x20D2 JUMP JUMPDEST PUSH1 0x40 MLOAD PUSH2 0x813 SWAP2 SWAP1 PUSH2 0x6269 JUMP JUMPDEST PUSH1 0x40 MLOAD DUP1 SWAP2 SUB SWAP1 RETURN JUMPDEST CALLVALUE DUP1 ISZERO PUSH2 0x828 JUMPI PUSH1 0x0 DUP1 REVERT JUMPDEST POP PUSH2 0x831 PUSH2 0x20ED JUMP JUMPDEST PUSH1 0x40 MLOAD PUSH2 0x83E SWAP2 SWAP1 PUSH2 0x6269 JUMP JUMPDEST PUSH1 0x40 MLOAD DUP1 SWAP2 SUB SWAP1 RETURN JUMPDEST CALLVALUE DUP1 ISZERO PUSH2 0x853 JUMPI PUSH1 0x0 DUP1 REVERT JUMPDEST POP PUSH2 0x85C PUSH2 0x20F3 JUMP JUMPDEST PUSH1 0x40 MLOAD PUSH2 0x869 SWAP2 SWAP1 PUSH2 0x6269 JUMP JUMPDEST PUSH1 0x40 MLOAD DUP1 SWAP2 SUB SWAP1 RETURN JUMPDEST PUSH2 0x88C PUSH1 0x4 DUP1 CALLDATASIZE SUB DUP2 ADD SWAP1 PUSH2 0x887 SWAP2 SWAP1 PUSH2 0x54BA JUMP JUMPDEST PUSH2 0x20F9 JUMP JUMPDEST STOP JUMPDEST CALLVALUE DUP1 ISZERO PUSH2 0x89A JUMPI PUSH1 0x0 DUP1 REVERT JUMPDEST POP PUSH2 0x8A3 PUSH2 0x21E3 JUMP JUMPDEST STOP JUMPDEST CALLVALUE DUP1 ISZERO PUSH2 0x8B1 JUMPI PUSH1 0x0 DUP1 REVERT JUMPDEST POP PUSH2 0x8BA PUSH2 0x2208 JUMP JUMPDEST PUSH1 0x40 MLOAD PUSH2 0x8C7 SWAP2 SWAP1 PUSH2 0x5C0F JUMP JUMPDEST PUSH1 0x40 MLOAD DUP1 SWAP2 SUB SWAP1 RETURN JUMPDEST CALLVALUE DUP1 ISZERO PUSH2 0x8DC JUMPI PUSH1 0x0 DUP1 REVERT JUMPDEST POP PUSH2 0x8E5 PUSH2 0x222E JUMP JUMPDEST PUSH1 0x40 MLOAD PUSH2 0x8F2 SWAP2 SWAP1 PUSH2 0x5D60 JUMP JUMPDEST PUSH1 0x40 MLOAD DUP1 SWAP2 SUB SWAP1 RETURN JUMPDEST CALLVALUE DUP1 ISZERO PUSH2 0x907 JUMPI PUSH1 0x0 DUP1 REVERT JUMPDEST POP PUSH2 0x922 PUSH1 0x4 DUP1 CALLDATASIZE SUB DUP2 ADD SWAP1 PUSH2 0x91D SWAP2 SWAP1 PUSH2 0x50F6 JUMP JUMPDEST PUSH2 0x2252 JUMP JUMPDEST PUSH1 0x40 MLOAD PUSH2 0x92F SWAP2 SWAP1 PUSH2 0x5D45 JUMP JUMPDEST PUSH1 0x40 MLOAD DUP1 SWAP2 SUB SWAP1 RETURN JUMPDEST CALLVALUE DUP1 ISZERO PUSH2 0x944 JUMPI PUSH1 0x0 DUP1 REVERT JUMPDEST POP PUSH2 0x94D PUSH2 0x22E6 JUMP JUMPDEST PUSH1 0x40 MLOAD PUSH2 0x95A SWAP2 SWAP1 PUSH2 0x6269 JUMP JUMPDEST PUSH1 0x40 MLOAD DUP1 SWAP2 SUB SWAP1 RETURN JUMPDEST CALLVALUE DUP1 ISZERO PUSH2 0x96F JUMPI PUSH1 0x0 DUP1 REVERT JUMPDEST POP PUSH2 0x98A PUSH1 0x4 DUP1 CALLDATASIZE SUB DUP2 ADD SWAP1 PUSH2 0x985 SWAP2 SWAP1 PUSH2 0x52DC JUMP JUMPDEST PUSH2 0x22EC JUMP JUMPDEST PUSH1 0x40 MLOAD PUSH2 0x998 SWAP3 SWAP2 SWAP1 PUSH2 0x6284 JUMP JUMPDEST PUSH1 0x40 MLOAD DUP1 SWAP2 SUB SWAP1 RETURN JUMPDEST CALLVALUE DUP1 ISZERO PUSH2 0x9AD JUMPI PUSH1 0x0 DUP1 REVERT JUMPDEST POP PUSH2 0x9C8 PUSH1 0x4 DUP1 CALLDATASIZE SUB DUP2 ADD SWAP1 PUSH2 0x9C3 SWAP2 SWAP1 PUSH2 0x5205 JUMP JUMPDEST PUSH2 0x231D JUMP JUMPDEST STOP JUMPDEST CALLVALUE DUP1 ISZERO PUSH2 0x9D6 JUMPI PUSH1 0x0 DUP1 REVERT JUMPDEST POP PUSH2 0x9F1 PUSH1 0x4 DUP1 CALLDATASIZE SUB DUP2 ADD SWAP1 PUSH2 0x9EC SWAP2 SWAP1 PUSH2 0x509C JUMP JUMPDEST PUSH2 0x2E21 JUMP JUMPDEST STOP JUMPDEST CALLVALUE DUP1 ISZERO PUSH2 0x9FF JUMPI PUSH1 0x0 DUP1 REVERT JUMPDEST POP PUSH2 0xA1A PUSH1 0x4 DUP1 CALLDATASIZE SUB DUP2 ADD SWAP1 PUSH2 0xA15 SWAP2 SWAP1 PUSH2 0x52DC JUMP JUMPDEST PUSH2 0x2EA5 JUMP JUMPDEST PUSH1 0x40 MLOAD PUSH2 0xA27 SWAP2 SWAP1 PUSH2 0x6269 JUMP JUMPDEST PUSH1 0x40 MLOAD DUP1 SWAP2 SUB SWAP1 RETURN JUMPDEST CALLVALUE DUP1 ISZERO PUSH2 0xA3C JUMPI PUSH1 0x0 DUP1 REVERT JUMPDEST POP PUSH2 0xA45 PUSH2 0x2F03 JUMP JUMPDEST PUSH1 0x40 MLOAD PUSH2 0xA52 SWAP2 SWAP1 PUSH2 0x6269 JUMP JUMPDEST PUSH1 0x40 MLOAD DUP1 SWAP2 SUB SWAP1 RETURN JUMPDEST CALLVALUE DUP1 ISZERO PUSH2 0xA67 JUMPI PUSH1 0x0 DUP1 REVERT JUMPDEST POP PUSH2 0xA70 PUSH2 0x2F09 JUMP JUMPDEST PUSH1 0x40 MLOAD PUSH2 0xA7D SWAP2 SWAP1 PUSH2 0x5D45 JUMP JUMPDEST PUSH1 0x40 MLOAD DUP1 SWAP2 SUB SWAP1 RETURN JUMPDEST PUSH1 0x63 SLOAD DUP2 JUMP JUMPDEST PUSH1 0x0 DUP1 PUSH20 0xFFFFFFFFFFFFFFFFFFFFFFFFFFFFFFFFFFFFFFFF AND DUP4 PUSH20 0xFFFFFFFFFFFFFFFFFFFFFFFFFFFFFFFFFFFFFFFF AND EQ ISZERO PUSH2 0xAFD JUMPI PUSH1 0x40 MLOAD PUSH32 0x8C379A000000000000000000000000000000000000000000000000000000000 DUP2 MSTORE PUSH1 0x4 ADD PUSH2 0xAF4 SWAP1 PUSH2 0x5F29 JUMP JUMPDEST PUSH1 0x40 MLOAD DUP1 SWAP2 SUB SWAP1 REVERT JUMPDEST PUSH1 0x0 DUP1 DUP4 DUP2 MSTORE PUSH1 0x20 ADD SWAP1 DUP2 MSTORE PUSH1 0x20 ADD PUSH1 0x0 KECCAK256 PUSH1 0x0 DUP5 PUSH20 0xFFFFFFFFFFFFFFFFFFFFFFFFFFFFFFFFFFFFFFFF AND PUSH20 0xFFFFFFFFFFFFFFFFFFFFFFFFFFFFFFFFFFFFFFFF AND DUP2 MSTORE PUSH1 0x20 ADD SWAP1 DUP2 MSTORE PUSH1 0x20 ADD PUSH1 0x0 KECCAK256 SLOAD SWAP1 POP SWAP3 SWAP2 POP POP JUMP JUMPDEST PUSH2 0xB5D PUSH2 0x2F1C JUMP JUMPDEST PUSH1 0x0 PUSH1 0x70 PUSH1 0x0 PUSH2 0x100 EXP DUP2 SLOAD DUP2 PUSH1 0xFF MUL NOT AND SWAP1 DUP4 ISZERO ISZERO MUL OR SWAP1 SSTORE POP JUMP JUMPDEST PUSH2 0xB82 PUSH2 0x2F1C JUMP JUMPDEST PUSH1 0x0 PUSH1 0x6F PUSH1 0x0 DUP4 PUSH20 0xFFFFFFFFFFFFFFFFFFFFFFFFFFFFFFFFFFFFFFFF AND PUSH20 0xFFFFFFFFFFFFFFFFFFFFFFFFFFFFFFFFFFFFFFFF AND DUP2 MSTORE PUSH1 0x20 ADD SWAP1 DUP2 MSTORE PUSH1 0x20 ADD PUSH1 0x0 KECCAK256 PUSH1 0x0 PUSH2 0x100 EXP DUP2 SLOAD DUP2 PUSH1 0xFF MUL NOT AND SWAP1 DUP4 ISZERO ISZERO MUL OR SWAP1 SSTORE POP POP JUMP JUMPDEST PUSH1 0x0 PUSH32 0xD9B67A2600000000000000000000000000000000000000000000000000000000 PUSH28 0xFFFFFFFFFFFFFFFFFFFFFFFFFFFFFFFFFFFFFFFFFFFFFFFFFFFFFFFF NOT AND DUP3 PUSH28 0xFFFFFFFFFFFFFFFFFFFFFFFFFFFFFFFFFFFFFFFFFFFFFFFFFFFFFFFF NOT AND EQ DUP1 PUSH2 0xCA8 JUMPI POP PUSH32 0xE89341C00000000000000000000000000000000000000000000000000000000 PUSH28 0xFFFFFFFFFFFFFFFFFFFFFFFFFFFFFFFFFFFFFFFFFFFFFFFFFFFFFFFF NOT AND DUP3 PUSH28 0xFFFFFFFFFFFFFFFFFFFFFFFFFFFFFFFFFFFFFFFFFFFFFFFFFFFFFFFF NOT AND EQ JUMPDEST DUP1 PUSH2 0xCB8 JUMPI POP PUSH2 0xCB7 DUP3 PUSH2 0x2F9A JUMP JUMPDEST JUMPDEST SWAP1 POP SWAP2 SWAP1 POP JUMP JUMPDEST PUSH1 0x7 DUP1 SLOAD PUSH2 0xCCC SWAP1 PUSH2 0x6635 JUMP JUMPDEST DUP1 PUSH1 0x1F ADD PUSH1 0x20 DUP1 SWAP2 DIV MUL PUSH1 0x20 ADD PUSH1 0x40 MLOAD SWAP1 DUP2 ADD PUSH1 0x40 MSTORE DUP1 SWAP3 SWAP2 SWAP1 DUP2 DUP2 MSTORE PUSH1 0x20 ADD DUP3 DUP1 SLOAD PUSH2 0xCF8 SWAP1 PUSH2 0x6635 JUMP JUMPDEST DUP1 ISZERO PUSH2 0xD45 JUMPI DUP1 PUSH1 0x1F LT PUSH2 0xD1A JUMPI PUSH2 0x100 DUP1 DUP4 SLOAD DIV MUL DUP4 MSTORE SWAP2 PUSH1 0x20 ADD SWAP2 PUSH2 0xD45 JUMP JUMPDEST DUP3 ADD SWAP2 SWAP1 PUSH1 0x0 MSTORE PUSH1 0x20 PUSH1 0x0 KECCAK256 SWAP1 JUMPDEST DUP2 SLOAD DUP2 MSTORE SWAP1 PUSH1 0x1 ADD SWAP1 PUSH1 0x20 ADD DUP1 DUP4 GT PUSH2 0xD28 JUMPI DUP3 SWAP1 SUB PUSH1 0x1F AND DUP3 ADD SWAP2 JUMPDEST POP POP POP POP POP DUP2 JUMP JUMPDEST PUSH1 0x60 PUSH1 0x2 DUP1 SLOAD PUSH2 0xD5C SWAP1 PUSH2 0x6635 JUMP JUMPDEST DUP1 PUSH1 0x1F ADD PUSH1 0x20 DUP1 SWAP2 DIV MUL PUSH1 0x20 ADD PUSH1 0x40 MLOAD SWAP1 DUP2 ADD PUSH1 0x40 MSTORE DUP1 SWAP3 SWAP2 SWAP1 DUP2 DUP2 MSTORE PUSH1 0x20 ADD DUP3 DUP1 SLOAD PUSH2 0xD88 SWAP1 PUSH2 0x6635 JUMP JUMPDEST DUP1 ISZERO PUSH2 0xDD5 JUMPI DUP1 PUSH1 0x1F LT PUSH2 0xDAA JUMPI PUSH2 0x100 DUP1 DUP4 SLOAD DIV MUL DUP4 MSTORE SWAP2 PUSH1 0x20 ADD SWAP2 PUSH2 0xDD5 JUMP JUMPDEST DUP3 ADD SWAP2 SWAP1 PUSH1 0x0 MSTORE PUSH1 0x20 PUSH1 0x0 KECCAK256 SWAP1 JUMPDEST DUP2 SLOAD DUP2 MSTORE SWAP1 PUSH1 0x1 ADD SWAP1 PUSH1 0x20 ADD DUP1 DUP4 GT PUSH2 0xDB8 JUMPI DUP3 SWAP1 SUB PUSH1 0x1F AND DUP3 ADD SWAP2 JUMPDEST POP POP POP POP POP SWAP1 POP SWAP2 SWAP1 POP JUMP JUMPDEST PUSH1 0x70 PUSH1 0x1 SWAP1 SLOAD SWAP1 PUSH2 0x100 EXP SWAP1 DIV PUSH1 0xFF AND PUSH2 0xE30 JUMPI PUSH1 0x40 MLOAD PUSH32 0x8C379A000000000000000000000000000000000000000000000000000000000 DUP2 MSTORE PUSH1 0x4 ADD PUSH2 0xE27 SWAP1 PUSH2 0x5F69 JUMP JUMPDEST PUSH1 0x40 MLOAD DUP1 SWAP2 SUB SWAP1 REVERT JUMPDEST PUSH2 0xE3A DUP3 DUP3 PUSH2 0x3004 JUMP JUMPDEST POP POP JUMP JUMPDEST PUSH2 0xE46 PUSH2 0x2F1C JUMP JUMPDEST PUSH1 0x1 PUSH1 0x70 PUSH1 0x0 PUSH2 0x100 EXP DUP2 SLOAD DUP2 PUSH1 0xFF MUL NOT AND SWAP1 DUP4 ISZERO ISZERO MUL OR SWAP1 SSTORE POP JUMP JUMPDEST PUSH1 0x0 JUMPDEST DUP4 MLOAD DUP2 LT ISZERO PUSH2 0x19B2 JUMPI PUSH2 0xE77 PUSH2 0x3A0C JUMP JUMPDEST PUSH20 0xFFFFFFFFFFFFFFFFFFFFFFFFFFFFFFFFFFFFFFFF AND DUP7 PUSH20 0xFFFFFFFFFFFFFFFFFFFFFFFFFFFFFFFFFFFFFFFF AND EQ DUP1 PUSH2 0xEBD JUMPI POP PUSH2 0xEBC DUP7 PUSH2 0xEB7 PUSH2 0x3A0C JUMP JUMPDEST PUSH2 0x2252 JUMP JUMPDEST JUMPDEST PUSH2 0xEFC JUMPI PUSH1 0x40 MLOAD PUSH32 0x8C379A000000000000000000000000000000000000000000000000000000000 DUP2 MSTORE PUSH1 0x4 ADD PUSH2 0xEF3 SWAP1 PUSH2 0x5E29 JUMP JUMPDEST PUSH1 0x40 MLOAD DUP1 SWAP2 SUB SWAP1 REVERT JUMPDEST PUSH1 0x0 DUP5 DUP3 DUP2 MLOAD DUP2 LT PUSH2 0xF11 JUMPI PUSH2 0xF10 PUSH2 0x676E JUMP JUMPDEST JUMPDEST PUSH1 0x20 MUL PUSH1 0x20 ADD ADD MLOAD SWAP1 POP PUSH1 0x0 DUP5 DUP4 DUP2 MLOAD DUP2 LT PUSH2 0xF30 JUMPI PUSH2 0xF2F PUSH2 0x676E JUMP JUMPDEST JUMPDEST PUSH1 0x20 MUL PUSH1 0x20 ADD ADD MLOAD SWAP1 POP PUSH1 0x2 DUP3 EQ ISZERO PUSH2 0xFEF JUMPI PUSH1 0x65 SLOAD PUSH2 0xFA9 DUP3 PUSH1 0x6E PUSH1 0x0 DUP12 PUSH20 0xFFFFFFFFFFFFFFFFFFFFFFFFFFFFFFFFFFFFFFFF AND PUSH20 0xFFFFFFFFFFFFFFFFFFFFFFFFFFFFFFFFFFFFFFFF AND DUP2 MSTORE PUSH1 0x20 ADD SWAP1 DUP2 MSTORE PUSH1 0x20 ADD PUSH1 0x0 KECCAK256 PUSH1 0x0 DUP7 DUP2 MSTORE PUSH1 0x20 ADD SWAP1 DUP2 MSTORE PUSH1 0x20 ADD PUSH1 0x0 KECCAK256 SLOAD PUSH2 0x3A14 SWAP1 SWAP2 SWAP1 PUSH4 0xFFFFFFFF AND JUMP JUMPDEST GT ISZERO PUSH2 0xFEA JUMPI PUSH1 0x40 MLOAD PUSH32 0x8C379A000000000000000000000000000000000000000000000000000000000 DUP2 MSTORE PUSH1 0x4 ADD PUSH2 0xFE1 SWAP1 PUSH2 0x6189 JUMP JUMPDEST PUSH1 0x40 MLOAD DUP1 SWAP2 SUB SWAP1 REVERT JUMPDEST PUSH2 0x1591 JUMP JUMPDEST PUSH1 0x3 DUP3 EQ ISZERO PUSH2 0x10A4 JUMPI PUSH1 0x64 SLOAD PUSH2 0x105E DUP3 PUSH1 0x6E PUSH1 0x0 DUP12 PUSH20 0xFFFFFFFFFFFFFFFFFFFFFFFFFFFFFFFFFFFFFFFF AND PUSH20 0xFFFFFFFFFFFFFFFFFFFFFFFFFFFFFFFFFFFFFFFF AND DUP2 MSTORE PUSH1 0x20 ADD SWAP1 DUP2 MSTORE PUSH1 0x20 ADD PUSH1 0x0 KECCAK256 PUSH1 0x0 DUP7 DUP2 MSTORE PUSH1 0x20 ADD SWAP1 DUP2 MSTORE PUSH1 0x20 ADD PUSH1 0x0 KECCAK256 SLOAD PUSH2 0x3A14 SWAP1 SWAP2 SWAP1 PUSH4 0xFFFFFFFF AND JUMP JUMPDEST GT ISZERO PUSH2 0x109F JUMPI PUSH1 0x40 MLOAD PUSH32 0x8C379A000000000000000000000000000000000000000000000000000000000 DUP2 MSTORE PUSH1 0x4 ADD PUSH2 0x1096 SWAP1 PUSH2 0x6129 JUMP JUMPDEST PUSH1 0x40 MLOAD DUP1 SWAP2 SUB SWAP1 REVERT JUMPDEST PUSH2 0x1590 JUMP JUMPDEST PUSH1 0x1D DUP3 EQ ISZERO PUSH2 0x1159 JUMPI PUSH1 0x66 SLOAD PUSH2 0x1113 DUP3 PUSH1 0x6E PUSH1 0x0 DUP12 PUSH20 0xFFFFFFFFFFFFFFFFFFFFFFFFFFFFFFFFFFFFFFFF AND PUSH20 0xFFFFFFFFFFFFFFFFFFFFFFFFFFFFFFFFFFFFFFFF AND DUP2 MSTORE PUSH1 0x20 ADD SWAP1 DUP2 MSTORE PUSH1 0x20 ADD PUSH1 0x0 KECCAK256 PUSH1 0x0 DUP7 DUP2 MSTORE PUSH1 0x20 ADD SWAP1 DUP2 MSTORE PUSH1 0x20 ADD PUSH1 0x0 KECCAK256 SLOAD PUSH2 0x3A14 SWAP1 SWAP2 SWAP1 PUSH4 0xFFFFFFFF AND JUMP JUMPDEST GT ISZERO PUSH2 0x1154 JUMPI PUSH1 0x40 MLOAD PUSH32 0x8C379A000000000000000000000000000000000000000000000000000000000 DUP2 MSTORE PUSH1 0x4 ADD PUSH2 0x114B SWAP1 PUSH2 0x6149 JUMP JUMPDEST PUSH1 0x40 MLOAD DUP1 SWAP2 SUB SWAP1 REVERT JUMPDEST PUSH2 0x158F JUMP JUMPDEST PUSH1 0x14 DUP3 EQ ISZERO PUSH2 0x120E JUMPI PUSH1 0x67 SLOAD PUSH2 0x11C8 DUP3 PUSH1 0x6E PUSH1 0x0 CALLER PUSH20 0xFFFFFFFFFFFFFFFFFFFFFFFFFFFFFFFFFFFFFFFF AND PUSH20 0xFFFFFFFFFFFFFFFFFFFFFFFFFFFFFFFFFFFFFFFF AND DUP2 MSTORE PUSH1 0x20 ADD SWAP1 DUP2 MSTORE PUSH1 0x20 ADD PUSH1 0x0 KECCAK256 PUSH1 0x0 DUP7 DUP2 MSTORE PUSH1 0x20 ADD SWAP1 DUP2 MSTORE PUSH1 0x20 ADD PUSH1 0x0 KECCAK256 SLOAD PUSH2 0x3A14 SWAP1 SWAP2 SWAP1 PUSH4 0xFFFFFFFF AND JUMP JUMPDEST GT ISZERO PUSH2 0x1209 JUMPI PUSH1 0x40 MLOAD PUSH32 0x8C379A000000000000000000000000000000000000000000000000000000000 DUP2 MSTORE PUSH1 0x4 ADD PUSH2 0x1200 SWAP1 PUSH2 0x6069 JUMP JUMPDEST PUSH1 0x40 MLOAD DUP1 SWAP2 SUB SWAP1 REVERT JUMPDEST PUSH2 0x158E JUMP JUMPDEST PUSH1 0x15 DUP3 EQ ISZERO PUSH2 0x12C3 JUMPI PUSH1 0x68 SLOAD PUSH2 0x127D DUP3 PUSH1 0x6E PUSH1 0x0 CALLER PUSH20 0xFFFFFFFFFFFFFFFFFFFFFFFFFFFFFFFFFFFFFFFF AND PUSH20 0xFFFFFFFFFFFFFFFFFFFFFFFFFFFFFFFFFFFFFFFF AND DUP2 MSTORE PUSH1 0x20 ADD SWAP1 DUP2 MSTORE PUSH1 0x20 ADD PUSH1 0x0 KECCAK256 PUSH1 0x0 DUP7 DUP2 MSTORE PUSH1 0x20 ADD SWAP1 DUP2 MSTORE PUSH1 0x20 ADD PUSH1 0x0 KECCAK256 SLOAD PUSH2 0x3A14 SWAP1 SWAP2 SWAP1 PUSH4 0xFFFFFFFF AND JUMP JUMPDEST GT ISZERO PUSH2 0x12BE JUMPI PUSH1 0x40 MLOAD PUSH32 0x8C379A000000000000000000000000000000000000000000000000000000000 DUP2 MSTORE PUSH1 0x4 ADD PUSH2 0x12B5 SWAP1 PUSH2 0x5E09 JUMP JUMPDEST PUSH1 0x40 MLOAD DUP1 SWAP2 SUB SWAP1 REVERT JUMPDEST PUSH2 0x158D JUMP JUMPDEST PUSH1 0x16 DUP3 EQ ISZERO PUSH2 0x1378 JUMPI PUSH1 0x69 SLOAD PUSH2 0x1332 DUP3 PUSH1 0x6E PUSH1 0x0 CALLER PUSH20 0xFFFFFFFFFFFFFFFFFFFFFFFFFFFFFFFFFFFFFFFF AND PUSH20 0xFFFFFFFFFFFFFFFFFFFFFFFFFFFFFFFFFFFFFFFF AND DUP2 MSTORE PUSH1 0x20 ADD SWAP1 DUP2 MSTORE PUSH1 0x20 ADD PUSH1 0x0 KECCAK256 PUSH1 0x0 DUP7 DUP2 MSTORE PUSH1 0x20 ADD SWAP1 DUP2 MSTORE PUSH1 0x20 ADD PUSH1 0x0 KECCAK256 SLOAD PUSH2 0x3A14 SWAP1 SWAP2 SWAP1 PUSH4 0xFFFFFFFF AND JUMP JUMPDEST GT ISZERO PUSH2 0x1373 JUMPI PUSH1 0x40 MLOAD PUSH32 0x8C379A000000000000000000000000000000000000000000000000000000000 DUP2 MSTORE PUSH1 0x4 ADD PUSH2 0x136A SWAP1 PUSH2 0x6029 JUMP JUMPDEST PUSH1 0x40 MLOAD DUP1 SWAP2 SUB SWAP1 REVERT JUMPDEST PUSH2 0x158C JUMP JUMPDEST PUSH1 0xE DUP3 EQ ISZERO PUSH2 0x142D JUMPI PUSH1 0x6A SLOAD PUSH2 0x13E7 DUP3 PUSH1 0x6E PUSH1 0x0 CALLER PUSH20 0xFFFFFFFFFFFFFFFFFFFFFFFFFFFFFFFFFFFFFFFF AND PUSH20 0xFFFFFFFFFFFFFFFFFFFFFFFFFFFFFFFFFFFFFFFF AND DUP2 MSTORE PUSH1 0x20 ADD SWAP1 DUP2 MSTORE PUSH1 0x20 ADD PUSH1 0x0 KECCAK256 PUSH1 0x0 DUP7 DUP2 MSTORE PUSH1 0x20 ADD SWAP1 DUP2 MSTORE PUSH1 0x20 ADD PUSH1 0x0 KECCAK256 SLOAD PUSH2 0x3A14 SWAP1 SWAP2 SWAP1 PUSH4 0xFFFFFFFF AND JUMP JUMPDEST GT ISZERO PUSH2 0x1428 JUMPI PUSH1 0x40 MLOAD PUSH32 0x8C379A000000000000000000000000000000000000000000000000000000000 DUP2 MSTORE PUSH1 0x4 ADD PUSH2 0x141F SWAP1 PUSH2 0x6169 JUMP JUMPDEST PUSH1 0x40 MLOAD DUP1 SWAP2 SUB SWAP1 REVERT JUMPDEST PUSH2 0x158B JUMP JUMPDEST PUSH1 0x8 DUP3 EQ ISZERO PUSH2 0x14E2 JUMPI PUSH1 0x6B SLOAD PUSH2 0x149C DUP3 PUSH1 0x6E PUSH1 0x0 CALLER PUSH20 0xFFFFFFFFFFFFFFFFFFFFFFFFFFFFFFFFFFFFFFFF AND PUSH20 0xFFFFFFFFFFFFFFFFFFFFFFFFFFFFFFFFFFFFFFFF AND DUP2 MSTORE PUSH1 0x20 ADD SWAP1 DUP2 MSTORE PUSH1 0x20 ADD PUSH1 0x0 KECCAK256 PUSH1 0x0 DUP7 DUP2 MSTORE PUSH1 0x20 ADD SWAP1 DUP2 MSTORE PUSH1 0x20 ADD PUSH1 0x0 KECCAK256 SLOAD PUSH2 0x3A14 SWAP1 SWAP2 SWAP1 PUSH4 0xFFFFFFFF AND JUMP JUMPDEST GT ISZERO PUSH2 0x14DD JUMPI PUSH1 0x40 MLOAD PUSH32 0x8C379A000000000000000000000000000000000000000000000000000000000 DUP2 MSTORE PUSH1 0x4 ADD PUSH2 0x14D4 SWAP1 PUSH2 0x6009 JUMP JUMPDEST PUSH1 0x40 MLOAD DUP1 SWAP2 SUB SWAP1 REVERT JUMPDEST PUSH2 0x158A JUMP JUMPDEST PUSH1 0x63 SLOAD PUSH2 0x1548 DUP3 PUSH1 0x6E PUSH1 0x0 DUP12 PUSH20 0xFFFFFFFFFFFFFFFFFFFFFFFFFFFFFFFFFFFFFFFF AND PUSH20 0xFFFFFFFFFFFFFFFFFFFFFFFFFFFFFFFFFFFFFFFF AND DUP2 MSTORE PUSH1 0x20 ADD SWAP1 DUP2 MSTORE PUSH1 0x20 ADD PUSH1 0x0 KECCAK256 PUSH1 0x0 DUP7 DUP2 MSTORE PUSH1 0x20 ADD SWAP1 DUP2 MSTORE PUSH1 0x20 ADD PUSH1 0x0 KECCAK256 SLOAD PUSH2 0x3A14 SWAP1 SWAP2 SWAP1 PUSH4 0xFFFFFFFF AND JUMP JUMPDEST GT ISZERO PUSH2 0x1589 JUMPI PUSH1 0x40 MLOAD PUSH32 0x8C379A000000000000000000000000000000000000000000000000000000000 DUP2 MSTORE PUSH1 0x4 ADD PUSH2 0x1580 SWAP1 PUSH2 0x5E89 JUMP JUMPDEST PUSH1 0x40 MLOAD DUP1 SWAP2 SUB SWAP1 REVERT JUMPDEST JUMPDEST JUMPDEST JUMPDEST JUMPDEST JUMPDEST JUMPDEST JUMPDEST JUMPDEST PUSH2 0x15F4 DUP2 PUSH1 0x6E PUSH1 0x0 DUP12 PUSH20 0xFFFFFFFFFFFFFFFFFFFFFFFFFFFFFFFFFFFFFFFF AND PUSH20 0xFFFFFFFFFFFFFFFFFFFFFFFFFFFFFFFFFFFFFFFF AND DUP2 MSTORE PUSH1 0x20 ADD SWAP1 DUP2 MSTORE PUSH1 0x20 ADD PUSH1 0x0 KECCAK256 PUSH1 0x0 DUP6 DUP2 MSTORE PUSH1 0x20 ADD SWAP1 DUP2 MSTORE PUSH1 0x20 ADD PUSH1 0x0 KECCAK256 SLOAD PUSH2 0x3A2A SWAP1 SWAP2 SWAP1 PUSH4 0xFFFFFFFF AND JUMP JUMPDEST PUSH1 0x6E PUSH1 0x0 DUP11 PUSH20 0xFFFFFFFFFFFFFFFFFFFFFFFFFFFFFFFFFFFFFFFF AND PUSH20 0xFFFFFFFFFFFFFFFFFFFFFFFFFFFFFFFFFFFFFFFF AND DUP2 MSTORE PUSH1 0x20 ADD SWAP1 DUP2 MSTORE PUSH1 0x20 ADD PUSH1 0x0 KECCAK256 PUSH1 0x0 DUP5 DUP2 MSTORE PUSH1 0x20 ADD SWAP1 DUP2 MSTORE PUSH1 0x20 ADD PUSH1 0x0 KECCAK256 DUP2 SWAP1 SSTORE POP PUSH2 0x16AB DUP2 PUSH1 0x6E PUSH1 0x0 DUP11 PUSH20 0xFFFFFFFFFFFFFFFFFFFFFFFFFFFFFFFFFFFFFFFF AND PUSH20 0xFFFFFFFFFFFFFFFFFFFFFFFFFFFFFFFFFFFFFFFF AND DUP2 MSTORE PUSH1 0x20 ADD SWAP1 DUP2 MSTORE PUSH1 0x20 ADD PUSH1 0x0 KECCAK256 PUSH1 0x0 DUP6 DUP2 MSTORE PUSH1 0x20 ADD SWAP1 DUP2 MSTORE PUSH1 0x20 ADD PUSH1 0x0 KECCAK256 SLOAD PUSH2 0x3A14 SWAP1 SWAP2 SWAP1 PUSH4 0xFFFFFFFF AND JUMP JUMPDEST PUSH1 0x6E PUSH1 0x0 DUP10 PUSH20 0xFFFFFFFFFFFFFFFFFFFFFFFFFFFFFFFFFFFFFFFF AND PUSH20 0xFFFFFFFFFFFFFFFFFFFFFFFFFFFFFFFFFFFFFFFF AND DUP2 MSTORE PUSH1 0x20 ADD SWAP1 DUP2 MSTORE PUSH1 0x20 ADD PUSH1 0x0 KECCAK256 PUSH1 0x0 DUP5 DUP2 MSTORE PUSH1 0x20 ADD SWAP1 DUP2 MSTORE PUSH1 0x20 ADD PUSH1 0x0 KECCAK256 DUP2 SWAP1 SSTORE POP PUSH2 0x179F PUSH2 0x173D DUP3 PUSH2 0x172F PUSH1 0x2 PUSH1 0x45 DUP8 PUSH1 0x1E DUP2 LT PUSH2 0x171F JUMPI PUSH2 0x171E PUSH2 0x676E JUMP JUMPDEST JUMPDEST ADD SLOAD PUSH2 0x3A40 SWAP1 SWAP2 SWAP1 PUSH4 0xFFFFFFFF AND JUMP JUMPDEST PUSH2 0x3A56 SWAP1 SWAP2 SWAP1 PUSH4 0xFFFFFFFF AND JUMP JUMPDEST PUSH1 0x6D PUSH1 0x0 DUP12 PUSH20 0xFFFFFFFFFFFFFFFFFFFFFFFFFFFFFFFFFFFFFFFF AND PUSH20 0xFFFFFFFFFFFFFFFFFFFFFFFFFFFFFFFFFFFFFFFF AND DUP2 MSTORE PUSH1 0x20 ADD SWAP1 DUP2 MSTORE PUSH1 0x20 ADD PUSH1 0x0 KECCAK256 PUSH1 0x0 DUP6 DUP2 MSTORE PUSH1 0x20 ADD SWAP1 DUP2 MSTORE PUSH1 0x20 ADD PUSH1 0x0 KECCAK256 PUSH1 0x0 ADD SLOAD PUSH2 0x3A2A SWAP1 SWAP2 SWAP1 PUSH4 0xFFFFFFFF AND JUMP JUMPDEST PUSH1 0x6D PUSH1 0x0 DUP11 PUSH20 0xFFFFFFFFFFFFFFFFFFFFFFFFFFFFFFFFFFFFFFFF AND PUSH20 0xFFFFFFFFFFFFFFFFFFFFFFFFFFFFFFFFFFFFFFFF AND DUP2 MSTORE PUSH1 0x20 ADD SWAP1 DUP2 MSTORE PUSH1 0x20 ADD PUSH1 0x0 KECCAK256 PUSH1 0x0 DUP5 DUP2 MSTORE PUSH1 0x20 ADD SWAP1 DUP2 MSTORE PUSH1 0x20 ADD PUSH1 0x0 KECCAK256 PUSH1 0x0 ADD DUP2 SWAP1 SSTORE POP PUSH2 0x185C DUP2 PUSH1 0x6D PUSH1 0x0 DUP12 PUSH20 0xFFFFFFFFFFFFFFFFFFFFFFFFFFFFFFFFFFFFFFFF AND PUSH20 0xFFFFFFFFFFFFFFFFFFFFFFFFFFFFFFFFFFFFFFFF AND DUP2 MSTORE PUSH1 0x20 ADD SWAP1 DUP2 MSTORE PUSH1 0x20 ADD PUSH1 0x0 KECCAK256 PUSH1 0x0 DUP6 DUP2 MSTORE PUSH1 0x20 ADD SWAP1 DUP2 MSTORE PUSH1 0x20 ADD PUSH1 0x0 KECCAK256 PUSH1 0x1 ADD SLOAD PUSH2 0x3A2A SWAP1 SWAP2 SWAP1 PUSH4 0xFFFFFFFF AND JUMP JUMPDEST PUSH1 0x6D PUSH1 0x0 DUP11 PUSH20 0xFFFFFFFFFFFFFFFFFFFFFFFFFFFFFFFFFFFFFFFF AND PUSH20 0xFFFFFFFFFFFFFFFFFFFFFFFFFFFFFFFFFFFFFFFF AND DUP2 MSTORE PUSH1 0x20 ADD SWAP1 DUP2 MSTORE PUSH1 0x20 ADD PUSH1 0x0 KECCAK256 PUSH1 0x0 DUP5 DUP2 MSTORE PUSH1 0x20 ADD SWAP1 DUP2 MSTORE PUSH1 0x20 ADD PUSH1 0x0 KECCAK256 PUSH1 0x1 ADD DUP2 SWAP1 SSTORE POP PUSH2 0x18EE DUP2 PUSH2 0x18E0 PUSH1 0x2 PUSH1 0x45 DUP7 PUSH1 0x1E DUP2 LT PUSH2 0x18D0 JUMPI PUSH2 0x18CF PUSH2 0x676E JUMP JUMPDEST JUMPDEST ADD SLOAD PUSH2 0x3A40 SWAP1 SWAP2 SWAP1 PUSH4 0xFFFFFFFF AND JUMP JUMPDEST PUSH2 0x3A56 SWAP1 SWAP2 SWAP1 PUSH4 0xFFFFFFFF AND JUMP JUMPDEST PUSH1 0x6D PUSH1 0x0 DUP10 PUSH20 0xFFFFFFFFFFFFFFFFFFFFFFFFFFFFFFFFFFFFFFFF AND PUSH20 0xFFFFFFFFFFFFFFFFFFFFFFFFFFFFFFFFFFFFFFFF AND DUP2 MSTORE PUSH1 0x20 ADD SWAP1 DUP2 MSTORE PUSH1 0x20 ADD PUSH1 0x0 KECCAK256 PUSH1 0x0 DUP5 DUP2 MSTORE PUSH1 0x20 ADD SWAP1 DUP2 MSTORE PUSH1 0x20 ADD PUSH1 0x0 KECCAK256 PUSH1 0x0 ADD DUP2 SWAP1 SSTORE POP DUP1 PUSH1 0x6D PUSH1 0x0 DUP10 PUSH20 0xFFFFFFFFFFFFFFFFFFFFFFFFFFFFFFFFFFFFFFFF AND PUSH20 0xFFFFFFFFFFFFFFFFFFFFFFFFFFFFFFFFFFFFFFFF AND DUP2 MSTORE PUSH1 0x20 ADD SWAP1 DUP2 MSTORE PUSH1 0x20 ADD PUSH1 0x0 KECCAK256 PUSH1 0x0 DUP5 DUP2 MSTORE PUSH1 0x20 ADD SWAP1 DUP2 MSTORE PUSH1 0x20 ADD PUSH1 0x0 KECCAK256 PUSH1 0x1 ADD DUP2 SWAP1 SSTORE POP POP POP DUP1 DUP1 PUSH2 0x19AA SWAP1 PUSH2 0x6698 JUMP JUMPDEST SWAP2 POP POP PUSH2 0xE66 JUMP JUMPDEST POP PUSH2 0x19C0 DUP6 DUP6 DUP6 DUP6 DUP6 PUSH2 0x3A6C JUMP JUMPDEST POP POP POP POP POP JUMP JUMPDEST PUSH1 0x70 PUSH1 0x0 SWAP1 SLOAD SWAP1 PUSH2 0x100 EXP SWAP1 DIV PUSH1 0xFF AND DUP2 JUMP JUMPDEST PUSH1 0x66 SLOAD DUP2 JUMP JUMPDEST PUSH2 0x19E8 PUSH2 0x2F1C JUMP JUMPDEST PUSH1 0x1 PUSH1 0x6F PUSH1 0x0 DUP4 PUSH20 0xFFFFFFFFFFFFFFFFFFFFFFFFFFFFFFFFFFFFFFFF AND PUSH20 0xFFFFFFFFFFFFFFFFFFFFFFFFFFFFFFFFFFFFFFFF AND DUP2 MSTORE PUSH1 0x20 ADD SWAP1 DUP2 MSTORE PUSH1 0x20 ADD PUSH1 0x0 KECCAK256 PUSH1 0x0 PUSH2 0x100 EXP DUP2 SLOAD DUP2 PUSH1 0xFF MUL NOT AND SWAP1 DUP4 ISZERO ISZERO MUL OR SWAP1 SSTORE POP POP JUMP JUMPDEST PUSH1 0x60 DUP2 MLOAD DUP4 MLOAD EQ PUSH2 0x1A89 JUMPI PUSH1 0x40 MLOAD PUSH32 0x8C379A000000000000000000000000000000000000000000000000000000000 DUP2 MSTORE PUSH1 0x4 ADD PUSH2 0x1A80 SWAP1 PUSH2 0x61E9 JUMP JUMPDEST PUSH1 0x40 MLOAD DUP1 SWAP2 SUB SWAP1 REVERT JUMPDEST PUSH1 0x0 DUP4 MLOAD PUSH8 0xFFFFFFFFFFFFFFFF DUP2 GT ISZERO PUSH2 0x1AA6 JUMPI PUSH2 0x1AA5 PUSH2 0x679D JUMP JUMPDEST JUMPDEST PUSH1 0x40 MLOAD SWAP1 DUP1 DUP3 MSTORE DUP1 PUSH1 0x20 MUL PUSH1 0x20 ADD DUP3 ADD PUSH1 0x40 MSTORE DUP1 ISZERO PUSH2 0x1AD4 JUMPI DUP2 PUSH1 0x20 ADD PUSH1 0x20 DUP3 MUL DUP1 CALLDATASIZE DUP4 CALLDATACOPY DUP1 DUP3 ADD SWAP2 POP POP SWAP1 POP JUMPDEST POP SWAP1 POP PUSH1 0x0 JUMPDEST DUP5 MLOAD DUP2 LT ISZERO PUSH2 0x1B51 JUMPI PUSH2 0x1B21 DUP6 DUP3 DUP2 MLOAD DUP2 LT PUSH2 0x1AF9 JUMPI PUSH2 0x1AF8 PUSH2 0x676E JUMP JUMPDEST JUMPDEST PUSH1 0x20 MUL PUSH1 0x20 ADD ADD MLOAD DUP6 DUP4 DUP2 MLOAD DUP2 LT PUSH2 0x1B14 JUMPI PUSH2 0x1B13 PUSH2 0x676E JUMP JUMPDEST JUMPDEST PUSH1 0x20 MUL PUSH1 0x20 ADD ADD MLOAD PUSH2 0xA8C JUMP JUMPDEST DUP3 DUP3 DUP2 MLOAD DUP2 LT PUSH2 0x1B34 JUMPI PUSH2 0x1B33 PUSH2 0x676E JUMP JUMPDEST JUMPDEST PUSH1 0x20 MUL PUSH1 0x20 ADD ADD DUP2 DUP2 MSTORE POP POP DUP1 PUSH2 0x1B4A SWAP1 PUSH2 0x6698 JUMP JUMPDEST SWAP1 POP PUSH2 0x1ADA JUMP JUMPDEST POP DUP1 SWAP2 POP POP SWAP3 SWAP2 POP POP JUMP JUMPDEST PUSH1 0x0 PUSH1 0x6E PUSH1 0x0 DUP5 PUSH20 0xFFFFFFFFFFFFFFFFFFFFFFFFFFFFFFFFFFFFFFFF AND PUSH20 0xFFFFFFFFFFFFFFFFFFFFFFFFFFFFFFFFFFFFFFFF AND DUP2 MSTORE PUSH1 0x20 ADD SWAP1 DUP2 MSTORE PUSH1 0x20 ADD PUSH1 0x0 KECCAK256 PUSH1 0x0 DUP4 DUP2 MSTORE PUSH1 0x20 ADD SWAP1 DUP2 MSTORE PUSH1 0x20 ADD PUSH1 0x0 KECCAK256 SLOAD SWAP1 POP SWAP3 SWAP2 POP POP JUMP JUMPDEST PUSH1 0x27 DUP2 PUSH1 0x1E DUP2 LT PUSH2 0x1BC7 JUMPI PUSH1 0x0 DUP1 REVERT JUMPDEST ADD PUSH1 0x0 SWAP2 POP SWAP1 POP SLOAD DUP2 JUMP JUMPDEST PUSH1 0x6 PUSH1 0x0 SWAP1 SLOAD SWAP1 PUSH2 0x100 EXP SWAP1 DIV PUSH20 0xFFFFFFFFFFFFFFFFFFFFFFFFFFFFFFFFFFFFFFFF AND DUP2 JUMP JUMPDEST PUSH1 0x5 PUSH1 0x0 SWAP1 SLOAD SWAP1 PUSH2 0x100 EXP SWAP1 DIV PUSH20 0xFFFFFFFFFFFFFFFFFFFFFFFFFFFFFFFFFFFFFFFF AND DUP2 JUMP JUMPDEST PUSH2 0x1C26 PUSH2 0x2F1C JUMP JUMPDEST PUSH1 0x0 DUP1 PUSH1 0x0 JUMPDEST DUP7 MLOAD DUP2 LT ISZERO PUSH2 0x1C9F JUMPI PUSH2 0x1C8A PUSH2 0x1C7B PUSH1 0x2 PUSH1 0x45 DUP11 DUP6 DUP2 MLOAD DUP2 LT PUSH2 0x1C52 JUMPI PUSH2 0x1C51 PUSH2 0x676E JUMP JUMPDEST JUMPDEST PUSH1 0x20 MUL PUSH1 0x20 ADD ADD MLOAD PUSH1 0x1E DUP2 LT PUSH2 0x1C6B JUMPI PUSH2 0x1C6A PUSH2 0x676E JUMP JUMPDEST JUMPDEST ADD SLOAD PUSH2 0x3A40 SWAP1 SWAP2 SWAP1 PUSH4 0xFFFFFFFF AND JUMP JUMPDEST DUP5 PUSH2 0x3A14 SWAP1 SWAP2 SWAP1 PUSH4 0xFFFFFFFF AND JUMP JUMPDEST SWAP3 POP DUP1 DUP1 PUSH2 0x1C97 SWAP1 PUSH2 0x6698 JUMP JUMPDEST SWAP2 POP POP PUSH2 0x1C2C JUMP JUMPDEST POP PUSH1 0x0 JUMPDEST DUP6 MLOAD DUP2 LT ISZERO PUSH2 0x1D16 JUMPI PUSH2 0x1D01 PUSH2 0x1CF2 PUSH1 0x2 PUSH1 0x45 DUP10 DUP6 DUP2 MLOAD DUP2 LT PUSH2 0x1CC9 JUMPI PUSH2 0x1CC8 PUSH2 0x676E JUMP JUMPDEST JUMPDEST PUSH1 0x20 MUL PUSH1 0x20 ADD ADD MLOAD PUSH1 0x1E DUP2 LT PUSH2 0x1CE2 JUMPI PUSH2 0x1CE1 PUSH2 0x676E JUMP JUMPDEST JUMPDEST ADD SLOAD PUSH2 0x3A40 SWAP1 SWAP2 SWAP1 PUSH4 0xFFFFFFFF AND JUMP JUMPDEST DUP4 PUSH2 0x3A14 SWAP1 SWAP2 SWAP1 PUSH4 0xFFFFFFFF AND JUMP JUMPDEST SWAP2 POP DUP1 DUP1 PUSH2 0x1D0E SWAP1 PUSH2 0x6698 JUMP JUMPDEST SWAP2 POP POP PUSH2 0x1CA3 JUMP JUMPDEST POP PUSH2 0x1D21 DUP3 DUP6 PUSH2 0x3D8E JUMP JUMPDEST PUSH2 0x1D2B DUP2 DUP5 PUSH2 0x3D8E JUMP JUMPDEST POP POP POP POP POP POP JUMP JUMPDEST PUSH1 0x0 PUSH20 0xFFFFFFFFFFFFFFFFFFFFFFFFFFFFFFFFFFFFFFFF AND CALLER PUSH20 0xFFFFFFFFFFFFFFFFFFFFFFFFFFFFFFFFFFFFFFFF AND EQ ISZERO PUSH2 0x1DA3 JUMPI PUSH1 0x40 MLOAD PUSH32 0x8C379A000000000000000000000000000000000000000000000000000000000 DUP2 MSTORE PUSH1 0x4 ADD PUSH2 0x1D9A SWAP1 PUSH2 0x5E69 JUMP JUMPDEST PUSH1 0x40 MLOAD DUP1 SWAP2 SUB SWAP1 REVERT JUMPDEST PUSH2 0x1DDE DUP2 PUSH2 0x1DD0 PUSH1 0x2 PUSH1 0x45 DUP7 PUSH1 0x1E DUP2 LT PUSH2 0x1DC0 JUMPI PUSH2 0x1DBF PUSH2 0x676E JUMP JUMPDEST JUMPDEST ADD SLOAD PUSH2 0x3A40 SWAP1 SWAP2 SWAP1 PUSH4 0xFFFFFFFF AND JUMP JUMPDEST PUSH2 0x3A56 SWAP1 SWAP2 SWAP1 PUSH4 0xFFFFFFFF AND JUMP JUMPDEST CALLVALUE LT ISZERO PUSH2 0x1E20 JUMPI PUSH1 0x40 MLOAD PUSH32 0x8C379A000000000000000000000000000000000000000000000000000000000 DUP2 MSTORE PUSH1 0x4 ADD PUSH2 0x1E17 SWAP1 PUSH2 0x5FA9 JUMP JUMPDEST PUSH1 0x40 MLOAD DUP1 SWAP2 SUB SWAP1 REVERT JUMPDEST PUSH2 0x1EC0 PUSH2 0x1E5E DUP3 PUSH2 0x1E50 PUSH1 0x2 PUSH1 0x45 DUP8 PUSH1 0x1E DUP2 LT PUSH2 0x1E40 JUMPI PUSH2 0x1E3F PUSH2 0x676E JUMP JUMPDEST JUMPDEST ADD SLOAD PUSH2 0x3A40 SWAP1 SWAP2 SWAP1 PUSH4 0xFFFFFFFF AND JUMP JUMPDEST PUSH2 0x3A56 SWAP1 SWAP2 SWAP1 PUSH4 0xFFFFFFFF AND JUMP JUMPDEST PUSH1 0x6D PUSH1 0x0 CALLER PUSH20 0xFFFFFFFFFFFFFFFFFFFFFFFFFFFFFFFFFFFFFFFF AND PUSH20 0xFFFFFFFFFFFFFFFFFFFFFFFFFFFFFFFFFFFFFFFF AND DUP2 MSTORE PUSH1 0x20 ADD SWAP1 DUP2 MSTORE PUSH1 0x20 ADD PUSH1 0x0 KECCAK256 PUSH1 0x0 DUP6 DUP2 MSTORE PUSH1 0x20 ADD SWAP1 DUP2 MSTORE PUSH1 0x20 ADD PUSH1 0x0 KECCAK256 PUSH1 0x0 ADD SLOAD PUSH2 0x3A14 SWAP1 SWAP2 SWAP1 PUSH4 0xFFFFFFFF AND JUMP JUMPDEST PUSH1 0x6D PUSH1 0x0 CALLER PUSH20 0xFFFFFFFFFFFFFFFFFFFFFFFFFFFFFFFFFFFFFFFF AND PUSH20 0xFFFFFFFFFFFFFFFFFFFFFFFFFFFFFFFFFFFFFFFF AND DUP2 MSTORE PUSH1 0x20 ADD SWAP1 DUP2 MSTORE PUSH1 0x20 ADD PUSH1 0x0 KECCAK256 PUSH1 0x0 DUP5 DUP2 MSTORE PUSH1 0x20 ADD SWAP1 DUP2 MSTORE PUSH1 0x20 ADD PUSH1 0x0 KECCAK256 PUSH1 0x0 ADD DUP2 SWAP1 SSTORE POP POP POP JUMP JUMPDEST PUSH2 0x1F23 PUSH2 0x2F1C JUMP JUMPDEST PUSH2 0x1F2D PUSH1 0x0 PUSH2 0x3FDD JUMP JUMPDEST JUMP JUMPDEST PUSH1 0x9 DUP2 PUSH1 0x1E DUP2 LT PUSH2 0x1F3F JUMPI PUSH1 0x0 DUP1 REVERT JUMPDEST ADD PUSH1 0x0 SWAP2 POP SWAP1 POP SLOAD DUP2 JUMP JUMPDEST PUSH1 0x0 PUSH1 0x3 PUSH1 0x0 SWAP1 SLOAD SWAP1 PUSH2 0x100 EXP SWAP1 DIV PUSH20 0xFFFFFFFFFFFFFFFFFFFFFFFFFFFFFFFFFFFFFFFF AND SWAP1 POP SWAP1 JUMP JUMPDEST PUSH1 0x8 DUP1 SLOAD PUSH2 0x1F81 SWAP1 PUSH2 0x6635 JUMP JUMPDEST DUP1 PUSH1 0x1F ADD PUSH1 0x20 DUP1 SWAP2 DIV MUL PUSH1 0x20 ADD PUSH1 0x40 MLOAD SWAP1 DUP2 ADD PUSH1 0x40 MSTORE DUP1 SWAP3 SWAP2 SWAP1 DUP2 DUP2 MSTORE PUSH1 0x20 ADD DUP3 DUP1 SLOAD PUSH2 0x1FAD SWAP1 PUSH2 0x6635 JUMP JUMPDEST DUP1 ISZERO PUSH2 0x1FFA JUMPI DUP1 PUSH1 0x1F LT PUSH2 0x1FCF JUMPI PUSH2 0x100 DUP1 DUP4 SLOAD DIV MUL DUP4 MSTORE SWAP2 PUSH1 0x20 ADD SWAP2 PUSH2 0x1FFA JUMP JUMPDEST DUP3 ADD SWAP2 SWAP1 PUSH1 0x0 MSTORE PUSH1 0x20 PUSH1 0x0 KECCAK256 SWAP1 JUMPDEST DUP2 SLOAD DUP2 MSTORE SWAP1 PUSH1 0x1 ADD SWAP1 PUSH1 0x20 ADD DUP1 DUP4 GT PUSH2 0x1FDD JUMPI DUP3 SWAP1 SUB PUSH1 0x1F AND DUP3 ADD SWAP2 JUMPDEST POP POP POP POP POP DUP2 JUMP JUMPDEST PUSH2 0x2014 PUSH2 0x200D PUSH2 0x3A0C JUMP JUMPDEST DUP4 DUP4 PUSH2 0x40A3 JUMP JUMPDEST POP POP JUMP JUMPDEST PUSH1 0x65 SLOAD DUP2 JUMP JUMPDEST PUSH1 0x6E PUSH1 0x20 MSTORE DUP2 PUSH1 0x0 MSTORE PUSH1 0x40 PUSH1 0x0 KECCAK256 PUSH1 0x20 MSTORE DUP1 PUSH1 0x0 MSTORE PUSH1 0x40 PUSH1 0x0 KECCAK256 PUSH1 0x0 SWAP2 POP SWAP2 POP POP SLOAD DUP2 JUMP JUMPDEST PUSH1 0x0 PUSH1 0x6D PUSH1 0x0 DUP5 PUSH20 0xFFFFFFFFFFFFFFFFFFFFFFFFFFFFFFFFFFFFFFFF AND PUSH20 0xFFFFFFFFFFFFFFFFFFFFFFFFFFFFFFFFFFFFFFFF AND DUP2 MSTORE PUSH1 0x20 ADD SWAP1 DUP2 MSTORE PUSH1 0x20 ADD PUSH1 0x0 KECCAK256 PUSH1 0x0 DUP4 DUP2 MSTORE PUSH1 0x20 ADD SWAP1 DUP2 MSTORE PUSH1 0x20 ADD PUSH1 0x0 KECCAK256 PUSH1 0x1 ADD SLOAD SWAP1 POP SWAP3 SWAP2 POP POP JUMP JUMPDEST PUSH1 0x68 SLOAD DUP2 JUMP JUMPDEST PUSH2 0x20AF PUSH2 0x2F1C JUMP JUMPDEST PUSH1 0x0 PUSH1 0x70 PUSH1 0x1 PUSH2 0x100 EXP DUP2 SLOAD DUP2 PUSH1 0xFF MUL NOT AND SWAP1 DUP4 ISZERO ISZERO MUL OR SWAP1 SSTORE POP JUMP JUMPDEST PUSH1 0x67 SLOAD DUP2 JUMP JUMPDEST PUSH1 0x45 DUP2 PUSH1 0x1E DUP2 LT PUSH2 0x20E2 JUMPI PUSH1 0x0 DUP1 REVERT JUMPDEST ADD PUSH1 0x0 SWAP2 POP SWAP1 POP SLOAD DUP2 JUMP JUMPDEST PUSH1 0x6A SLOAD DUP2 JUMP JUMPDEST PUSH1 0x64 SLOAD DUP2 JUMP JUMPDEST PUSH1 0x70 PUSH1 0x1 SWAP1 SLOAD SWAP1 PUSH2 0x100 EXP SWAP1 DIV PUSH1 0xFF AND ISZERO PUSH2 0x2149 JUMPI PUSH1 0x40 MLOAD PUSH32 0x8C379A000000000000000000000000000000000000000000000000000000000 DUP2 MSTORE PUSH1 0x4 ADD PUSH2 0x2140 SWAP1 PUSH2 0x6109 JUMP JUMPDEST PUSH1 0x40 MLOAD DUP1 SWAP2 SUB SWAP1 REVERT JUMPDEST PUSH1 0x6F PUSH1 0x0 CALLER PUSH20 0xFFFFFFFFFFFFFFFFFFFFFFFFFFFFFFFFFFFFFFFF AND PUSH20 0xFFFFFFFFFFFFFFFFFFFFFFFFFFFFFFFFFFFFFFFF AND DUP2 MSTORE PUSH1 0x20 ADD SWAP1 DUP2 MSTORE PUSH1 0x20 ADD PUSH1 0x0 KECCAK256 PUSH1 0x0 SWAP1 SLOAD SWAP1 PUSH2 0x100 EXP SWAP1 DIV PUSH1 0xFF AND PUSH2 0x21D5 JUMPI PUSH1 0x40 MLOAD PUSH32 0x8C379A000000000000000000000000000000000000000000000000000000000 DUP2 MSTORE PUSH1 0x4 ADD PUSH2 0x21CC SWAP1 PUSH2 0x60C9 JUMP JUMPDEST PUSH1 0x40 MLOAD DUP1 SWAP2 SUB SWAP1 REVERT JUMPDEST PUSH2 0x21DF DUP3 DUP3 PUSH2 0x3004 JUMP JUMPDEST POP POP JUMP JUMPDEST PUSH2 0x21EB PUSH2 0x2F1C JUMP JUMPDEST PUSH1 0x1 PUSH1 0x70 PUSH1 0x1 PUSH2 0x100 EXP DUP2 SLOAD DUP2 PUSH1 0xFF MUL NOT AND SWAP1 DUP4 ISZERO ISZERO MUL OR SWAP1 SSTORE POP JUMP JUMPDEST PUSH1 0x4 PUSH1 0x0 SWAP1 SLOAD SWAP1 PUSH2 0x100 EXP SWAP1 DIV PUSH20 0xFFFFFFFFFFFFFFFFFFFFFFFFFFFFFFFFFFFFFFFF AND DUP2 JUMP JUMPDEST PUSH32 0x0 DUP2 JUMP JUMPDEST PUSH1 0x0 PUSH1 0x1 PUSH1 0x0 DUP5 PUSH20 0xFFFFFFFFFFFFFFFFFFFFFFFFFFFFFFFFFFFFFFFF AND PUSH20 0xFFFFFFFFFFFFFFFFFFFFFFFFFFFFFFFFFFFFFFFF AND DUP2 MSTORE PUSH1 0x20 ADD SWAP1 DUP2 MSTORE PUSH1 0x20 ADD PUSH1 0x0 KECCAK256 PUSH1 0x0 DUP4 PUSH20 0xFFFFFFFFFFFFFFFFFFFFFFFFFFFFFFFFFFFFFFFF AND PUSH20 0xFFFFFFFFFFFFFFFFFFFFFFFFFFFFFFFFFFFFFFFF AND DUP2 MSTORE PUSH1 0x20 ADD SWAP1 DUP2 MSTORE PUSH1 0x20 ADD PUSH1 0x0 KECCAK256 PUSH1 0x0 SWAP1 SLOAD SWAP1 PUSH2 0x100 EXP SWAP1 DIV PUSH1 0xFF AND SWAP1 POP SWAP3 SWAP2 POP POP JUMP JUMPDEST PUSH1 0x6B SLOAD DUP2 JUMP JUMPDEST PUSH1 0x6D PUSH1 0x20 MSTORE DUP2 PUSH1 0x0 MSTORE PUSH1 0x40 PUSH1 0x0 KECCAK256 PUSH1 0x20 MSTORE DUP1 PUSH1 0x0 MSTORE PUSH1 0x40 PUSH1 0x0 KECCAK256 PUSH1 0x0 SWAP2 POP SWAP2 POP POP DUP1 PUSH1 0x0 ADD SLOAD SWAP1 DUP1 PUSH1 0x1 ADD SLOAD SWAP1 POP DUP3 JUMP JUMPDEST PUSH2 0x2325 PUSH2 0x3A0C JUMP JUMPDEST PUSH20 0xFFFFFFFFFFFFFFFFFFFFFFFFFFFFFFFFFFFFFFFF AND DUP6 PUSH20 0xFFFFFFFFFFFFFFFFFFFFFFFFFFFFFFFFFFFFFFFF AND EQ DUP1 PUSH2 0x236B JUMPI POP PUSH2 0x236A DUP6 PUSH2 0x2365 PUSH2 0x3A0C JUMP JUMPDEST PUSH2 0x2252 JUMP JUMPDEST JUMPDEST PUSH2 0x23AA JUMPI PUSH1 0x40 MLOAD PUSH32 0x8C379A000000000000000000000000000000000000000000000000000000000 DUP2 MSTORE PUSH1 0x4 ADD PUSH2 0x23A1 SWAP1 PUSH2 0x5E29 JUMP JUMPDEST PUSH1 0x40 MLOAD DUP1 SWAP2 SUB SWAP1 REVERT JUMPDEST PUSH1 0x2 DUP4 EQ ISZERO PUSH2 0x245F JUMPI PUSH1 0x65 SLOAD PUSH2 0x2419 DUP4 PUSH1 0x6E PUSH1 0x0 DUP9 PUSH20 0xFFFFFFFFFFFFFFFFFFFFFFFFFFFFFFFFFFFFFFFF AND PUSH20 0xFFFFFFFFFFFFFFFFFFFFFFFFFFFFFFFFFFFFFFFF AND DUP2 MSTORE PUSH1 0x20 ADD SWAP1 DUP2 MSTORE PUSH1 0x20 ADD PUSH1 0x0 KECCAK256 PUSH1 0x0 DUP8 DUP2 MSTORE PUSH1 0x20 ADD SWAP1 DUP2 MSTORE PUSH1 0x20 ADD PUSH1 0x0 KECCAK256 SLOAD PUSH2 0x3A14 SWAP1 SWAP2 SWAP1 PUSH4 0xFFFFFFFF AND JUMP JUMPDEST GT ISZERO PUSH2 0x245A JUMPI PUSH1 0x40 MLOAD PUSH32 0x8C379A000000000000000000000000000000000000000000000000000000000 DUP2 MSTORE PUSH1 0x4 ADD PUSH2 0x2451 SWAP1 PUSH2 0x6189 JUMP JUMPDEST PUSH1 0x40 MLOAD DUP1 SWAP2 SUB SWAP1 REVERT JUMPDEST PUSH2 0x2A01 JUMP JUMPDEST PUSH1 0x3 DUP4 EQ ISZERO PUSH2 0x2514 JUMPI PUSH1 0x64 SLOAD PUSH2 0x24CE DUP4 PUSH1 0x6E PUSH1 0x0 DUP9 PUSH20 0xFFFFFFFFFFFFFFFFFFFFFFFFFFFFFFFFFFFFFFFF AND PUSH20 0xFFFFFFFFFFFFFFFFFFFFFFFFFFFFFFFFFFFFFFFF AND DUP2 MSTORE PUSH1 0x20 ADD SWAP1 DUP2 MSTORE PUSH1 0x20 ADD PUSH1 0x0 KECCAK256 PUSH1 0x0 DUP8 DUP2 MSTORE PUSH1 0x20 ADD SWAP1 DUP2 MSTORE PUSH1 0x20 ADD PUSH1 0x0 KECCAK256 SLOAD PUSH2 0x3A14 SWAP1 SWAP2 SWAP1 PUSH4 0xFFFFFFFF AND JUMP JUMPDEST GT ISZERO PUSH2 0x250F JUMPI PUSH1 0x40 MLOAD PUSH32 0x8C379A000000000000000000000000000000000000000000000000000000000 DUP2 MSTORE PUSH1 0x4 ADD PUSH2 0x2506 SWAP1 PUSH2 0x6129 JUMP JUMPDEST PUSH1 0x40 MLOAD DUP1 SWAP2 SUB SWAP1 REVERT JUMPDEST PUSH2 0x2A00 JUMP JUMPDEST PUSH1 0x1D DUP4 EQ ISZERO PUSH2 0x25C9 JUMPI PUSH1 0x66 SLOAD PUSH2 0x2583 DUP4 PUSH1 0x6E PUSH1 0x0 DUP9 PUSH20 0xFFFFFFFFFFFFFFFFFFFFFFFFFFFFFFFFFFFFFFFF AND PUSH20 0xFFFFFFFFFFFFFFFFFFFFFFFFFFFFFFFFFFFFFFFF AND DUP2 MSTORE PUSH1 0x20 ADD SWAP1 DUP2 MSTORE PUSH1 0x20 ADD PUSH1 0x0 KECCAK256 PUSH1 0x0 DUP8 DUP2 MSTORE PUSH1 0x20 ADD SWAP1 DUP2 MSTORE PUSH1 0x20 ADD PUSH1 0x0 KECCAK256 SLOAD PUSH2 0x3A14 SWAP1 SWAP2 SWAP1 PUSH4 0xFFFFFFFF AND JUMP JUMPDEST GT ISZERO PUSH2 0x25C4 JUMPI PUSH1 0x40 MLOAD PUSH32 0x8C379A000000000000000000000000000000000000000000000000000000000 DUP2 MSTORE PUSH1 0x4 ADD PUSH2 0x25BB SWAP1 PUSH2 0x6149 JUMP JUMPDEST PUSH1 0x40 MLOAD DUP1 SWAP2 SUB SWAP1 REVERT JUMPDEST PUSH2 0x29FF JUMP JUMPDEST PUSH1 0x14 DUP4 EQ ISZERO PUSH2 0x267E JUMPI PUSH1 0x67 SLOAD PUSH2 0x2638 DUP4 PUSH1 0x6E PUSH1 0x0 CALLER PUSH20 0xFFFFFFFFFFFFFFFFFFFFFFFFFFFFFFFFFFFFFFFF AND PUSH20 0xFFFFFFFFFFFFFFFFFFFFFFFFFFFFFFFFFFFFFFFF AND DUP2 MSTORE PUSH1 0x20 ADD SWAP1 DUP2 MSTORE PUSH1 0x20 ADD PUSH1 0x0 KECCAK256 PUSH1 0x0 DUP8 DUP2 MSTORE PUSH1 0x20 ADD SWAP1 DUP2 MSTORE PUSH1 0x20 ADD PUSH1 0x0 KECCAK256 SLOAD PUSH2 0x3A14 SWAP1 SWAP2 SWAP1 PUSH4 0xFFFFFFFF AND JUMP JUMPDEST GT ISZERO PUSH2 0x2679 JUMPI PUSH1 0x40 MLOAD PUSH32 0x8C379A000000000000000000000000000000000000000000000000000000000 DUP2 MSTORE PUSH1 0x4 ADD PUSH2 0x2670 SWAP1 PUSH2 0x6069 JUMP JUMPDEST PUSH1 0x40 MLOAD DUP1 SWAP2 SUB SWAP1 REVERT JUMPDEST PUSH2 0x29FE JUMP JUMPDEST PUSH1 0x15 DUP4 EQ ISZERO PUSH2 0x2733 JUMPI PUSH1 0x68 SLOAD PUSH2 0x26ED DUP4 PUSH1 0x6E PUSH1 0x0 CALLER PUSH20 0xFFFFFFFFFFFFFFFFFFFFFFFFFFFFFFFFFFFFFFFF AND PUSH20 0xFFFFFFFFFFFFFFFFFFFFFFFFFFFFFFFFFFFFFFFF AND DUP2 MSTORE PUSH1 0x20 ADD SWAP1 DUP2 MSTORE PUSH1 0x20 ADD PUSH1 0x0 KECCAK256 PUSH1 0x0 DUP8 DUP2 MSTORE PUSH1 0x20 ADD SWAP1 DUP2 MSTORE PUSH1 0x20 ADD PUSH1 0x0 KECCAK256 SLOAD PUSH2 0x3A14 SWAP1 SWAP2 SWAP1 PUSH4 0xFFFFFFFF AND JUMP JUMPDEST GT ISZERO PUSH2 0x272E JUMPI PUSH1 0x40 MLOAD PUSH32 0x8C379A000000000000000000000000000000000000000000000000000000000 DUP2 MSTORE PUSH1 0x4 ADD PUSH2 0x2725 SWAP1 PUSH2 0x5E09 JUMP JUMPDEST PUSH1 0x40 MLOAD DUP1 SWAP2 SUB SWAP1 REVERT JUMPDEST PUSH2 0x29FD JUMP JUMPDEST PUSH1 0x16 DUP4 EQ ISZERO PUSH2 0x27E8 JUMPI PUSH1 0x69 SLOAD PUSH2 0x27A2 DUP4 PUSH1 0x6E PUSH1 0x0 CALLER PUSH20 0xFFFFFFFFFFFFFFFFFFFFFFFFFFFFFFFFFFFFFFFF AND PUSH20 0xFFFFFFFFFFFFFFFFFFFFFFFFFFFFFFFFFFFFFFFF AND DUP2 MSTORE PUSH1 0x20 ADD SWAP1 DUP2 MSTORE PUSH1 0x20 ADD PUSH1 0x0 KECCAK256 PUSH1 0x0 DUP8 DUP2 MSTORE PUSH1 0x20 ADD SWAP1 DUP2 MSTORE PUSH1 0x20 ADD PUSH1 0x0 KECCAK256 SLOAD PUSH2 0x3A14 SWAP1 SWAP2 SWAP1 PUSH4 0xFFFFFFFF AND JUMP JUMPDEST GT ISZERO PUSH2 0x27E3 JUMPI PUSH1 0x40 MLOAD PUSH32 0x8C379A000000000000000000000000000000000000000000000000000000000 DUP2 MSTORE PUSH1 0x4 ADD PUSH2 0x27DA SWAP1 PUSH2 0x6029 JUMP JUMPDEST PUSH1 0x40 MLOAD DUP1 SWAP2 SUB SWAP1 REVERT JUMPDEST PUSH2 0x29FC JUMP JUMPDEST PUSH1 0xE DUP4 EQ ISZERO PUSH2 0x289D JUMPI PUSH1 0x6A SLOAD PUSH2 0x2857 DUP4 PUSH1 0x6E PUSH1 0x0 CALLER PUSH20 0xFFFFFFFFFFFFFFFFFFFFFFFFFFFFFFFFFFFFFFFF AND PUSH20 0xFFFFFFFFFFFFFFFFFFFFFFFFFFFFFFFFFFFFFFFF AND DUP2 MSTORE PUSH1 0x20 ADD SWAP1 DUP2 MSTORE PUSH1 0x20 ADD PUSH1 0x0 KECCAK256 PUSH1 0x0 DUP8 DUP2 MSTORE PUSH1 0x20 ADD SWAP1 DUP2 MSTORE PUSH1 0x20 ADD PUSH1 0x0 KECCAK256 SLOAD PUSH2 0x3A14 SWAP1 SWAP2 SWAP1 PUSH4 0xFFFFFFFF AND JUMP JUMPDEST GT ISZERO PUSH2 0x2898 JUMPI PUSH1 0x40 MLOAD PUSH32 0x8C379A000000000000000000000000000000000000000000000000000000000 DUP2 MSTORE PUSH1 0x4 ADD PUSH2 0x288F SWAP1 PUSH2 0x6169 JUMP JUMPDEST PUSH1 0x40 MLOAD DUP1 SWAP2 SUB SWAP1 REVERT JUMPDEST PUSH2 0x29FB JUMP JUMPDEST PUSH1 0x8 DUP4 EQ ISZERO PUSH2 0x2952 JUMPI PUSH1 0x6B SLOAD PUSH2 0x290C DUP4 PUSH1 0x6E PUSH1 0x0 CALLER PUSH20 0xFFFFFFFFFFFFFFFFFFFFFFFFFFFFFFFFFFFFFFFF AND PUSH20 0xFFFFFFFFFFFFFFFFFFFFFFFFFFFFFFFFFFFFFFFF AND DUP2 MSTORE PUSH1 0x20 ADD SWAP1 DUP2 MSTORE PUSH1 0x20 ADD PUSH1 0x0 KECCAK256 PUSH1 0x0 DUP8 DUP2 MSTORE PUSH1 0x20 ADD SWAP1 DUP2 MSTORE PUSH1 0x20 ADD PUSH1 0x0 KECCAK256 SLOAD PUSH2 0x3A14 SWAP1 SWAP2 SWAP1 PUSH4 0xFFFFFFFF AND JUMP JUMPDEST GT ISZERO PUSH2 0x294D JUMPI PUSH1 0x40 MLOAD PUSH32 0x8C379A000000000000000000000000000000000000000000000000000000000 DUP2 MSTORE PUSH1 0x4 ADD PUSH2 0x2944 SWAP1 PUSH2 0x6009 JUMP JUMPDEST PUSH1 0x40 MLOAD DUP1 SWAP2 SUB SWAP1 REVERT JUMPDEST PUSH2 0x29FA JUMP JUMPDEST PUSH1 0x63 SLOAD PUSH2 0x29B8 DUP4 PUSH1 0x6E PUSH1 0x0 DUP9 PUSH20 0xFFFFFFFFFFFFFFFFFFFFFFFFFFFFFFFFFFFFFFFF AND PUSH20 0xFFFFFFFFFFFFFFFFFFFFFFFFFFFFFFFFFFFFFFFF AND DUP2 MSTORE PUSH1 0x20 ADD SWAP1 DUP2 MSTORE PUSH1 0x20 ADD PUSH1 0x0 KECCAK256 PUSH1 0x0 DUP8 DUP2 MSTORE PUSH1 0x20 ADD SWAP1 DUP2 MSTORE PUSH1 0x20 ADD PUSH1 0x0 KECCAK256 SLOAD PUSH2 0x3A14 SWAP1 SWAP2 SWAP1 PUSH4 0xFFFFFFFF AND JUMP JUMPDEST GT ISZERO PUSH2 0x29F9 JUMPI PUSH1 0x40 MLOAD PUSH32 0x8C379A000000000000000000000000000000000000000000000000000000000 DUP2 MSTORE PUSH1 0x4 ADD PUSH2 0x29F0 SWAP1 PUSH2 0x5E89 JUMP JUMPDEST PUSH1 0x40 MLOAD DUP1 SWAP2 SUB SWAP1 REVERT JUMPDEST JUMPDEST JUMPDEST JUMPDEST JUMPDEST JUMPDEST JUMPDEST JUMPDEST JUMPDEST PUSH2 0x2A0E DUP6 DUP6 DUP6 DUP6 DUP6 PUSH2 0x4210 JUMP JUMPDEST PUSH2 0x2A71 DUP3 PUSH1 0x6E PUSH1 0x0 DUP9 PUSH20 0xFFFFFFFFFFFFFFFFFFFFFFFFFFFFFFFFFFFFFFFF AND PUSH20 0xFFFFFFFFFFFFFFFFFFFFFFFFFFFFFFFFFFFFFFFF AND DUP2 MSTORE PUSH1 0x20 ADD SWAP1 DUP2 MSTORE PUSH1 0x20 ADD PUSH1 0x0 KECCAK256 PUSH1 0x0 DUP7 DUP2 MSTORE PUSH1 0x20 ADD SWAP1 DUP2 MSTORE PUSH1 0x20 ADD PUSH1 0x0 KECCAK256 SLOAD PUSH2 0x3A2A SWAP1 SWAP2 SWAP1 PUSH4 0xFFFFFFFF AND JUMP JUMPDEST PUSH1 0x6E PUSH1 0x0 DUP8 PUSH20 0xFFFFFFFFFFFFFFFFFFFFFFFFFFFFFFFFFFFFFFFF AND PUSH20 0xFFFFFFFFFFFFFFFFFFFFFFFFFFFFFFFFFFFFFFFF AND DUP2 MSTORE PUSH1 0x20 ADD SWAP1 DUP2 MSTORE PUSH1 0x20 ADD PUSH1 0x0 KECCAK256 PUSH1 0x0 DUP6 DUP2 MSTORE PUSH1 0x20 ADD SWAP1 DUP2 MSTORE PUSH1 0x20 ADD PUSH1 0x0 KECCAK256 DUP2 SWAP1 SSTORE POP PUSH2 0x2B28 DUP3 PUSH1 0x6E PUSH1 0x0 DUP8 PUSH20 0xFFFFFFFFFFFFFFFFFFFFFFFFFFFFFFFFFFFFFFFF AND PUSH20 0xFFFFFFFFFFFFFFFFFFFFFFFFFFFFFFFFFFFFFFFF AND DUP2 MSTORE PUSH1 0x20 ADD SWAP1 DUP2 MSTORE PUSH1 0x20 ADD PUSH1 0x0 KECCAK256 PUSH1 0x0 DUP7 DUP2 MSTORE PUSH1 0x20 ADD SWAP1 DUP2 MSTORE PUSH1 0x20 ADD PUSH1 0x0 KECCAK256 SLOAD PUSH2 0x3A14 SWAP1 SWAP2 SWAP1 PUSH4 0xFFFFFFFF AND JUMP JUMPDEST PUSH1 0x6E PUSH1 0x0 DUP7 PUSH20 0xFFFFFFFFFFFFFFFFFFFFFFFFFFFFFFFFFFFFFFFF AND PUSH20 0xFFFFFFFFFFFFFFFFFFFFFFFFFFFFFFFFFFFFFFFF AND DUP2 MSTORE PUSH1 0x20 ADD SWAP1 DUP2 MSTORE PUSH1 0x20 ADD PUSH1 0x0 KECCAK256 PUSH1 0x0 DUP6 DUP2 MSTORE PUSH1 0x20 ADD SWAP1 DUP2 MSTORE PUSH1 0x20 ADD PUSH1 0x0 KECCAK256 DUP2 SWAP1 SSTORE POP PUSH2 0x2C1C PUSH2 0x2BBA DUP4 PUSH2 0x2BAC PUSH1 0x2 PUSH1 0x45 DUP9 PUSH1 0x1E DUP2 LT PUSH2 0x2B9C JUMPI PUSH2 0x2B9B PUSH2 0x676E JUMP JUMPDEST JUMPDEST ADD SLOAD PUSH2 0x3A40 SWAP1 SWAP2 SWAP1 PUSH4 0xFFFFFFFF AND JUMP JUMPDEST PUSH2 0x3A56 SWAP1 SWAP2 SWAP1 PUSH4 0xFFFFFFFF AND JUMP JUMPDEST PUSH1 0x6D PUSH1 0x0 DUP9 PUSH20 0xFFFFFFFFFFFFFFFFFFFFFFFFFFFFFFFFFFFFFFFF AND PUSH20 0xFFFFFFFFFFFFFFFFFFFFFFFFFFFFFFFFFFFFFFFF AND DUP2 MSTORE PUSH1 0x20 ADD SWAP1 DUP2 MSTORE PUSH1 0x20 ADD PUSH1 0x0 KECCAK256 PUSH1 0x0 DUP7 DUP2 MSTORE PUSH1 0x20 ADD SWAP1 DUP2 MSTORE PUSH1 0x20 ADD PUSH1 0x0 KECCAK256 PUSH1 0x0 ADD SLOAD PUSH2 0x3A2A SWAP1 SWAP2 SWAP1 PUSH4 0xFFFFFFFF AND JUMP JUMPDEST PUSH1 0x6D PUSH1 0x0 DUP8 PUSH20 0xFFFFFFFFFFFFFFFFFFFFFFFFFFFFFFFFFFFFFFFF AND PUSH20 0xFFFFFFFFFFFFFFFFFFFFFFFFFFFFFFFFFFFFFFFF AND DUP2 MSTORE PUSH1 0x20 ADD SWAP1 DUP2 MSTORE PUSH1 0x20 ADD PUSH1 0x0 KECCAK256 PUSH1 0x0 DUP6 DUP2 MSTORE PUSH1 0x20 ADD SWAP1 DUP2 MSTORE PUSH1 0x20 ADD PUSH1 0x0 KECCAK256 PUSH1 0x0 ADD DUP2 SWAP1 SSTORE POP PUSH2 0x2CD9 DUP3 PUSH1 0x6D PUSH1 0x0 DUP9 PUSH20 0xFFFFFFFFFFFFFFFFFFFFFFFFFFFFFFFFFFFFFFFF AND PUSH20 0xFFFFFFFFFFFFFFFFFFFFFFFFFFFFFFFFFFFFFFFF AND DUP2 MSTORE PUSH1 0x20 ADD SWAP1 DUP2 MSTORE PUSH1 0x20 ADD PUSH1 0x0 KECCAK256 PUSH1 0x0 DUP7 DUP2 MSTORE PUSH1 0x20 ADD SWAP1 DUP2 MSTORE PUSH1 0x20 ADD PUSH1 0x0 KECCAK256 PUSH1 0x1 ADD SLOAD PUSH2 0x3A2A SWAP1 SWAP2 SWAP1 PUSH4 0xFFFFFFFF AND JUMP JUMPDEST PUSH1 0x6D PUSH1 0x0 DUP8 PUSH20 0xFFFFFFFFFFFFFFFFFFFFFFFFFFFFFFFFFFFFFFFF AND PUSH20 0xFFFFFFFFFFFFFFFFFFFFFFFFFFFFFFFFFFFFFFFF AND DUP2 MSTORE PUSH1 0x20 ADD SWAP1 DUP2 MSTORE PUSH1 0x20 ADD PUSH1 0x0 KECCAK256 PUSH1 0x0 DUP6 DUP2 MSTORE PUSH1 0x20 ADD SWAP1 DUP2 MSTORE PUSH1 0x20 ADD PUSH1 0x0 KECCAK256 PUSH1 0x1 ADD DUP2 SWAP1 SSTORE POP PUSH2 0x2D6B DUP3 PUSH2 0x2D5D PUSH1 0x2 PUSH1 0x45 DUP8 PUSH1 0x1E DUP2 LT PUSH2 0x2D4D JUMPI PUSH2 0x2D4C PUSH2 0x676E JUMP JUMPDEST JUMPDEST ADD SLOAD PUSH2 0x3A40 SWAP1 SWAP2 SWAP1 PUSH4 0xFFFFFFFF AND JUMP JUMPDEST PUSH2 0x3A56 SWAP1 SWAP2 SWAP1 PUSH4 0xFFFFFFFF AND JUMP JUMPDEST PUSH1 0x6D PUSH1 0x0 DUP7 PUSH20 0xFFFFFFFFFFFFFFFFFFFFFFFFFFFFFFFFFFFFFFFF AND PUSH20 0xFFFFFFFFFFFFFFFFFFFFFFFFFFFFFFFFFFFFFFFF AND DUP2 MSTORE PUSH1 0x20 ADD SWAP1 DUP2 MSTORE PUSH1 0x20 ADD PUSH1 0x0 KECCAK256 PUSH1 0x0 DUP6 DUP2 MSTORE PUSH1 0x20 ADD SWAP1 DUP2 MSTORE PUSH1 0x20 ADD PUSH1 0x0 KECCAK256 PUSH1 0x0 ADD DUP2 SWAP1 SSTORE POP DUP2 PUSH1 0x6D PUSH1 0x0 DUP7 PUSH20 0xFFFFFFFFFFFFFFFFFFFFFFFFFFFFFFFFFFFFFFFF AND PUSH20 0xFFFFFFFFFFFFFFFFFFFFFFFFFFFFFFFFFFFFFFFF AND DUP2 MSTORE PUSH1 0x20 ADD SWAP1 DUP2 MSTORE PUSH1 0x20 ADD PUSH1 0x0 KECCAK256 PUSH1 0x0 DUP6 DUP2 MSTORE PUSH1 0x20 ADD SWAP1 DUP2 MSTORE PUSH1 0x20 ADD PUSH1 0x0 KECCAK256 PUSH1 0x1 ADD DUP2 SWAP1 SSTORE POP POP POP POP POP POP JUMP JUMPDEST PUSH2 0x2E29 PUSH2 0x2F1C JUMP JUMPDEST PUSH1 0x0 PUSH20 0xFFFFFFFFFFFFFFFFFFFFFFFFFFFFFFFFFFFFFFFF AND DUP2 PUSH20 0xFFFFFFFFFFFFFFFFFFFFFFFFFFFFFFFFFFFFFFFF AND EQ ISZERO PUSH2 0x2E99 JUMPI PUSH1 0x40 MLOAD PUSH32 0x8C379A000000000000000000000000000000000000000000000000000000000 DUP2 MSTORE PUSH1 0x4 ADD PUSH2 0x2E90 SWAP1 PUSH2 0x5EC9 JUMP JUMPDEST PUSH1 0x40 MLOAD DUP1 SWAP2 SUB SWAP1 REVERT JUMPDEST PUSH2 0x2EA2 DUP2 PUSH2 0x3FDD JUMP JUMPDEST POP JUMP JUMPDEST PUSH1 0x0 PUSH1 0x6D PUSH1 0x0 DUP5 PUSH20 0xFFFFFFFFFFFFFFFFFFFFFFFFFFFFFFFFFFFFFFFF AND PUSH20 0xFFFFFFFFFFFFFFFFFFFFFFFFFFFFFFFFFFFFFFFF AND DUP2 MSTORE PUSH1 0x20 ADD SWAP1 DUP2 MSTORE PUSH1 0x20 ADD PUSH1 0x0 KECCAK256 PUSH1 0x0 DUP4 DUP2 MSTORE PUSH1 0x20 ADD SWAP1 DUP2 MSTORE PUSH1 0x20 ADD PUSH1 0x0 KECCAK256 PUSH1 0x0 ADD SLOAD SWAP1 POP SWAP3 SWAP2 POP POP JUMP JUMPDEST PUSH1 0x69 SLOAD DUP2 JUMP JUMPDEST PUSH1 0x70 PUSH1 0x1 SWAP1 SLOAD SWAP1 PUSH2 0x100 EXP SWAP1 DIV PUSH1 0xFF AND DUP2 JUMP JUMPDEST PUSH2 0x2F24 PUSH2 0x3A0C JUMP JUMPDEST PUSH20 0xFFFFFFFFFFFFFFFFFFFFFFFFFFFFFFFFFFFFFFFF AND PUSH2 0x2F42 PUSH2 0x1F4A JUMP JUMPDEST PUSH20 0xFFFFFFFFFFFFFFFFFFFFFFFFFFFFFFFFFFFFFFFF AND EQ PUSH2 0x2F98 JUMPI PUSH1 0x40 MLOAD PUSH32 0x8C379A000000000000000000000000000000000000000000000000000000000 DUP2 MSTORE PUSH1 0x4 ADD PUSH2 0x2F8F SWAP1 PUSH2 0x60E9 JUMP JUMPDEST PUSH1 0x40 MLOAD DUP1 SWAP2 SUB SWAP1 REVERT JUMPDEST JUMP JUMPDEST PUSH1 0x0 PUSH32 0x1FFC9A700000000000000000000000000000000000000000000000000000000 PUSH28 0xFFFFFFFFFFFFFFFFFFFFFFFFFFFFFFFFFFFFFFFFFFFFFFFFFFFFFFFF NOT AND DUP3 PUSH28 0xFFFFFFFFFFFFFFFFFFFFFFFFFFFFFFFFFFFFFFFFFFFFFFFFFFFFFFFF NOT AND EQ SWAP1 POP SWAP2 SWAP1 POP JUMP JUMPDEST PUSH1 0x70 PUSH1 0x0 SWAP1 SLOAD SWAP1 PUSH2 0x100 EXP SWAP1 DIV PUSH1 0xFF AND PUSH2 0x3053 JUMPI PUSH1 0x40 MLOAD PUSH32 0x8C379A000000000000000000000000000000000000000000000000000000000 DUP2 MSTORE PUSH1 0x4 ADD PUSH2 0x304A SWAP1 PUSH2 0x6209 JUMP JUMPDEST PUSH1 0x40 MLOAD DUP1 SWAP2 SUB SWAP1 REVERT JUMPDEST PUSH1 0x0 PUSH20 0xFFFFFFFFFFFFFFFFFFFFFFFFFFFFFFFFFFFFFFFF AND CALLER PUSH20 0xFFFFFFFFFFFFFFFFFFFFFFFFFFFFFFFFFFFFFFFF AND EQ ISZERO PUSH2 0x30C3 JUMPI PUSH1 0x40 MLOAD PUSH32 0x8C379A000000000000000000000000000000000000000000000000000000000 DUP2 MSTORE PUSH1 0x4 ADD PUSH2 0x30BA SWAP1 PUSH2 0x5EA9 JUMP JUMPDEST PUSH1 0x40 MLOAD DUP1 SWAP2 SUB SWAP1 REVERT JUMPDEST PUSH1 0x9 DUP3 PUSH1 0x1E DUP2 LT PUSH2 0x30D7 JUMPI PUSH2 0x30D6 PUSH2 0x676E JUMP JUMPDEST JUMPDEST ADD SLOAD PUSH2 0x3101 DUP3 PUSH1 0x27 DUP6 PUSH1 0x1E DUP2 LT PUSH2 0x30F1 JUMPI PUSH2 0x30F0 PUSH2 0x676E JUMP JUMPDEST JUMPDEST ADD SLOAD PUSH2 0x3A14 SWAP1 SWAP2 SWAP1 PUSH4 0xFFFFFFFF AND JUMP JUMPDEST LT PUSH2 0x3141 JUMPI PUSH1 0x40 MLOAD PUSH32 0x8C379A000000000000000000000000000000000000000000000000000000000 DUP2 MSTORE PUSH1 0x4 ADD PUSH2 0x3138 SWAP1 PUSH2 0x5F89 JUMP JUMPDEST PUSH1 0x40 MLOAD DUP1 SWAP2 SUB SWAP1 REVERT JUMPDEST PUSH2 0x3169 DUP2 PUSH1 0x45 DUP5 PUSH1 0x1E DUP2 LT PUSH2 0x3159 JUMPI PUSH2 0x3158 PUSH2 0x676E JUMP JUMPDEST JUMPDEST ADD SLOAD PUSH2 0x3A56 SWAP1 SWAP2 SWAP1 PUSH4 0xFFFFFFFF AND JUMP JUMPDEST CALLVALUE LT ISZERO PUSH2 0x31AB JUMPI PUSH1 0x40 MLOAD PUSH32 0x8C379A000000000000000000000000000000000000000000000000000000000 DUP2 MSTORE PUSH1 0x4 ADD PUSH2 0x31A2 SWAP1 PUSH2 0x5F49 JUMP JUMPDEST PUSH1 0x40 MLOAD DUP1 SWAP2 SUB SWAP1 REVERT JUMPDEST PUSH1 0x2 DUP3 EQ ISZERO PUSH2 0x3260 JUMPI PUSH1 0x65 SLOAD PUSH2 0x321A DUP3 PUSH1 0x6E PUSH1 0x0 CALLER PUSH20 0xFFFFFFFFFFFFFFFFFFFFFFFFFFFFFFFFFFFFFFFF AND PUSH20 0xFFFFFFFFFFFFFFFFFFFFFFFFFFFFFFFFFFFFFFFF AND DUP2 MSTORE PUSH1 0x20 ADD SWAP1 DUP2 MSTORE PUSH1 0x20 ADD PUSH1 0x0 KECCAK256 PUSH1 0x0 DUP7 DUP2 MSTORE PUSH1 0x20 ADD SWAP1 DUP2 MSTORE PUSH1 0x20 ADD PUSH1 0x0 KECCAK256 SLOAD PUSH2 0x3A14 SWAP1 SWAP2 SWAP1 PUSH4 0xFFFFFFFF AND JUMP JUMPDEST GT ISZERO PUSH2 0x325B JUMPI PUSH1 0x40 MLOAD PUSH32 0x8C379A000000000000000000000000000000000000000000000000000000000 DUP2 MSTORE PUSH1 0x4 ADD PUSH2 0x3252 SWAP1 PUSH2 0x61A9 JUMP JUMPDEST PUSH1 0x40 MLOAD DUP1 SWAP2 SUB SWAP1 REVERT JUMPDEST PUSH2 0x3802 JUMP JUMPDEST PUSH1 0x3 DUP3 EQ ISZERO PUSH2 0x3315 JUMPI PUSH1 0x64 SLOAD PUSH2 0x32CF DUP3 PUSH1 0x6E PUSH1 0x0 CALLER PUSH20 0xFFFFFFFFFFFFFFFFFFFFFFFFFFFFFFFFFFFFFFFF AND PUSH20 0xFFFFFFFFFFFFFFFFFFFFFFFFFFFFFFFFFFFFFFFF AND DUP2 MSTORE PUSH1 0x20 ADD SWAP1 DUP2 MSTORE PUSH1 0x20 ADD PUSH1 0x0 KECCAK256 PUSH1 0x0 DUP7 DUP2 MSTORE PUSH1 0x20 ADD SWAP1 DUP2 MSTORE PUSH1 0x20 ADD PUSH1 0x0 KECCAK256 SLOAD PUSH2 0x3A14 SWAP1 SWAP2 SWAP1 PUSH4 0xFFFFFFFF AND JUMP JUMPDEST GT ISZERO PUSH2 0x3310 JUMPI PUSH1 0x40 MLOAD PUSH32 0x8C379A000000000000000000000000000000000000000000000000000000000 DUP2 MSTORE PUSH1 0x4 ADD PUSH2 0x3307 SWAP1 PUSH2 0x5EE9 JUMP JUMPDEST PUSH1 0x40 MLOAD DUP1 SWAP2 SUB SWAP1 REVERT JUMPDEST PUSH2 0x3801 JUMP JUMPDEST PUSH1 0x1D DUP3 EQ ISZERO PUSH2 0x33CA JUMPI PUSH1 0x66 SLOAD PUSH2 0x3384 DUP3 PUSH1 0x6E PUSH1 0x0 CALLER PUSH20 0xFFFFFFFFFFFFFFFFFFFFFFFFFFFFFFFFFFFFFFFF AND PUSH20 0xFFFFFFFFFFFFFFFFFFFFFFFFFFFFFFFFFFFFFFFF AND DUP2 MSTORE PUSH1 0x20 ADD SWAP1 DUP2 MSTORE PUSH1 0x20 ADD PUSH1 0x0 KECCAK256 PUSH1 0x0 DUP7 DUP2 MSTORE PUSH1 0x20 ADD SWAP1 DUP2 MSTORE PUSH1 0x20 ADD PUSH1 0x0 KECCAK256 SLOAD PUSH2 0x3A14 SWAP1 SWAP2 SWAP1 PUSH4 0xFFFFFFFF AND JUMP JUMPDEST GT ISZERO PUSH2 0x33C5 JUMPI PUSH1 0x40 MLOAD PUSH32 0x8C379A000000000000000000000000000000000000000000000000000000000 DUP2 MSTORE PUSH1 0x4 ADD PUSH2 0x33BC SWAP1 PUSH2 0x6089 JUMP JUMPDEST PUSH1 0x40 MLOAD DUP1 SWAP2 SUB SWAP1 REVERT JUMPDEST PUSH2 0x3800 JUMP JUMPDEST PUSH1 0x14 DUP3 EQ ISZERO PUSH2 0x347F JUMPI PUSH1 0x67 SLOAD PUSH2 0x3439 DUP3 PUSH1 0x6E PUSH1 0x0 CALLER PUSH20 0xFFFFFFFFFFFFFFFFFFFFFFFFFFFFFFFFFFFFFFFF AND PUSH20 0xFFFFFFFFFFFFFFFFFFFFFFFFFFFFFFFFFFFFFFFF AND DUP2 MSTORE PUSH1 0x20 ADD SWAP1 DUP2 MSTORE PUSH1 0x20 ADD PUSH1 0x0 KECCAK256 PUSH1 0x0 DUP7 DUP2 MSTORE PUSH1 0x20 ADD SWAP1 DUP2 MSTORE PUSH1 0x20 ADD PUSH1 0x0 KECCAK256 SLOAD PUSH2 0x3A14 SWAP1 SWAP2 SWAP1 PUSH4 0xFFFFFFFF AND JUMP JUMPDEST GT ISZERO PUSH2 0x347A JUMPI PUSH1 0x40 MLOAD PUSH32 0x8C379A000000000000000000000000000000000000000000000000000000000 DUP2 MSTORE PUSH1 0x4 ADD PUSH2 0x3471 SWAP1 PUSH2 0x6069 JUMP JUMPDEST PUSH1 0x40 MLOAD DUP1 SWAP2 SUB SWAP1 REVERT JUMPDEST PUSH2 0x37FF JUMP JUMPDEST PUSH1 0x15 DUP3 EQ ISZERO PUSH2 0x3534 JUMPI PUSH1 0x68 SLOAD PUSH2 0x34EE DUP3 PUSH1 0x6E PUSH1 0x0 CALLER PUSH20 0xFFFFFFFFFFFFFFFFFFFFFFFFFFFFFFFFFFFFFFFF AND PUSH20 0xFFFFFFFFFFFFFFFFFFFFFFFFFFFFFFFFFFFFFFFF AND DUP2 MSTORE PUSH1 0x20 ADD SWAP1 DUP2 MSTORE PUSH1 0x20 ADD PUSH1 0x0 KECCAK256 PUSH1 0x0 DUP7 DUP2 MSTORE PUSH1 0x20 ADD SWAP1 DUP2 MSTORE PUSH1 0x20 ADD PUSH1 0x0 KECCAK256 SLOAD PUSH2 0x3A14 SWAP1 SWAP2 SWAP1 PUSH4 0xFFFFFFFF AND JUMP JUMPDEST GT ISZERO PUSH2 0x352F JUMPI PUSH1 0x40 MLOAD PUSH32 0x8C379A000000000000000000000000000000000000000000000000000000000 DUP2 MSTORE PUSH1 0x4 ADD PUSH2 0x3526 SWAP1 PUSH2 0x5E09 JUMP JUMPDEST PUSH1 0x40 MLOAD DUP1 SWAP2 SUB SWAP1 REVERT JUMPDEST PUSH2 0x37FE JUMP JUMPDEST PUSH1 0x16 DUP3 EQ ISZERO PUSH2 0x35E9 JUMPI PUSH1 0x69 SLOAD PUSH2 0x35A3 DUP3 PUSH1 0x6E PUSH1 0x0 CALLER PUSH20 0xFFFFFFFFFFFFFFFFFFFFFFFFFFFFFFFFFFFFFFFF AND PUSH20 0xFFFFFFFFFFFFFFFFFFFFFFFFFFFFFFFFFFFFFFFF AND DUP2 MSTORE PUSH1 0x20 ADD SWAP1 DUP2 MSTORE PUSH1 0x20 ADD PUSH1 0x0 KECCAK256 PUSH1 0x0 DUP7 DUP2 MSTORE PUSH1 0x20 ADD SWAP1 DUP2 MSTORE PUSH1 0x20 ADD PUSH1 0x0 KECCAK256 SLOAD PUSH2 0x3A14 SWAP1 SWAP2 SWAP1 PUSH4 0xFFFFFFFF AND JUMP JUMPDEST GT ISZERO PUSH2 0x35E4 JUMPI PUSH1 0x40 MLOAD PUSH32 0x8C379A000000000000000000000000000000000000000000000000000000000 DUP2 MSTORE PUSH1 0x4 ADD PUSH2 0x35DB SWAP1 PUSH2 0x6029 JUMP JUMPDEST PUSH1 0x40 MLOAD DUP1 SWAP2 SUB SWAP1 REVERT JUMPDEST PUSH2 0x37FD JUMP JUMPDEST PUSH1 0xE DUP3 EQ ISZERO PUSH2 0x369E JUMPI PUSH1 0x6A SLOAD PUSH2 0x3658 DUP3 PUSH1 0x6E PUSH1 0x0 CALLER PUSH20 0xFFFFFFFFFFFFFFFFFFFFFFFFFFFFFFFFFFFFFFFF AND PUSH20 0xFFFFFFFFFFFFFFFFFFFFFFFFFFFFFFFFFFFFFFFF AND DUP2 MSTORE PUSH1 0x20 ADD SWAP1 DUP2 MSTORE PUSH1 0x20 ADD PUSH1 0x0 KECCAK256 PUSH1 0x0 DUP7 DUP2 MSTORE PUSH1 0x20 ADD SWAP1 DUP2 MSTORE PUSH1 0x20 ADD PUSH1 0x0 KECCAK256 SLOAD PUSH2 0x3A14 SWAP1 SWAP2 SWAP1 PUSH4 0xFFFFFFFF AND JUMP JUMPDEST GT ISZERO PUSH2 0x3699 JUMPI PUSH1 0x40 MLOAD PUSH32 0x8C379A000000000000000000000000000000000000000000000000000000000 DUP2 MSTORE PUSH1 0x4 ADD PUSH2 0x3690 SWAP1 PUSH2 0x6169 JUMP JUMPDEST PUSH1 0x40 MLOAD DUP1 SWAP2 SUB SWAP1 REVERT JUMPDEST PUSH2 0x37FC JUMP JUMPDEST PUSH1 0x8 DUP3 EQ ISZERO PUSH2 0x3753 JUMPI PUSH1 0x6B SLOAD PUSH2 0x370D DUP3 PUSH1 0x6E PUSH1 0x0 CALLER PUSH20 0xFFFFFFFFFFFFFFFFFFFFFFFFFFFFFFFFFFFFFFFF AND PUSH20 0xFFFFFFFFFFFFFFFFFFFFFFFFFFFFFFFFFFFFFFFF AND DUP2 MSTORE PUSH1 0x20 ADD SWAP1 DUP2 MSTORE PUSH1 0x20 ADD PUSH1 0x0 KECCAK256 PUSH1 0x0 DUP7 DUP2 MSTORE PUSH1 0x20 ADD SWAP1 DUP2 MSTORE PUSH1 0x20 ADD PUSH1 0x0 KECCAK256 SLOAD PUSH2 0x3A14 SWAP1 SWAP2 SWAP1 PUSH4 0xFFFFFFFF AND JUMP JUMPDEST GT ISZERO PUSH2 0x374E JUMPI PUSH1 0x40 MLOAD PUSH32 0x8C379A000000000000000000000000000000000000000000000000000000000 DUP2 MSTORE PUSH1 0x4 ADD PUSH2 0x3745 SWAP1 PUSH2 0x6009 JUMP JUMPDEST PUSH1 0x40 MLOAD DUP1 SWAP2 SUB SWAP1 REVERT JUMPDEST PUSH2 0x37FB JUMP JUMPDEST PUSH1 0x63 SLOAD PUSH2 0x37B9 DUP3 PUSH1 0x6E PUSH1 0x0 CALLER PUSH20 0xFFFFFFFFFFFFFFFFFFFFFFFFFFFFFFFFFFFFFFFF AND PUSH20 0xFFFFFFFFFFFFFFFFFFFFFFFFFFFFFFFFFFFFFFFF AND DUP2 MSTORE PUSH1 0x20 ADD SWAP1 DUP2 MSTORE PUSH1 0x20 ADD PUSH1 0x0 KECCAK256 PUSH1 0x0 DUP7 DUP2 MSTORE PUSH1 0x20 ADD SWAP1 DUP2 MSTORE PUSH1 0x20 ADD PUSH1 0x0 KECCAK256 SLOAD PUSH2 0x3A14 SWAP1 SWAP2 SWAP1 PUSH4 0xFFFFFFFF AND JUMP JUMPDEST GT ISZERO PUSH2 0x37FA JUMPI PUSH1 0x40 MLOAD PUSH32 0x8C379A000000000000000000000000000000000000000000000000000000000 DUP2 MSTORE PUSH1 0x4 ADD PUSH2 0x37F1 SWAP1 PUSH2 0x5FC9 JUMP JUMPDEST PUSH1 0x40 MLOAD DUP1 SWAP2 SUB SWAP1 REVERT JUMPDEST JUMPDEST JUMPDEST JUMPDEST JUMPDEST JUMPDEST JUMPDEST JUMPDEST JUMPDEST PUSH2 0x380B DUP3 PUSH2 0x44AC JUMP JUMPDEST PUSH2 0x3833 DUP2 PUSH1 0x27 DUP5 PUSH1 0x1E DUP2 LT PUSH2 0x3823 JUMPI PUSH2 0x3822 PUSH2 0x676E JUMP JUMPDEST JUMPDEST ADD SLOAD PUSH2 0x3A14 SWAP1 SWAP2 SWAP1 PUSH4 0xFFFFFFFF AND JUMP JUMPDEST PUSH1 0x27 DUP4 PUSH1 0x1E DUP2 LT PUSH2 0x3847 JUMPI PUSH2 0x3846 PUSH2 0x676E JUMP JUMPDEST JUMPDEST ADD DUP2 SWAP1 SSTORE POP PUSH2 0x3867 CALLER DUP4 DUP4 PUSH1 0x40 MLOAD DUP1 PUSH1 0x20 ADD PUSH1 0x40 MSTORE DUP1 PUSH1 0x0 DUP2 MSTORE POP PUSH2 0x4846 JUMP JUMPDEST PUSH2 0x38CA DUP2 PUSH1 0x6E PUSH1 0x0 CALLER PUSH20 0xFFFFFFFFFFFFFFFFFFFFFFFFFFFFFFFFFFFFFFFF AND PUSH20 0xFFFFFFFFFFFFFFFFFFFFFFFFFFFFFFFFFFFFFFFF AND DUP2 MSTORE PUSH1 0x20 ADD SWAP1 DUP2 MSTORE PUSH1 0x20 ADD PUSH1 0x0 KECCAK256 PUSH1 0x0 DUP6 DUP2 MSTORE PUSH1 0x20 ADD SWAP1 DUP2 MSTORE PUSH1 0x20 ADD PUSH1 0x0 KECCAK256 SLOAD PUSH2 0x3A14 SWAP1 SWAP2 SWAP1 PUSH4 0xFFFFFFFF AND JUMP JUMPDEST PUSH1 0x6E PUSH1 0x0 CALLER PUSH20 0xFFFFFFFFFFFFFFFFFFFFFFFFFFFFFFFFFFFFFFFF AND PUSH20 0xFFFFFFFFFFFFFFFFFFFFFFFFFFFFFFFFFFFFFFFF AND DUP2 MSTORE PUSH1 0x20 ADD SWAP1 DUP2 MSTORE PUSH1 0x20 ADD PUSH1 0x0 KECCAK256 PUSH1 0x0 DUP5 DUP2 MSTORE PUSH1 0x20 ADD SWAP1 DUP2 MSTORE PUSH1 0x20 ADD PUSH1 0x0 KECCAK256 DUP2 SWAP1 SSTORE POP PUSH2 0x3959 DUP2 PUSH2 0x394B PUSH1 0x2 PUSH1 0x45 DUP7 PUSH1 0x1E DUP2 LT PUSH2 0x393B JUMPI PUSH2 0x393A PUSH2 0x676E JUMP JUMPDEST JUMPDEST ADD SLOAD PUSH2 0x3A40 SWAP1 SWAP2 SWAP1 PUSH4 0xFFFFFFFF AND JUMP JUMPDEST PUSH2 0x3A56 SWAP1 SWAP2 SWAP1 PUSH4 0xFFFFFFFF AND JUMP JUMPDEST PUSH1 0x6D PUSH1 0x0 CALLER PUSH20 0xFFFFFFFFFFFFFFFFFFFFFFFFFFFFFFFFFFFFFFFF AND PUSH20 0xFFFFFFFFFFFFFFFFFFFFFFFFFFFFFFFFFFFFFFFF AND DUP2 MSTORE PUSH1 0x20 ADD SWAP1 DUP2 MSTORE PUSH1 0x20 ADD PUSH1 0x0 KECCAK256 PUSH1 0x0 DUP5 DUP2 MSTORE PUSH1 0x20 ADD SWAP1 DUP2 MSTORE PUSH1 0x20 ADD PUSH1 0x0 KECCAK256 PUSH1 0x0 ADD DUP2 SWAP1 SSTORE POP DUP1 PUSH1 0x6D PUSH1 0x0 CALLER PUSH20 0xFFFFFFFFFFFFFFFFFFFFFFFFFFFFFFFFFFFFFFFF AND PUSH20 0xFFFFFFFFFFFFFFFFFFFFFFFFFFFFFFFFFFFFFFFF AND DUP2 MSTORE PUSH1 0x20 ADD SWAP1 DUP2 MSTORE PUSH1 0x20 ADD PUSH1 0x0 KECCAK256 PUSH1 0x0 DUP5 DUP2 MSTORE PUSH1 0x20 ADD SWAP1 DUP2 MSTORE PUSH1 0x20 ADD PUSH1 0x0 KECCAK256 PUSH1 0x1 ADD DUP2 SWAP1 SSTORE POP POP POP JUMP JUMPDEST PUSH1 0x0 CALLER SWAP1 POP SWAP1 JUMP JUMPDEST PUSH1 0x0 DUP2 DUP4 PUSH2 0x3A22 SWAP2 SWAP1 PUSH2 0x6410 JUMP JUMPDEST SWAP1 POP SWAP3 SWAP2 POP POP JUMP JUMPDEST PUSH1 0x0 DUP2 DUP4 PUSH2 0x3A38 SWAP2 SWAP1 PUSH2 0x64F1 JUMP JUMPDEST SWAP1 POP SWAP3 SWAP2 POP POP JUMP JUMPDEST PUSH1 0x0 DUP2 DUP4 PUSH2 0x3A4E SWAP2 SWAP1 PUSH2 0x6466 JUMP JUMPDEST SWAP1 POP SWAP3 SWAP2 POP POP JUMP JUMPDEST PUSH1 0x0 DUP2 DUP4 PUSH2 0x3A64 SWAP2 SWAP1 PUSH2 0x6497 JUMP JUMPDEST SWAP1 POP SWAP3 SWAP2 POP POP JUMP JUMPDEST DUP2 MLOAD DUP4 MLOAD EQ PUSH2 0x3AB0 JUMPI PUSH1 0x40 MLOAD PUSH32 0x8C379A000000000000000000000000000000000000000000000000000000000 DUP2 MSTORE PUSH1 0x4 ADD PUSH2 0x3AA7 SWAP1 PUSH2 0x6229 JUMP JUMPDEST PUSH1 0x40 MLOAD DUP1 SWAP2 SUB SWAP1 REVERT JUMPDEST PUSH1 0x0 PUSH20 0xFFFFFFFFFFFFFFFFFFFFFFFFFFFFFFFFFFFFFFFF AND DUP5 PUSH20 0xFFFFFFFFFFFFFFFFFFFFFFFFFFFFFFFFFFFFFFFF AND EQ ISZERO PUSH2 0x3B20 JUMPI PUSH1 0x40 MLOAD PUSH32 0x8C379A000000000000000000000000000000000000000000000000000000000 DUP2 MSTORE PUSH1 0x4 ADD PUSH2 0x3B17 SWAP1 PUSH2 0x6049 JUMP JUMPDEST PUSH1 0x40 MLOAD DUP1 SWAP2 SUB SWAP1 REVERT JUMPDEST PUSH1 0x0 PUSH2 0x3B2A PUSH2 0x3A0C JUMP JUMPDEST SWAP1 POP PUSH2 0x3B3A DUP2 DUP8 DUP8 DUP8 DUP8 DUP8 PUSH2 0x49F7 JUMP JUMPDEST PUSH1 0x0 JUMPDEST DUP5 MLOAD DUP2 LT ISZERO PUSH2 0x3CEB JUMPI PUSH1 0x0 DUP6 DUP3 DUP2 MLOAD DUP2 LT PUSH2 0x3B5B JUMPI PUSH2 0x3B5A PUSH2 0x676E JUMP JUMPDEST JUMPDEST PUSH1 0x20 MUL PUSH1 0x20 ADD ADD MLOAD SWAP1 POP PUSH1 0x0 DUP6 DUP4 DUP2 MLOAD DUP2 LT PUSH2 0x3B7A JUMPI PUSH2 0x3B79 PUSH2 0x676E JUMP JUMPDEST JUMPDEST PUSH1 0x20 MUL PUSH1 0x20 ADD ADD MLOAD SWAP1 POP PUSH1 0x0 DUP1 PUSH1 0x0 DUP5 DUP2 MSTORE PUSH1 0x20 ADD SWAP1 DUP2 MSTORE PUSH1 0x20 ADD PUSH1 0x0 KECCAK256 PUSH1 0x0 DUP12 PUSH20 0xFFFFFFFFFFFFFFFFFFFFFFFFFFFFFFFFFFFFFFFF AND PUSH20 0xFFFFFFFFFFFFFFFFFFFFFFFFFFFFFFFFFFFFFFFF AND DUP2 MSTORE PUSH1 0x20 ADD SWAP1 DUP2 MSTORE PUSH1 0x20 ADD PUSH1 0x0 KECCAK256 SLOAD SWAP1 POP DUP2 DUP2 LT ISZERO PUSH2 0x3C1B JUMPI PUSH1 0x40 MLOAD PUSH32 0x8C379A000000000000000000000000000000000000000000000000000000000 DUP2 MSTORE PUSH1 0x4 ADD PUSH2 0x3C12 SWAP1 PUSH2 0x60A9 JUMP JUMPDEST PUSH1 0x40 MLOAD DUP1 SWAP2 SUB SWAP1 REVERT JUMPDEST DUP2 DUP2 SUB PUSH1 0x0 DUP1 DUP6 DUP2 MSTORE PUSH1 0x20 ADD SWAP1 DUP2 MSTORE PUSH1 0x20 ADD PUSH1 0x0 KECCAK256 PUSH1 0x0 DUP13 PUSH20 0xFFFFFFFFFFFFFFFFFFFFFFFFFFFFFFFFFFFFFFFF AND PUSH20 0xFFFFFFFFFFFFFFFFFFFFFFFFFFFFFFFFFFFFFFFF AND DUP2 MSTORE PUSH1 0x20 ADD SWAP1 DUP2 MSTORE PUSH1 0x20 ADD PUSH1 0x0 KECCAK256 DUP2 SWAP1 SSTORE POP DUP2 PUSH1 0x0 DUP1 DUP6 DUP2 MSTORE PUSH1 0x20 ADD SWAP1 DUP2 MSTORE PUSH1 0x20 ADD PUSH1 0x0 KECCAK256 PUSH1 0x0 DUP12 PUSH20 0xFFFFFFFFFFFFFFFFFFFFFFFFFFFFFFFFFFFFFFFF AND PUSH20 0xFFFFFFFFFFFFFFFFFFFFFFFFFFFFFFFFFFFFFFFF AND DUP2 MSTORE PUSH1 0x20 ADD SWAP1 DUP2 MSTORE PUSH1 0x20 ADD PUSH1 0x0 KECCAK256 PUSH1 0x0 DUP3 DUP3 SLOAD PUSH2 0x3CD0 SWAP2 SWAP1 PUSH2 0x6410 JUMP JUMPDEST SWAP3 POP POP DUP2 SWAP1 SSTORE POP POP POP POP DUP1 PUSH2 0x3CE4 SWAP1 PUSH2 0x6698 JUMP JUMPDEST SWAP1 POP PUSH2 0x3B3D JUMP JUMPDEST POP DUP5 PUSH20 0xFFFFFFFFFFFFFFFFFFFFFFFFFFFFFFFFFFFFFFFF AND DUP7 PUSH20 0xFFFFFFFFFFFFFFFFFFFFFFFFFFFFFFFFFFFFFFFF AND DUP3 PUSH20 0xFFFFFFFFFFFFFFFFFFFFFFFFFFFFFFFFFFFFFFFF AND PUSH32 0x4A39DC06D4C0DBC64B70AF90FD698A233A518AA5D07E595D983B8C0526C8F7FB DUP8 DUP8 PUSH1 0x40 MLOAD PUSH2 0x3D62 SWAP3 SWAP2 SWAP1 PUSH2 0x5D0E JUMP JUMPDEST PUSH1 0x40 MLOAD DUP1 SWAP2 SUB SWAP1 LOG4 PUSH2 0x3D78 DUP2 DUP8 DUP8 DUP8 DUP8 DUP8 PUSH2 0x49FF JUMP JUMPDEST PUSH2 0x3D86 DUP2 DUP8 DUP8 DUP8 DUP8 DUP8 PUSH2 0x4A07 JUMP JUMPDEST POP POP POP POP POP POP JUMP JUMPDEST PUSH1 0x0 PUSH1 0x2 PUSH8 0xFFFFFFFFFFFFFFFF DUP2 GT ISZERO PUSH2 0x3DAB JUMPI PUSH2 0x3DAA PUSH2 0x679D JUMP JUMPDEST JUMPDEST PUSH1 0x40 MLOAD SWAP1 DUP1 DUP3 MSTORE DUP1 PUSH1 0x20 MUL PUSH1 0x20 ADD DUP3 ADD PUSH1 0x40 MSTORE DUP1 ISZERO PUSH2 0x3DD9 JUMPI DUP2 PUSH1 0x20 ADD PUSH1 0x20 DUP3 MUL DUP1 CALLDATASIZE DUP4 CALLDATACOPY DUP1 DUP3 ADD SWAP2 POP POP SWAP1 POP JUMPDEST POP SWAP1 POP PUSH32 0x0 PUSH20 0xFFFFFFFFFFFFFFFFFFFFFFFFFFFFFFFFFFFFFFFF AND PUSH4 0xAD5C4648 PUSH1 0x40 MLOAD DUP2 PUSH4 0xFFFFFFFF AND PUSH1 0xE0 SHL DUP2 MSTORE PUSH1 0x4 ADD PUSH1 0x20 PUSH1 0x40 MLOAD DUP1 DUP4 SUB DUP2 DUP7 DUP1 EXTCODESIZE ISZERO DUP1 ISZERO PUSH2 0x3E42 JUMPI PUSH1 0x0 DUP1 REVERT JUMPDEST POP GAS STATICCALL ISZERO DUP1 ISZERO PUSH2 0x3E56 JUMPI RETURNDATASIZE PUSH1 0x0 DUP1 RETURNDATACOPY RETURNDATASIZE PUSH1 0x0 REVERT JUMPDEST POP POP POP POP PUSH1 0x40 MLOAD RETURNDATASIZE PUSH1 0x1F NOT PUSH1 0x1F DUP3 ADD AND DUP3 ADD DUP1 PUSH1 0x40 MSTORE POP DUP2 ADD SWAP1 PUSH2 0x3E7A SWAP2 SWAP1 PUSH2 0x50C9 JUMP JUMPDEST DUP2 PUSH1 0x0 DUP2 MLOAD DUP2 LT PUSH2 0x3E8E JUMPI PUSH2 0x3E8D PUSH2 0x676E JUMP JUMPDEST JUMPDEST PUSH1 0x20 MUL PUSH1 0x20 ADD ADD SWAP1 PUSH20 0xFFFFFFFFFFFFFFFFFFFFFFFFFFFFFFFFFFFFFFFF AND SWAP1 DUP2 PUSH20 0xFFFFFFFFFFFFFFFFFFFFFFFFFFFFFFFFFFFFFFFF AND DUP2 MSTORE POP POP PUSH1 0x6C PUSH1 0x0 SWAP1 SLOAD SWAP1 PUSH2 0x100 EXP SWAP1 DIV PUSH20 0xFFFFFFFFFFFFFFFFFFFFFFFFFFFFFFFFFFFFFFFF AND DUP2 PUSH1 0x1 DUP2 MLOAD DUP2 LT PUSH2 0x3EFF JUMPI PUSH2 0x3EFE PUSH2 0x676E JUMP JUMPDEST JUMPDEST PUSH1 0x20 MUL PUSH1 0x20 ADD ADD SWAP1 PUSH20 0xFFFFFFFFFFFFFFFFFFFFFFFFFFFFFFFFFFFFFFFF AND SWAP1 DUP2 PUSH20 0xFFFFFFFFFFFFFFFFFFFFFFFFFFFFFFFFFFFFFFFF AND DUP2 MSTORE POP POP PUSH32 0x0 PUSH20 0xFFFFFFFFFFFFFFFFFFFFFFFFFFFFFFFFFFFFFFFF AND PUSH4 0xB6F9DE95 DUP5 PUSH1 0x0 DUP5 DUP7 PUSH1 0xF TIMESTAMP PUSH2 0x3F87 SWAP2 SWAP1 PUSH2 0x6410 JUMP JUMPDEST PUSH1 0x40 MLOAD DUP7 PUSH4 0xFFFFFFFF AND PUSH1 0xE0 SHL DUP2 MSTORE PUSH1 0x4 ADD PUSH2 0x3FA6 SWAP5 SWAP4 SWAP3 SWAP2 SWAP1 PUSH2 0x5D7B JUMP JUMPDEST PUSH1 0x0 PUSH1 0x40 MLOAD DUP1 DUP4 SUB DUP2 DUP6 DUP9 DUP1 EXTCODESIZE ISZERO DUP1 ISZERO PUSH2 0x3FBF JUMPI PUSH1 0x0 DUP1 REVERT JUMPDEST POP GAS CALL ISZERO DUP1 ISZERO PUSH2 0x3FD3 JUMPI RETURNDATASIZE PUSH1 0x0 DUP1 RETURNDATACOPY RETURNDATASIZE PUSH1 0x0 REVERT JUMPDEST POP POP POP POP POP POP POP POP JUMP JUMPDEST PUSH1 0x0 PUSH1 0x3 PUSH1 0x0 SWAP1 SLOAD SWAP1 PUSH2 0x100 EXP SWAP1 DIV PUSH20 0xFFFFFFFFFFFFFFFFFFFFFFFFFFFFFFFFFFFFFFFF AND SWAP1 POP DUP2 PUSH1 0x3 PUSH1 0x0 PUSH2 0x100 EXP DUP2 SLOAD DUP2 PUSH20 0xFFFFFFFFFFFFFFFFFFFFFFFFFFFFFFFFFFFFFFFF MUL NOT AND SWAP1 DUP4 PUSH20 0xFFFFFFFFFFFFFFFFFFFFFFFFFFFFFFFFFFFFFFFF AND MUL OR SWAP1 SSTORE POP DUP2 PUSH20 0xFFFFFFFFFFFFFFFFFFFFFFFFFFFFFFFFFFFFFFFF AND DUP2 PUSH20 0xFFFFFFFFFFFFFFFFFFFFFFFFFFFFFFFFFFFFFFFF AND PUSH32 0x8BE0079C531659141344CD1FD0A4F28419497F9722A3DAAFE3B4186F6B6457E0 PUSH1 0x40 MLOAD PUSH1 0x40 MLOAD DUP1 SWAP2 SUB SWAP1 LOG3 POP POP JUMP JUMPDEST DUP2 PUSH20 0xFFFFFFFFFFFFFFFFFFFFFFFFFFFFFFFFFFFFFFFF AND DUP4 PUSH20 0xFFFFFFFFFFFFFFFFFFFFFFFFFFFFFFFFFFFFFFFF AND EQ ISZERO PUSH2 0x4112 JUMPI PUSH1 0x40 MLOAD PUSH32 0x8C379A000000000000000000000000000000000000000000000000000000000 DUP2 MSTORE PUSH1 0x4 ADD PUSH2 0x4109 SWAP1 PUSH2 0x61C9 JUMP JUMPDEST PUSH1 0x40 MLOAD DUP1 SWAP2 SUB SWAP1 REVERT JUMPDEST DUP1 PUSH1 0x1 PUSH1 0x0 DUP6 PUSH20 0xFFFFFFFFFFFFFFFFFFFFFFFFFFFFFFFFFFFFFFFF AND PUSH20 0xFFFFFFFFFFFFFFFFFFFFFFFFFFFFFFFFFFFFFFFF AND DUP2 MSTORE PUSH1 0x20 ADD SWAP1 DUP2 MSTORE PUSH1 0x20 ADD PUSH1 0x0 KECCAK256 PUSH1 0x0 DUP5 PUSH20 0xFFFFFFFFFFFFFFFFFFFFFFFFFFFFFFFFFFFFFFFF AND PUSH20 0xFFFFFFFFFFFFFFFFFFFFFFFFFFFFFFFFFFFFFFFF AND DUP2 MSTORE PUSH1 0x20 ADD SWAP1 DUP2 MSTORE PUSH1 0x20 ADD PUSH1 0x0 KECCAK256 PUSH1 0x0 PUSH2 0x100 EXP DUP2 SLOAD DUP2 PUSH1 0xFF MUL NOT AND SWAP1 DUP4 ISZERO ISZERO MUL OR SWAP1 SSTORE POP DUP2 PUSH20 0xFFFFFFFFFFFFFFFFFFFFFFFFFFFFFFFFFFFFFFFF AND DUP4 PUSH20 0xFFFFFFFFFFFFFFFFFFFFFFFFFFFFFFFFFFFFFFFF AND PUSH32 0x17307EAB39AB6107E8899845AD3D59BD9653F200F220920489CA2B5937696C31 DUP4 PUSH1 0x40 MLOAD PUSH2 0x4203 SWAP2 SWAP1 PUSH2 0x5D45 JUMP JUMPDEST PUSH1 0x40 MLOAD DUP1 SWAP2 SUB SWAP1 LOG3 POP POP POP JUMP JUMPDEST PUSH1 0x0 PUSH20 0xFFFFFFFFFFFFFFFFFFFFFFFFFFFFFFFFFFFFFFFF AND DUP5 PUSH20 0xFFFFFFFFFFFFFFFFFFFFFFFFFFFFFFFFFFFFFFFF AND EQ ISZERO PUSH2 0x4280 JUMPI PUSH1 0x40 MLOAD PUSH32 0x8C379A000000000000000000000000000000000000000000000000000000000 DUP2 MSTORE PUSH1 0x4 ADD PUSH2 0x4277 SWAP1 PUSH2 0x6049 JUMP JUMPDEST PUSH1 0x40 MLOAD DUP1 SWAP2 SUB SWAP1 REVERT JUMPDEST PUSH1 0x0 PUSH2 0x428A PUSH2 0x3A0C JUMP JUMPDEST SWAP1 POP PUSH1 0x0 PUSH2 0x4297 DUP6 PUSH2 0x4BEE JUMP JUMPDEST SWAP1 POP PUSH1 0x0 PUSH2 0x42A4 DUP6 PUSH2 0x4BEE JUMP JUMPDEST SWAP1 POP PUSH2 0x42B4 DUP4 DUP10 DUP10 DUP6 DUP6 DUP10 PUSH2 0x49F7 JUMP JUMPDEST PUSH1 0x0 DUP1 PUSH1 0x0 DUP9 DUP2 MSTORE PUSH1 0x20 ADD SWAP1 DUP2 MSTORE PUSH1 0x20 ADD PUSH1 0x0 KECCAK256 PUSH1 0x0 DUP11 PUSH20 0xFFFFFFFFFFFFFFFFFFFFFFFFFFFFFFFFFFFFFFFF AND PUSH20 0xFFFFFFFFFFFFFFFFFFFFFFFFFFFFFFFFFFFFFFFF AND DUP2 MSTORE PUSH1 0x20 ADD SWAP1 DUP2 MSTORE PUSH1 0x20 ADD PUSH1 0x0 KECCAK256 SLOAD SWAP1 POP DUP6 DUP2 LT ISZERO PUSH2 0x434B JUMPI PUSH1 0x40 MLOAD PUSH32 0x8C379A000000000000000000000000000000000000000000000000000000000 DUP2 MSTORE PUSH1 0x4 ADD PUSH2 0x4342 SWAP1 PUSH2 0x60A9 JUMP JUMPDEST PUSH1 0x40 MLOAD DUP1 SWAP2 SUB SWAP1 REVERT JUMPDEST DUP6 DUP2 SUB PUSH1 0x0 DUP1 DUP10 DUP2 MSTORE PUSH1 0x20 ADD SWAP1 DUP2 MSTORE PUSH1 0x20 ADD PUSH1 0x0 KECCAK256 PUSH1 0x0 DUP12 PUSH20 0xFFFFFFFFFFFFFFFFFFFFFFFFFFFFFFFFFFFFFFFF AND PUSH20 0xFFFFFFFFFFFFFFFFFFFFFFFFFFFFFFFFFFFFFFFF AND DUP2 MSTORE PUSH1 0x20 ADD SWAP1 DUP2 MSTORE PUSH1 0x20 ADD PUSH1 0x0 KECCAK256 DUP2 SWAP1 SSTORE POP DUP6 PUSH1 0x0 DUP1 DUP10 DUP2 MSTORE PUSH1 0x20 ADD SWAP1 DUP2 MSTORE PUSH1 0x20 ADD PUSH1 0x0 KECCAK256 PUSH1 0x0 DUP11 PUSH20 0xFFFFFFFFFFFFFFFFFFFFFFFFFFFFFFFFFFFFFFFF AND PUSH20 0xFFFFFFFFFFFFFFFFFFFFFFFFFFFFFFFFFFFFFFFF AND DUP2 MSTORE PUSH1 0x20 ADD SWAP1 DUP2 MSTORE PUSH1 0x20 ADD PUSH1 0x0 KECCAK256 PUSH1 0x0 DUP3 DUP3 SLOAD PUSH2 0x4400 SWAP2 SWAP1 PUSH2 0x6410 JUMP JUMPDEST SWAP3 POP POP DUP2 SWAP1 SSTORE POP DUP8 PUSH20 0xFFFFFFFFFFFFFFFFFFFFFFFFFFFFFFFFFFFFFFFF AND DUP10 PUSH20 0xFFFFFFFFFFFFFFFFFFFFFFFFFFFFFFFFFFFFFFFF AND DUP6 PUSH20 0xFFFFFFFFFFFFFFFFFFFFFFFFFFFFFFFFFFFFFFFF AND PUSH32 0xC3D58168C5AE7397731D063D5BBF3D657854427343F4C083240F7AACAA2D0F62 DUP11 DUP11 PUSH1 0x40 MLOAD PUSH2 0x447D SWAP3 SWAP2 SWAP1 PUSH2 0x6284 JUMP JUMPDEST PUSH1 0x40 MLOAD DUP1 SWAP2 SUB SWAP1 LOG4 PUSH2 0x4493 DUP5 DUP11 DUP11 DUP7 DUP7 DUP11 PUSH2 0x49FF JUMP JUMPDEST PUSH2 0x44A1 DUP5 DUP11 DUP11 DUP11 DUP11 DUP11 PUSH2 0x4C68 JUMP JUMPDEST POP POP POP POP POP POP POP POP POP JUMP JUMPDEST PUSH1 0x1D DUP2 EQ ISZERO PUSH2 0x4760 JUMPI PUSH1 0x0 PUSH1 0x4 PUSH1 0x0 SWAP1 SLOAD SWAP1 PUSH2 0x100 EXP SWAP1 DIV PUSH20 0xFFFFFFFFFFFFFFFFFFFFFFFFFFFFFFFFFFFFFFFF AND PUSH20 0xFFFFFFFFFFFFFFFFFFFFFFFFFFFFFFFFFFFFFFFF AND PUSH2 0x4504 PUSH1 0x3 CALLVALUE PUSH2 0x3A40 SWAP1 SWAP2 SWAP1 PUSH4 0xFFFFFFFF AND JUMP JUMPDEST PUSH1 0x40 MLOAD PUSH2 0x4510 SWAP1 PUSH2 0x5BDF JUMP JUMPDEST PUSH1 0x0 PUSH1 0x40 MLOAD DUP1 DUP4 SUB DUP2 DUP6 DUP8 GAS CALL SWAP3 POP POP POP RETURNDATASIZE DUP1 PUSH1 0x0 DUP2 EQ PUSH2 0x454D JUMPI PUSH1 0x40 MLOAD SWAP2 POP PUSH1 0x1F NOT PUSH1 0x3F RETURNDATASIZE ADD AND DUP3 ADD PUSH1 0x40 MSTORE RETURNDATASIZE DUP3 MSTORE RETURNDATASIZE PUSH1 0x0 PUSH1 0x20 DUP5 ADD RETURNDATACOPY PUSH2 0x4552 JUMP JUMPDEST PUSH1 0x60 SWAP2 POP JUMPDEST POP POP SWAP1 POP DUP1 PUSH2 0x4596 JUMPI PUSH1 0x40 MLOAD PUSH32 0x8C379A000000000000000000000000000000000000000000000000000000000 DUP2 MSTORE PUSH1 0x4 ADD PUSH2 0x458D SWAP1 PUSH2 0x5F09 JUMP JUMPDEST PUSH1 0x40 MLOAD DUP1 SWAP2 SUB SWAP1 REVERT JUMPDEST PUSH1 0x0 PUSH1 0x5 PUSH1 0x0 SWAP1 SLOAD SWAP1 PUSH2 0x100 EXP SWAP1 DIV PUSH20 0xFFFFFFFFFFFFFFFFFFFFFFFFFFFFFFFFFFFFFFFF AND PUSH20 0xFFFFFFFFFFFFFFFFFFFFFFFFFFFFFFFFFFFFFFFF AND PUSH2 0x45E5 PUSH1 0x3 CALLVALUE PUSH2 0x3A40 SWAP1 SWAP2 SWAP1 PUSH4 0xFFFFFFFF AND JUMP JUMPDEST PUSH1 0x40 MLOAD PUSH2 0x45F1 SWAP1 PUSH2 0x5BDF JUMP JUMPDEST PUSH1 0x0 PUSH1 0x40 MLOAD DUP1 DUP4 SUB DUP2 DUP6 DUP8 GAS CALL SWAP3 POP POP POP RETURNDATASIZE DUP1 PUSH1 0x0 DUP2 EQ PUSH2 0x462E JUMPI PUSH1 0x40 MLOAD SWAP2 POP PUSH1 0x1F NOT PUSH1 0x3F RETURNDATASIZE ADD AND DUP3 ADD PUSH1 0x40 MSTORE RETURNDATASIZE DUP3 MSTORE RETURNDATASIZE PUSH1 0x0 PUSH1 0x20 DUP5 ADD RETURNDATACOPY PUSH2 0x4633 JUMP JUMPDEST PUSH1 0x60 SWAP2 POP JUMPDEST POP POP SWAP1 POP DUP1 PUSH2 0x4677 JUMPI PUSH1 0x40 MLOAD PUSH32 0x8C379A000000000000000000000000000000000000000000000000000000000 DUP2 MSTORE PUSH1 0x4 ADD PUSH2 0x466E SWAP1 PUSH2 0x5FE9 JUMP JUMPDEST PUSH1 0x40 MLOAD DUP1 SWAP2 SUB SWAP1 REVERT JUMPDEST PUSH1 0x0 PUSH1 0x6 PUSH1 0x0 SWAP1 SLOAD SWAP1 PUSH2 0x100 EXP SWAP1 DIV PUSH20 0xFFFFFFFFFFFFFFFFFFFFFFFFFFFFFFFFFFFFFFFF AND PUSH20 0xFFFFFFFFFFFFFFFFFFFFFFFFFFFFFFFFFFFFFFFF AND PUSH2 0x46C6 PUSH1 0x3 CALLVALUE PUSH2 0x3A40 SWAP1 SWAP2 SWAP1 PUSH4 0xFFFFFFFF AND JUMP JUMPDEST PUSH1 0x40 MLOAD PUSH2 0x46D2 SWAP1 PUSH2 0x5BDF JUMP JUMPDEST PUSH1 0x0 PUSH1 0x40 MLOAD DUP1 DUP4 SUB DUP2 DUP6 DUP8 GAS CALL SWAP3 POP POP POP RETURNDATASIZE DUP1 PUSH1 0x0 DUP2 EQ PUSH2 0x470F JUMPI PUSH1 0x40 MLOAD SWAP2 POP PUSH1 0x1F NOT PUSH1 0x3F RETURNDATASIZE ADD AND DUP3 ADD PUSH1 0x40 MSTORE RETURNDATASIZE DUP3 MSTORE RETURNDATASIZE PUSH1 0x0 PUSH1 0x20 DUP5 ADD RETURNDATACOPY PUSH2 0x4714 JUMP JUMPDEST PUSH1 0x60 SWAP2 POP JUMPDEST POP POP SWAP1 POP DUP1 PUSH2 0x4758 JUMPI PUSH1 0x40 MLOAD PUSH32 0x8C379A000000000000000000000000000000000000000000000000000000000 DUP2 MSTORE PUSH1 0x4 ADD PUSH2 0x474F SWAP1 PUSH2 0x5FE9 JUMP JUMPDEST PUSH1 0x40 MLOAD DUP1 SWAP2 SUB SWAP1 REVERT JUMPDEST POP POP POP PUSH2 0x4843 JUMP JUMPDEST PUSH1 0x0 PUSH1 0x5 PUSH1 0x0 SWAP1 SLOAD SWAP1 PUSH2 0x100 EXP SWAP1 DIV PUSH20 0xFFFFFFFFFFFFFFFFFFFFFFFFFFFFFFFFFFFFFFFF AND PUSH20 0xFFFFFFFFFFFFFFFFFFFFFFFFFFFFFFFFFFFFFFFF AND PUSH2 0x47AF PUSH1 0x2 CALLVALUE PUSH2 0x3A40 SWAP1 SWAP2 SWAP1 PUSH4 0xFFFFFFFF AND JUMP JUMPDEST PUSH1 0x40 MLOAD PUSH2 0x47BB SWAP1 PUSH2 0x5BDF JUMP JUMPDEST PUSH1 0x0 PUSH1 0x40 MLOAD DUP1 DUP4 SUB DUP2 DUP6 DUP8 GAS CALL SWAP3 POP POP POP RETURNDATASIZE DUP1 PUSH1 0x0 DUP2 EQ PUSH2 0x47F8 JUMPI PUSH1 0x40 MLOAD SWAP2 POP PUSH1 0x1F NOT PUSH1 0x3F RETURNDATASIZE ADD AND DUP3 ADD PUSH1 0x40 MSTORE RETURNDATASIZE DUP3 MSTORE RETURNDATASIZE PUSH1 0x0 PUSH1 0x20 DUP5 ADD RETURNDATACOPY PUSH2 0x47FD JUMP JUMPDEST PUSH1 0x60 SWAP2 POP JUMPDEST POP POP SWAP1 POP DUP1 PUSH2 0x4841 JUMPI PUSH1 0x40 MLOAD PUSH32 0x8C379A000000000000000000000000000000000000000000000000000000000 DUP2 MSTORE PUSH1 0x4 ADD PUSH2 0x4838 SWAP1 PUSH2 0x5FE9 JUMP JUMPDEST PUSH1 0x40 MLOAD DUP1 SWAP2 SUB SWAP1 REVERT JUMPDEST POP JUMPDEST POP JUMP JUMPDEST PUSH1 0x0 PUSH20 0xFFFFFFFFFFFFFFFFFFFFFFFFFFFFFFFFFFFFFFFF AND DUP5 PUSH20 0xFFFFFFFFFFFFFFFFFFFFFFFFFFFFFFFFFFFFFFFF AND EQ ISZERO PUSH2 0x48B6 JUMPI PUSH1 0x40 MLOAD PUSH32 0x8C379A000000000000000000000000000000000000000000000000000000000 DUP2 MSTORE PUSH1 0x4 ADD PUSH2 0x48AD SWAP1 PUSH2 0x6249 JUMP JUMPDEST PUSH1 0x40 MLOAD DUP1 SWAP2 SUB SWAP1 REVERT JUMPDEST PUSH1 0x0 PUSH2 0x48C0 PUSH2 0x3A0C JUMP JUMPDEST SWAP1 POP PUSH1 0x0 PUSH2 0x48CD DUP6 PUSH2 0x4BEE JUMP JUMPDEST SWAP1 POP PUSH1 0x0 PUSH2 0x48DA DUP6 PUSH2 0x4BEE JUMP JUMPDEST SWAP1 POP PUSH2 0x48EB DUP4 PUSH1 0x0 DUP10 DUP6 DUP6 DUP10 PUSH2 0x49F7 JUMP JUMPDEST DUP5 PUSH1 0x0 DUP1 DUP9 DUP2 MSTORE PUSH1 0x20 ADD SWAP1 DUP2 MSTORE PUSH1 0x20 ADD PUSH1 0x0 KECCAK256 PUSH1 0x0 DUP10 PUSH20 0xFFFFFFFFFFFFFFFFFFFFFFFFFFFFFFFFFFFFFFFF AND PUSH20 0xFFFFFFFFFFFFFFFFFFFFFFFFFFFFFFFFFFFFFFFF AND DUP2 MSTORE PUSH1 0x20 ADD SWAP1 DUP2 MSTORE PUSH1 0x20 ADD PUSH1 0x0 KECCAK256 PUSH1 0x0 DUP3 DUP3 SLOAD PUSH2 0x494A SWAP2 SWAP1 PUSH2 0x6410 JUMP JUMPDEST SWAP3 POP POP DUP2 SWAP1 SSTORE POP DUP7 PUSH20 0xFFFFFFFFFFFFFFFFFFFFFFFFFFFFFFFFFFFFFFFF AND PUSH1 0x0 PUSH20 0xFFFFFFFFFFFFFFFFFFFFFFFFFFFFFFFFFFFFFFFF AND DUP5 PUSH20 0xFFFFFFFFFFFFFFFFFFFFFFFFFFFFFFFFFFFFFFFF AND PUSH32 0xC3D58168C5AE7397731D063D5BBF3D657854427343F4C083240F7AACAA2D0F62 DUP10 DUP10 PUSH1 0x40 MLOAD PUSH2 0x49C8 SWAP3 SWAP2 SWAP1 PUSH2 0x6284 JUMP JUMPDEST PUSH1 0x40 MLOAD DUP1 SWAP2 SUB SWAP1 LOG4 PUSH2 0x49DF DUP4 PUSH1 0x0 DUP10 DUP6 DUP6 DUP10 PUSH2 0x49FF JUMP JUMPDEST PUSH2 0x49EE DUP4 PUSH1 0x0 DUP10 DUP10 DUP10 DUP10 PUSH2 0x4C68 JUMP JUMPDEST POP POP POP POP POP POP POP JUMP JUMPDEST POP POP POP POP POP POP JUMP JUMPDEST POP POP POP POP POP POP JUMP JUMPDEST PUSH2 0x4A26 DUP5 PUSH20 0xFFFFFFFFFFFFFFFFFFFFFFFFFFFFFFFFFFFFFFFF AND PUSH2 0x4E4F JUMP JUMPDEST ISZERO PUSH2 0x4BE6 JUMPI DUP4 PUSH20 0xFFFFFFFFFFFFFFFFFFFFFFFFFFFFFFFFFFFFFFFF AND PUSH4 0xBC197C81 DUP8 DUP8 DUP7 DUP7 DUP7 PUSH1 0x40 MLOAD DUP7 PUSH4 0xFFFFFFFF AND PUSH1 0xE0 SHL DUP2 MSTORE PUSH1 0x4 ADD PUSH2 0x4A6C SWAP6 SWAP5 SWAP4 SWAP3 SWAP2 SWAP1 PUSH2 0x5C2A JUMP JUMPDEST PUSH1 0x20 PUSH1 0x40 MLOAD DUP1 DUP4 SUB DUP2 PUSH1 0x0 DUP8 DUP1 EXTCODESIZE ISZERO DUP1 ISZERO PUSH2 0x4A86 JUMPI PUSH1 0x0 DUP1 REVERT JUMPDEST POP GAS CALL SWAP3 POP POP POP DUP1 ISZERO PUSH2 0x4AB7 JUMPI POP PUSH1 0x40 MLOAD RETURNDATASIZE PUSH1 0x1F NOT PUSH1 0x1F DUP3 ADD AND DUP3 ADD DUP1 PUSH1 0x40 MSTORE POP DUP2 ADD SWAP1 PUSH2 0x4AB4 SWAP2 SWAP1 PUSH2 0x5460 JUMP JUMPDEST PUSH1 0x1 JUMPDEST PUSH2 0x4B5D JUMPI PUSH2 0x4AC3 PUSH2 0x67CC JUMP JUMPDEST DUP1 PUSH4 0x8C379A0 EQ ISZERO PUSH2 0x4B20 JUMPI POP PUSH2 0x4AD8 PUSH2 0x71C8 JUMP JUMPDEST DUP1 PUSH2 0x4AE3 JUMPI POP PUSH2 0x4B22 JUMP JUMPDEST DUP1 PUSH1 0x40 MLOAD PUSH32 0x8C379A000000000000000000000000000000000000000000000000000000000 DUP2 MSTORE PUSH1 0x4 ADD PUSH2 0x4B17 SWAP2 SWAP1 PUSH2 0x5DC7 JUMP JUMPDEST PUSH1 0x40 MLOAD DUP1 SWAP2 SUB SWAP1 REVERT JUMPDEST POP JUMPDEST PUSH1 0x40 MLOAD PUSH32 0x8C379A000000000000000000000000000000000000000000000000000000000 DUP2 MSTORE PUSH1 0x4 ADD PUSH2 0x4B54 SWAP1 PUSH2 0x5DE9 JUMP JUMPDEST PUSH1 0x40 MLOAD DUP1 SWAP2 SUB SWAP1 REVERT JUMPDEST PUSH4 0xBC197C81 PUSH1 0xE0 SHL PUSH28 0xFFFFFFFFFFFFFFFFFFFFFFFFFFFFFFFFFFFFFFFFFFFFFFFFFFFFFFFF NOT AND DUP2 PUSH28 0xFFFFFFFFFFFFFFFFFFFFFFFFFFFFFFFFFFFFFFFFFFFFFFFFFFFFFFFF NOT AND EQ PUSH2 0x4BE4 JUMPI PUSH1 0x40 MLOAD PUSH32 0x8C379A000000000000000000000000000000000000000000000000000000000 DUP2 MSTORE PUSH1 0x4 ADD PUSH2 0x4BDB SWAP1 PUSH2 0x5E49 JUMP JUMPDEST PUSH1 0x40 MLOAD DUP1 SWAP2 SUB SWAP1 REVERT JUMPDEST POP JUMPDEST POP POP POP POP POP POP JUMP JUMPDEST PUSH1 0x60 PUSH1 0x0 PUSH1 0x1 PUSH8 0xFFFFFFFFFFFFFFFF DUP2 GT ISZERO PUSH2 0x4C0D JUMPI PUSH2 0x4C0C PUSH2 0x679D JUMP JUMPDEST JUMPDEST PUSH1 0x40 MLOAD SWAP1 DUP1 DUP3 MSTORE DUP1 PUSH1 0x20 MUL PUSH1 0x20 ADD DUP3 ADD PUSH1 0x40 MSTORE DUP1 ISZERO PUSH2 0x4C3B JUMPI DUP2 PUSH1 0x20 ADD PUSH1 0x20 DUP3 MUL DUP1 CALLDATASIZE DUP4 CALLDATACOPY DUP1 DUP3 ADD SWAP2 POP POP SWAP1 POP JUMPDEST POP SWAP1 POP DUP3 DUP2 PUSH1 0x0 DUP2 MLOAD DUP2 LT PUSH2 0x4C53 JUMPI PUSH2 0x4C52 PUSH2 0x676E JUMP JUMPDEST JUMPDEST PUSH1 0x20 MUL PUSH1 0x20 ADD ADD DUP2 DUP2 MSTORE POP POP DUP1 SWAP2 POP POP SWAP2 SWAP1 POP JUMP JUMPDEST PUSH2 0x4C87 DUP5 PUSH20 0xFFFFFFFFFFFFFFFFFFFFFFFFFFFFFFFFFFFFFFFF AND PUSH2 0x4E4F JUMP JUMPDEST ISZERO PUSH2 0x4E47 JUMPI DUP4 PUSH20 0xFFFFFFFFFFFFFFFFFFFFFFFFFFFFFFFFFFFFFFFF AND PUSH4 0xF23A6E61 DUP8 DUP8 DUP7 DUP7 DUP7 PUSH1 0x40 MLOAD DUP7 PUSH4 0xFFFFFFFF AND PUSH1 0xE0 SHL DUP2 MSTORE PUSH1 0x4 ADD PUSH2 0x4CCD SWAP6 SWAP5 SWAP4 SWAP3 SWAP2 SWAP1 PUSH2 0x5C92 JUMP JUMPDEST PUSH1 0x20 PUSH1 0x40 MLOAD DUP1 DUP4 SUB DUP2 PUSH1 0x0 DUP8 DUP1 EXTCODESIZE ISZERO DUP1 ISZERO PUSH2 0x4CE7 JUMPI PUSH1 0x0 DUP1 REVERT JUMPDEST POP GAS CALL SWAP3 POP POP POP DUP1 ISZERO PUSH2 0x4D18 JUMPI POP PUSH1 0x40 MLOAD RETURNDATASIZE PUSH1 0x1F NOT PUSH1 0x1F DUP3 ADD AND DUP3 ADD DUP1 PUSH1 0x40 MSTORE POP DUP2 ADD SWAP1 PUSH2 0x4D15 SWAP2 SWAP1 PUSH2 0x5460 JUMP JUMPDEST PUSH1 0x1 JUMPDEST PUSH2 0x4DBE JUMPI PUSH2 0x4D24 PUSH2 0x67CC JUMP JUMPDEST DUP1 PUSH4 0x8C379A0 EQ ISZERO PUSH2 0x4D81 JUMPI POP PUSH2 0x4D39 PUSH2 0x71C8 JUMP JUMPDEST DUP1 PUSH2 0x4D44 JUMPI POP PUSH2 0x4D83 JUMP JUMPDEST DUP1 PUSH1 0x40 MLOAD PUSH32 0x8C379A000000000000000000000000000000000000000000000000000000000 DUP2 MSTORE PUSH1 0x4 ADD PUSH2 0x4D78 SWAP2 SWAP1 PUSH2 0x5DC7 JUMP JUMPDEST PUSH1 0x40 MLOAD DUP1 SWAP2 SUB SWAP1 REVERT JUMPDEST POP JUMPDEST PUSH1 0x40 MLOAD PUSH32 0x8C379A000000000000000000000000000000000000000000000000000000000 DUP2 MSTORE PUSH1 0x4 ADD PUSH2 0x4DB5 SWAP1 PUSH2 0x5DE9 JUMP JUMPDEST PUSH1 0x40 MLOAD DUP1 SWAP2 SUB SWAP1 REVERT JUMPDEST PUSH4 0xF23A6E61 PUSH1 0xE0 SHL PUSH28 0xFFFFFFFFFFFFFFFFFFFFFFFFFFFFFFFFFFFFFFFFFFFFFFFFFFFFFFFF NOT AND DUP2 PUSH28 0xFFFFFFFFFFFFFFFFFFFFFFFFFFFFFFFFFFFFFFFFFFFFFFFFFFFFFFFF NOT AND EQ PUSH2 0x4E45 JUMPI PUSH1 0x40 MLOAD PUSH32 0x8C379A000000000000000000000000000000000000000000000000000000000 DUP2 MSTORE PUSH1 0x4 ADD PUSH2 0x4E3C SWAP1 PUSH2 0x5E49 JUMP JUMPDEST PUSH1 0x40 MLOAD DUP1 SWAP2 SUB SWAP1 REVERT JUMPDEST POP JUMPDEST POP POP POP POP POP POP JUMP JUMPDEST PUSH1 0x0 DUP1 DUP3 PUSH20 0xFFFFFFFFFFFFFFFFFFFFFFFFFFFFFFFFFFFFFFFF AND EXTCODESIZE GT SWAP1 POP SWAP2 SWAP1 POP JUMP JUMPDEST PUSH1 0x0 PUSH2 0x4E85 PUSH2 0x4E80 DUP5 PUSH2 0x62D2 JUMP JUMPDEST PUSH2 0x62AD JUMP JUMPDEST SWAP1 POP DUP1 DUP4 DUP3 MSTORE PUSH1 0x20 DUP3 ADD SWAP1 POP DUP3 DUP6 PUSH1 0x20 DUP7 MUL DUP3 ADD GT ISZERO PUSH2 0x4EA8 JUMPI PUSH2 0x4EA7 PUSH2 0x67F3 JUMP JUMPDEST JUMPDEST PUSH1 0x0 JUMPDEST DUP6 DUP2 LT ISZERO PUSH2 0x4ED8 JUMPI DUP2 PUSH2 0x4EBE DUP9 DUP3 PUSH2 0x4F94 JUMP JUMPDEST DUP5 MSTORE PUSH1 0x20 DUP5 ADD SWAP4 POP PUSH1 0x20 DUP4 ADD SWAP3 POP POP PUSH1 0x1 DUP2 ADD SWAP1 POP PUSH2 0x4EAB JUMP JUMPDEST POP POP POP SWAP4 SWAP3 POP POP POP JUMP JUMPDEST PUSH1 0x0 PUSH2 0x4EF5 PUSH2 0x4EF0 DUP5 PUSH2 0x62FE JUMP JUMPDEST PUSH2 0x62AD JUMP JUMPDEST SWAP1 POP DUP1 DUP4 DUP3 MSTORE PUSH1 0x20 DUP3 ADD SWAP1 POP DUP3 DUP6 PUSH1 0x20 DUP7 MUL DUP3 ADD GT ISZERO PUSH2 0x4F18 JUMPI PUSH2 0x4F17 PUSH2 0x67F3 JUMP JUMPDEST JUMPDEST PUSH1 0x0 JUMPDEST DUP6 DUP2 LT ISZERO PUSH2 0x4F48 JUMPI DUP2 PUSH2 0x4F2E DUP9 DUP3 PUSH2 0x5087 JUMP JUMPDEST DUP5 MSTORE PUSH1 0x20 DUP5 ADD SWAP4 POP PUSH1 0x20 DUP4 ADD SWAP3 POP POP PUSH1 0x1 DUP2 ADD SWAP1 POP PUSH2 0x4F1B JUMP JUMPDEST POP POP POP SWAP4 SWAP3 POP POP POP JUMP JUMPDEST PUSH1 0x0 PUSH2 0x4F65 PUSH2 0x4F60 DUP5 PUSH2 0x632A JUMP JUMPDEST PUSH2 0x62AD JUMP JUMPDEST SWAP1 POP DUP3 DUP2 MSTORE PUSH1 0x20 DUP2 ADD DUP5 DUP5 DUP5 ADD GT ISZERO PUSH2 0x4F81 JUMPI PUSH2 0x4F80 PUSH2 0x67F8 JUMP JUMPDEST JUMPDEST PUSH2 0x4F8C DUP5 DUP3 DUP6 PUSH2 0x65F3 JUMP JUMPDEST POP SWAP4 SWAP3 POP POP POP JUMP JUMPDEST PUSH1 0x0 DUP2 CALLDATALOAD SWAP1 POP PUSH2 0x4FA3 DUP2 PUSH2 0x725E JUMP JUMPDEST SWAP3 SWAP2 POP POP JUMP JUMPDEST PUSH1 0x0 DUP2 MLOAD SWAP1 POP PUSH2 0x4FB8 DUP2 PUSH2 0x725E JUMP JUMPDEST SWAP3 SWAP2 POP POP JUMP JUMPDEST PUSH1 0x0 DUP3 PUSH1 0x1F DUP4 ADD SLT PUSH2 0x4FD3 JUMPI PUSH2 0x4FD2 PUSH2 0x67EE JUMP JUMPDEST JUMPDEST DUP2 CALLDATALOAD PUSH2 0x4FE3 DUP5 DUP3 PUSH1 0x20 DUP7 ADD PUSH2 0x4E72 JUMP JUMPDEST SWAP2 POP POP SWAP3 SWAP2 POP POP JUMP JUMPDEST PUSH1 0x0 DUP3 PUSH1 0x1F DUP4 ADD SLT PUSH2 0x5001 JUMPI PUSH2 0x5000 PUSH2 0x67EE JUMP JUMPDEST JUMPDEST DUP2 CALLDATALOAD PUSH2 0x5011 DUP5 DUP3 PUSH1 0x20 DUP7 ADD PUSH2 0x4EE2 JUMP JUMPDEST SWAP2 POP POP SWAP3 SWAP2 POP POP JUMP JUMPDEST PUSH1 0x0 DUP2 CALLDATALOAD SWAP1 POP PUSH2 0x5029 DUP2 PUSH2 0x7275 JUMP JUMPDEST SWAP3 SWAP2 POP POP JUMP JUMPDEST PUSH1 0x0 DUP2 CALLDATALOAD SWAP1 POP PUSH2 0x503E DUP2 PUSH2 0x728C JUMP JUMPDEST SWAP3 SWAP2 POP POP JUMP JUMPDEST PUSH1 0x0 DUP2 MLOAD SWAP1 POP PUSH2 0x5053 DUP2 PUSH2 0x728C JUMP JUMPDEST SWAP3 SWAP2 POP POP JUMP JUMPDEST PUSH1 0x0 DUP3 PUSH1 0x1F DUP4 ADD SLT PUSH2 0x506E JUMPI PUSH2 0x506D PUSH2 0x67EE JUMP JUMPDEST JUMPDEST DUP2 CALLDATALOAD PUSH2 0x507E DUP5 DUP3 PUSH1 0x20 DUP7 ADD PUSH2 0x4F52 JUMP JUMPDEST SWAP2 POP POP SWAP3 SWAP2 POP POP JUMP JUMPDEST PUSH1 0x0 DUP2 CALLDATALOAD SWAP1 POP PUSH2 0x5096 DUP2 PUSH2 0x72A3 JUMP JUMPDEST SWAP3 SWAP2 POP POP JUMP JUMPDEST PUSH1 0x0 PUSH1 0x20 DUP3 DUP5 SUB SLT ISZERO PUSH2 0x50B2 JUMPI PUSH2 0x50B1 PUSH2 0x6802 JUMP JUMPDEST JUMPDEST PUSH1 0x0 PUSH2 0x50C0 DUP5 DUP3 DUP6 ADD PUSH2 0x4F94 JUMP JUMPDEST SWAP2 POP POP SWAP3 SWAP2 POP POP JUMP JUMPDEST PUSH1 0x0 PUSH1 0x20 DUP3 DUP5 SUB SLT ISZERO PUSH2 0x50DF JUMPI PUSH2 0x50DE PUSH2 0x6802 JUMP JUMPDEST JUMPDEST PUSH1 0x0 PUSH2 0x50ED DUP5 DUP3 DUP6 ADD PUSH2 0x4FA9 JUMP JUMPDEST SWAP2 POP POP SWAP3 SWAP2 POP POP JUMP JUMPDEST PUSH1 0x0 DUP1 PUSH1 0x40 DUP4 DUP6 SUB SLT ISZERO PUSH2 0x510D JUMPI PUSH2 0x510C PUSH2 0x6802 JUMP JUMPDEST JUMPDEST PUSH1 0x0 PUSH2 0x511B DUP6 DUP3 DUP7 ADD PUSH2 0x4F94 JUMP JUMPDEST SWAP3 POP POP PUSH1 0x20 PUSH2 0x512C DUP6 DUP3 DUP7 ADD PUSH2 0x4F94 JUMP JUMPDEST SWAP2 POP POP SWAP3 POP SWAP3 SWAP1 POP JUMP JUMPDEST PUSH1 0x0 DUP1 PUSH1 0x0 DUP1 PUSH1 0x0 PUSH1 0xA0 DUP7 DUP9 SUB SLT ISZERO PUSH2 0x5152 JUMPI PUSH2 0x5151 PUSH2 0x6802 JUMP JUMPDEST JUMPDEST PUSH1 0x0 PUSH2 0x5160 DUP9 DUP3 DUP10 ADD PUSH2 0x4F94 JUMP JUMPDEST SWAP6 POP POP PUSH1 0x20 PUSH2 0x5171 DUP9 DUP3 DUP10 ADD PUSH2 0x4F94 JUMP JUMPDEST SWAP5 POP POP PUSH1 0x40 DUP7 ADD CALLDATALOAD PUSH8 0xFFFFFFFFFFFFFFFF DUP2 GT ISZERO PUSH2 0x5192 JUMPI PUSH2 0x5191 PUSH2 0x67FD JUMP JUMPDEST JUMPDEST PUSH2 0x519E DUP9 DUP3 DUP10 ADD PUSH2 0x4FEC JUMP JUMPDEST SWAP4 POP POP PUSH1 0x60 DUP7 ADD CALLDATALOAD PUSH8 0xFFFFFFFFFFFFFFFF DUP2 GT ISZERO PUSH2 0x51BF JUMPI PUSH2 0x51BE PUSH2 0x67FD JUMP JUMPDEST JUMPDEST PUSH2 0x51CB DUP9 DUP3 DUP10 ADD PUSH2 0x4FEC JUMP JUMPDEST SWAP3 POP POP PUSH1 0x80 DUP7 ADD CALLDATALOAD PUSH8 0xFFFFFFFFFFFFFFFF DUP2 GT ISZERO PUSH2 0x51EC JUMPI PUSH2 0x51EB PUSH2 0x67FD JUMP JUMPDEST JUMPDEST PUSH2 0x51F8 DUP9 DUP3 DUP10 ADD PUSH2 0x5059 JUMP JUMPDEST SWAP2 POP POP SWAP3 SWAP6 POP SWAP3 SWAP6 SWAP1 SWAP4 POP JUMP JUMPDEST PUSH1 0x0 DUP1 PUSH1 0x0 DUP1 PUSH1 0x0 PUSH1 0xA0 DUP7 DUP9 SUB SLT ISZERO PUSH2 0x5221 JUMPI PUSH2 0x5220 PUSH2 0x6802 JUMP JUMPDEST JUMPDEST PUSH1 0x0 PUSH2 0x522F DUP9 DUP3 DUP10 ADD PUSH2 0x4F94 JUMP JUMPDEST SWAP6 POP POP PUSH1 0x20 PUSH2 0x5240 DUP9 DUP3 DUP10 ADD PUSH2 0x4F94 JUMP JUMPDEST SWAP5 POP POP PUSH1 0x40 PUSH2 0x5251 DUP9 DUP3 DUP10 ADD PUSH2 0x5087 JUMP JUMPDEST SWAP4 POP POP PUSH1 0x60 PUSH2 0x5262 DUP9 DUP3 DUP10 ADD PUSH2 0x5087 JUMP JUMPDEST SWAP3 POP POP PUSH1 0x80 DUP7 ADD CALLDATALOAD PUSH8 0xFFFFFFFFFFFFFFFF DUP2 GT ISZERO PUSH2 0x5283 JUMPI PUSH2 0x5282 PUSH2 0x67FD JUMP JUMPDEST JUMPDEST PUSH2 0x528F DUP9 DUP3 DUP10 ADD PUSH2 0x5059 JUMP JUMPDEST SWAP2 POP POP SWAP3 SWAP6 POP SWAP3 SWAP6 SWAP1 SWAP4 POP JUMP JUMPDEST PUSH1 0x0 DUP1 PUSH1 0x40 DUP4 DUP6 SUB SLT ISZERO PUSH2 0x52B3 JUMPI PUSH2 0x52B2 PUSH2 0x6802 JUMP JUMPDEST JUMPDEST PUSH1 0x0 PUSH2 0x52C1 DUP6 DUP3 DUP7 ADD PUSH2 0x4F94 JUMP JUMPDEST SWAP3 POP POP PUSH1 0x20 PUSH2 0x52D2 DUP6 DUP3 DUP7 ADD PUSH2 0x501A JUMP JUMPDEST SWAP2 POP POP SWAP3 POP SWAP3 SWAP1 POP JUMP JUMPDEST PUSH1 0x0 DUP1 PUSH1 0x40 DUP4 DUP6 SUB SLT ISZERO PUSH2 0x52F3 JUMPI PUSH2 0x52F2 PUSH2 0x6802 JUMP JUMPDEST JUMPDEST PUSH1 0x0 PUSH2 0x5301 DUP6 DUP3 DUP7 ADD PUSH2 0x4F94 JUMP JUMPDEST SWAP3 POP POP PUSH1 0x20 PUSH2 0x5312 DUP6 DUP3 DUP7 ADD PUSH2 0x5087 JUMP JUMPDEST SWAP2 POP POP SWAP3 POP SWAP3 SWAP1 POP JUMP JUMPDEST PUSH1 0x0 DUP1 PUSH1 0x40 DUP4 DUP6 SUB SLT ISZERO PUSH2 0x5333 JUMPI PUSH2 0x5332 PUSH2 0x6802 JUMP JUMPDEST JUMPDEST PUSH1 0x0 DUP4 ADD CALLDATALOAD PUSH8 0xFFFFFFFFFFFFFFFF DUP2 GT ISZERO PUSH2 0x5351 JUMPI PUSH2 0x5350 PUSH2 0x67FD JUMP JUMPDEST JUMPDEST PUSH2 0x535D DUP6 DUP3 DUP7 ADD PUSH2 0x4FBE JUMP JUMPDEST SWAP3 POP POP PUSH1 0x20 DUP4 ADD CALLDATALOAD PUSH8 0xFFFFFFFFFFFFFFFF DUP2 GT ISZERO PUSH2 0x537E JUMPI PUSH2 0x537D PUSH2 0x67FD JUMP JUMPDEST JUMPDEST PUSH2 0x538A DUP6 DUP3 DUP7 ADD PUSH2 0x4FEC JUMP JUMPDEST SWAP2 POP POP SWAP3 POP SWAP3 SWAP1 POP JUMP JUMPDEST PUSH1 0x0 DUP1 PUSH1 0x0 DUP1 PUSH1 0x80 DUP6 DUP8 SUB SLT ISZERO PUSH2 0x53AE JUMPI PUSH2 0x53AD PUSH2 0x6802 JUMP JUMPDEST JUMPDEST PUSH1 0x0 DUP6 ADD CALLDATALOAD PUSH8 0xFFFFFFFFFFFFFFFF DUP2 GT ISZERO PUSH2 0x53CC JUMPI PUSH2 0x53CB PUSH2 0x67FD JUMP JUMPDEST JUMPDEST PUSH2 0x53D8 DUP8 DUP3 DUP9 ADD PUSH2 0x4FEC JUMP JUMPDEST SWAP5 POP POP PUSH1 0x20 DUP6 ADD CALLDATALOAD PUSH8 0xFFFFFFFFFFFFFFFF DUP2 GT ISZERO PUSH2 0x53F9 JUMPI PUSH2 0x53F8 PUSH2 0x67FD JUMP JUMPDEST JUMPDEST PUSH2 0x5405 DUP8 DUP3 DUP9 ADD PUSH2 0x4FEC JUMP JUMPDEST SWAP4 POP POP PUSH1 0x40 PUSH2 0x5416 DUP8 DUP3 DUP9 ADD PUSH2 0x4F94 JUMP JUMPDEST SWAP3 POP POP PUSH1 0x60 PUSH2 0x5427 DUP8 DUP3 DUP9 ADD PUSH2 0x4F94 JUMP JUMPDEST SWAP2 POP POP SWAP3 SWAP6 SWAP2 SWAP5 POP SWAP3 POP JUMP JUMPDEST PUSH1 0x0 PUSH1 0x20 DUP3 DUP5 SUB SLT ISZERO PUSH2 0x5449 JUMPI PUSH2 0x5448 PUSH2 0x6802 JUMP JUMPDEST JUMPDEST PUSH1 0x0 PUSH2 0x5457 DUP5 DUP3 DUP6 ADD PUSH2 0x502F JUMP JUMPDEST SWAP2 POP POP SWAP3 SWAP2 POP POP JUMP JUMPDEST PUSH1 0x0 PUSH1 0x20 DUP3 DUP5 SUB SLT ISZERO PUSH2 0x5476 JUMPI PUSH2 0x5475 PUSH2 0x6802 JUMP JUMPDEST JUMPDEST PUSH1 0x0 PUSH2 0x5484 DUP5 DUP3 DUP6 ADD PUSH2 0x5044 JUMP JUMPDEST SWAP2 POP POP SWAP3 SWAP2 POP POP JUMP JUMPDEST PUSH1 0x0 PUSH1 0x20 DUP3 DUP5 SUB SLT ISZERO PUSH2 0x54A3 JUMPI PUSH2 0x54A2 PUSH2 0x6802 JUMP JUMPDEST JUMPDEST PUSH1 0x0 PUSH2 0x54B1 DUP5 DUP3 DUP6 ADD PUSH2 0x5087 JUMP JUMPDEST SWAP2 POP POP SWAP3 SWAP2 POP POP JUMP JUMPDEST PUSH1 0x0 DUP1 PUSH1 0x40 DUP4 DUP6 SUB SLT ISZERO PUSH2 0x54D1 JUMPI PUSH2 0x54D0 PUSH2 0x6802 JUMP JUMPDEST JUMPDEST PUSH1 0x0 PUSH2 0x54DF DUP6 DUP3 DUP7 ADD PUSH2 0x5087 JUMP JUMPDEST SWAP3 POP POP PUSH1 0x20 PUSH2 0x54F0 DUP6 DUP3 DUP7 ADD PUSH2 0x5087 JUMP JUMPDEST SWAP2 POP POP SWAP3 POP SWAP3 SWAP1 POP JUMP JUMPDEST PUSH1 0x0 PUSH2 0x5506 DUP4 DUP4 PUSH2 0x5539 JUMP JUMPDEST PUSH1 0x20 DUP4 ADD SWAP1 POP SWAP3 SWAP2 POP POP JUMP JUMPDEST PUSH1 0x0 PUSH2 0x551E DUP4 DUP4 PUSH2 0x5BC1 JUMP JUMPDEST PUSH1 0x20 DUP4 ADD SWAP1 POP SWAP3 SWAP2 POP POP JUMP JUMPDEST PUSH2 0x5533 DUP2 PUSH2 0x6537 JUMP JUMPDEST DUP3 MSTORE POP POP JUMP JUMPDEST PUSH2 0x5542 DUP2 PUSH2 0x6525 JUMP JUMPDEST DUP3 MSTORE POP POP JUMP JUMPDEST PUSH2 0x5551 DUP2 PUSH2 0x6525 JUMP JUMPDEST DUP3 MSTORE POP POP JUMP JUMPDEST PUSH1 0x0 PUSH2 0x5562 DUP3 PUSH2 0x637B JUMP JUMPDEST PUSH2 0x556C DUP2 DUP6 PUSH2 0x63C1 JUMP JUMPDEST SWAP4 POP PUSH2 0x5577 DUP4 PUSH2 0x635B JUMP JUMPDEST DUP1 PUSH1 0x0 JUMPDEST DUP4 DUP2 LT ISZERO PUSH2 0x55A8 JUMPI DUP2 MLOAD PUSH2 0x558F DUP9 DUP3 PUSH2 0x54FA JUMP JUMPDEST SWAP8 POP PUSH2 0x559A DUP4 PUSH2 0x63A7 JUMP JUMPDEST SWAP3 POP POP PUSH1 0x1 DUP2 ADD SWAP1 POP PUSH2 0x557B JUMP JUMPDEST POP DUP6 SWAP4 POP POP POP POP SWAP3 SWAP2 POP POP JUMP JUMPDEST PUSH1 0x0 PUSH2 0x55C0 DUP3 PUSH2 0x6386 JUMP JUMPDEST PUSH2 0x55CA DUP2 DUP6 PUSH2 0x63D2 JUMP JUMPDEST SWAP4 POP PUSH2 0x55D5 DUP4 PUSH2 0x636B JUMP JUMPDEST DUP1 PUSH1 0x0 JUMPDEST DUP4 DUP2 LT ISZERO PUSH2 0x5606 JUMPI DUP2 MLOAD PUSH2 0x55ED DUP9 DUP3 PUSH2 0x5512 JUMP JUMPDEST SWAP8 POP PUSH2 0x55F8 DUP4 PUSH2 0x63B4 JUMP JUMPDEST SWAP3 POP POP PUSH1 0x1 DUP2 ADD SWAP1 POP PUSH2 0x55D9 JUMP JUMPDEST POP DUP6 SWAP4 POP POP POP POP SWAP3 SWAP2 POP POP JUMP JUMPDEST PUSH2 0x561C DUP2 PUSH2 0x6549 JUMP JUMPDEST DUP3 MSTORE POP POP JUMP JUMPDEST PUSH1 0x0 PUSH2 0x562D DUP3 PUSH2 0x6391 JUMP JUMPDEST PUSH2 0x5637 DUP2 DUP6 PUSH2 0x63E3 JUMP JUMPDEST SWAP4 POP PUSH2 0x5647 DUP2 DUP6 PUSH1 0x20 DUP7 ADD PUSH2 0x6602 JUMP JUMPDEST PUSH2 0x5650 DUP2 PUSH2 0x6807 JUMP JUMPDEST DUP5 ADD SWAP2 POP POP SWAP3 SWAP2 POP POP JUMP JUMPDEST PUSH2 0x5664 DUP2 PUSH2 0x65AB JUMP JUMPDEST DUP3 MSTORE POP POP JUMP JUMPDEST PUSH2 0x5673 DUP2 PUSH2 0x65BD JUMP JUMPDEST DUP3 MSTORE POP POP JUMP JUMPDEST PUSH1 0x0 PUSH2 0x5684 DUP3 PUSH2 0x639C JUMP JUMPDEST PUSH2 0x568E DUP2 DUP6 PUSH2 0x63FF JUMP JUMPDEST SWAP4 POP PUSH2 0x569E DUP2 DUP6 PUSH1 0x20 DUP7 ADD PUSH2 0x6602 JUMP JUMPDEST PUSH2 0x56A7 DUP2 PUSH2 0x6807 JUMP JUMPDEST DUP5 ADD SWAP2 POP POP SWAP3 SWAP2 POP POP JUMP JUMPDEST PUSH1 0x0 PUSH2 0x56BF PUSH1 0x34 DUP4 PUSH2 0x63FF JUMP JUMPDEST SWAP2 POP PUSH2 0x56CA DUP3 PUSH2 0x6825 JUMP JUMPDEST PUSH1 0x40 DUP3 ADD SWAP1 POP SWAP2 SWAP1 POP JUMP JUMPDEST PUSH1 0x0 PUSH2 0x56E2 PUSH1 0x29 DUP4 PUSH2 0x63FF JUMP JUMPDEST SWAP2 POP PUSH2 0x56ED DUP3 PUSH2 0x6874 JUMP JUMPDEST PUSH1 0x40 DUP3 ADD SWAP1 POP SWAP2 SWAP1 POP JUMP JUMPDEST PUSH1 0x0 PUSH2 0x5705 PUSH1 0x2F DUP4 PUSH2 0x63FF JUMP JUMPDEST SWAP2 POP PUSH2 0x5710 DUP3 PUSH2 0x68C3 JUMP JUMPDEST PUSH1 0x40 DUP3 ADD SWAP1 POP SWAP2 SWAP1 POP JUMP JUMPDEST PUSH1 0x0 PUSH2 0x5728 PUSH1 0x28 DUP4 PUSH2 0x63FF JUMP JUMPDEST SWAP2 POP PUSH2 0x5733 DUP3 PUSH2 0x6912 JUMP JUMPDEST PUSH1 0x40 DUP3 ADD SWAP1 POP SWAP2 SWAP1 POP JUMP JUMPDEST PUSH1 0x0 PUSH2 0x574B PUSH1 0x1F DUP4 PUSH2 0x63FF JUMP JUMPDEST SWAP2 POP PUSH2 0x5756 DUP3 PUSH2 0x6961 JUMP JUMPDEST PUSH1 0x20 DUP3 ADD SWAP1 POP SWAP2 SWAP1 POP JUMP JUMPDEST PUSH1 0x0 PUSH2 0x576E PUSH1 0x2A DUP4 PUSH2 0x63FF JUMP JUMPDEST SWAP2 POP PUSH2 0x5779 DUP3 PUSH2 0x698A JUMP JUMPDEST PUSH1 0x40 DUP3 ADD SWAP1 POP SWAP2 SWAP1 POP JUMP JUMPDEST PUSH1 0x0 PUSH2 0x5791 PUSH1 0x1D DUP4 PUSH2 0x63FF JUMP JUMPDEST SWAP2 POP PUSH2 0x579C DUP3 PUSH2 0x69D9 JUMP JUMPDEST PUSH1 0x20 DUP3 ADD SWAP1 POP SWAP2 SWAP1 POP JUMP JUMPDEST PUSH1 0x0 PUSH2 0x57B4 PUSH1 0x26 DUP4 PUSH2 0x63FF JUMP JUMPDEST SWAP2 POP PUSH2 0x57BF DUP3 PUSH2 0x6A02 JUMP JUMPDEST PUSH1 0x40 DUP3 ADD SWAP1 POP SWAP2 SWAP1 POP JUMP JUMPDEST PUSH1 0x0 PUSH2 0x57D7 PUSH1 0x29 DUP4 PUSH2 0x63FF JUMP JUMPDEST SWAP2 POP PUSH2 0x57E2 DUP3 PUSH2 0x6A51 JUMP JUMPDEST PUSH1 0x40 DUP3 ADD SWAP1 POP SWAP2 SWAP1 POP JUMP JUMPDEST PUSH1 0x0 PUSH2 0x57FA PUSH1 0x2D DUP4 PUSH2 0x63FF JUMP JUMPDEST SWAP2 POP PUSH2 0x5805 DUP3 PUSH2 0x6AA0 JUMP JUMPDEST PUSH1 0x40 DUP3 ADD SWAP1 POP SWAP2 SWAP1 POP JUMP JUMPDEST PUSH1 0x0 PUSH2 0x581D PUSH1 0x2A DUP4 PUSH2 0x63FF JUMP JUMPDEST SWAP2 POP PUSH2 0x5828 DUP3 PUSH2 0x6AEF JUMP JUMPDEST PUSH1 0x40 DUP3 ADD SWAP1 POP SWAP2 SWAP1 POP JUMP JUMPDEST PUSH1 0x0 PUSH2 0x5840 PUSH1 0x1C DUP4 PUSH2 0x63FF JUMP JUMPDEST SWAP2 POP PUSH2 0x584B DUP3 PUSH2 0x6B3E JUMP JUMPDEST PUSH1 0x20 DUP3 ADD SWAP1 POP SWAP2 SWAP1 POP JUMP JUMPDEST PUSH1 0x0 PUSH2 0x5863 PUSH1 0x1B DUP4 PUSH2 0x63FF JUMP JUMPDEST SWAP2 POP PUSH2 0x586E DUP3 PUSH2 0x6B67 JUMP JUMPDEST PUSH1 0x20 DUP3 ADD SWAP1 POP SWAP2 SWAP1 POP JUMP JUMPDEST PUSH1 0x0 PUSH2 0x5886 PUSH1 0x19 DUP4 PUSH2 0x63FF JUMP JUMPDEST SWAP2 POP PUSH2 0x5891 DUP3 PUSH2 0x6B90 JUMP JUMPDEST PUSH1 0x20 DUP3 ADD SWAP1 POP SWAP2 SWAP1 POP JUMP JUMPDEST PUSH1 0x0 PUSH2 0x58A9 PUSH1 0x1E DUP4 PUSH2 0x63FF JUMP JUMPDEST SWAP2 POP PUSH2 0x58B4 DUP3 PUSH2 0x6BB9 JUMP JUMPDEST PUSH1 0x20 DUP3 ADD SWAP1 POP SWAP2 SWAP1 POP JUMP JUMPDEST PUSH1 0x0 PUSH2 0x58CC PUSH1 0x28 DUP4 PUSH2 0x63FF JUMP JUMPDEST SWAP2 POP PUSH2 0x58D7 DUP3 PUSH2 0x6BE2 JUMP JUMPDEST PUSH1 0x40 DUP3 ADD SWAP1 POP SWAP2 SWAP1 POP JUMP JUMPDEST PUSH1 0x0 PUSH2 0x58EF PUSH1 0x15 DUP4 PUSH2 0x63FF JUMP JUMPDEST SWAP2 POP PUSH2 0x58FA DUP3 PUSH2 0x6C31 JUMP JUMPDEST PUSH1 0x20 DUP3 ADD SWAP1 POP SWAP2 SWAP1 POP JUMP JUMPDEST PUSH1 0x0 PUSH2 0x5912 PUSH1 0x23 DUP4 PUSH2 0x63FF JUMP JUMPDEST SWAP2 POP PUSH2 0x591D DUP3 PUSH2 0x6C5A JUMP JUMPDEST PUSH1 0x40 DUP3 ADD SWAP1 POP SWAP2 SWAP1 POP JUMP JUMPDEST PUSH1 0x0 PUSH2 0x5935 PUSH1 0x23 DUP4 PUSH2 0x63FF JUMP JUMPDEST SWAP2 POP PUSH2 0x5940 DUP3 PUSH2 0x6CA9 JUMP JUMPDEST PUSH1 0x40 DUP3 ADD SWAP1 POP SWAP2 SWAP1 POP JUMP JUMPDEST PUSH1 0x0 PUSH2 0x5958 PUSH1 0x25 DUP4 PUSH2 0x63FF JUMP JUMPDEST SWAP2 POP PUSH2 0x5963 DUP3 PUSH2 0x6CF8 JUMP JUMPDEST PUSH1 0x40 DUP3 ADD SWAP1 POP SWAP2 SWAP1 POP JUMP JUMPDEST PUSH1 0x0 PUSH2 0x597B PUSH1 0x24 DUP4 PUSH2 0x63FF JUMP JUMPDEST SWAP2 POP PUSH2 0x5986 DUP3 PUSH2 0x6D47 JUMP JUMPDEST PUSH1 0x40 DUP3 ADD SWAP1 POP SWAP2 SWAP1 POP JUMP JUMPDEST PUSH1 0x0 PUSH2 0x599E PUSH1 0x21 DUP4 PUSH2 0x63FF JUMP JUMPDEST SWAP2 POP PUSH2 0x59A9 DUP3 PUSH2 0x6D96 JUMP JUMPDEST PUSH1 0x40 DUP3 ADD SWAP1 POP SWAP2 SWAP1 POP JUMP JUMPDEST PUSH1 0x0 PUSH2 0x59C1 PUSH1 0x2A DUP4 PUSH2 0x63FF JUMP JUMPDEST SWAP2 POP PUSH2 0x59CC DUP3 PUSH2 0x6DE5 JUMP JUMPDEST PUSH1 0x40 DUP3 ADD SWAP1 POP SWAP2 SWAP1 POP JUMP JUMPDEST PUSH1 0x0 PUSH2 0x59E4 PUSH1 0x23 DUP4 PUSH2 0x63FF JUMP JUMPDEST SWAP2 POP PUSH2 0x59EF DUP3 PUSH2 0x6E34 JUMP JUMPDEST PUSH1 0x40 DUP3 ADD SWAP1 POP SWAP2 SWAP1 POP JUMP JUMPDEST PUSH1 0x0 PUSH2 0x5A07 PUSH1 0x20 DUP4 PUSH2 0x63FF JUMP JUMPDEST SWAP2 POP PUSH2 0x5A12 DUP3 PUSH2 0x6E83 JUMP JUMPDEST PUSH1 0x20 DUP3 ADD SWAP1 POP SWAP2 SWAP1 POP JUMP JUMPDEST PUSH1 0x0 PUSH2 0x5A2A PUSH1 0x15 DUP4 PUSH2 0x63FF JUMP JUMPDEST SWAP2 POP PUSH2 0x5A35 DUP3 PUSH2 0x6EAC JUMP JUMPDEST PUSH1 0x20 DUP3 ADD SWAP1 POP SWAP2 SWAP1 POP JUMP JUMPDEST PUSH1 0x0 PUSH2 0x5A4D PUSH1 0x2B DUP4 PUSH2 0x63FF JUMP JUMPDEST SWAP2 POP PUSH2 0x5A58 DUP3 PUSH2 0x6ED5 JUMP JUMPDEST PUSH1 0x40 DUP3 ADD SWAP1 POP SWAP2 SWAP1 POP JUMP JUMPDEST PUSH1 0x0 PUSH2 0x5A70 PUSH1 0x23 DUP4 PUSH2 0x63FF JUMP JUMPDEST SWAP2 POP PUSH2 0x5A7B DUP3 PUSH2 0x6F24 JUMP JUMPDEST PUSH1 0x40 DUP3 ADD SWAP1 POP SWAP2 SWAP1 POP JUMP JUMPDEST PUSH1 0x0 PUSH2 0x5A93 PUSH1 0x0 DUP4 PUSH2 0x63F4 JUMP JUMPDEST SWAP2 POP PUSH2 0x5A9E DUP3 PUSH2 0x6F73 JUMP JUMPDEST PUSH1 0x0 DUP3 ADD SWAP1 POP SWAP2 SWAP1 POP JUMP JUMPDEST PUSH1 0x0 PUSH2 0x5AB6 PUSH1 0x29 DUP4 PUSH2 0x63FF JUMP JUMPDEST SWAP2 POP PUSH2 0x5AC1 DUP3 PUSH2 0x6F76 JUMP JUMPDEST PUSH1 0x40 DUP3 ADD SWAP1 POP SWAP2 SWAP1 POP JUMP JUMPDEST PUSH1 0x0 PUSH2 0x5AD9 PUSH1 0x2A DUP4 PUSH2 0x63FF JUMP JUMPDEST SWAP2 POP PUSH2 0x5AE4 DUP3 PUSH2 0x6FC5 JUMP JUMPDEST PUSH1 0x40 DUP3 ADD SWAP1 POP SWAP2 SWAP1 POP JUMP JUMPDEST PUSH1 0x0 PUSH2 0x5AFC PUSH1 0x28 DUP4 PUSH2 0x63FF JUMP JUMPDEST SWAP2 POP PUSH2 0x5B07 DUP3 PUSH2 0x7014 JUMP JUMPDEST PUSH1 0x40 DUP3 ADD SWAP1 POP SWAP2 SWAP1 POP JUMP JUMPDEST PUSH1 0x0 PUSH2 0x5B1F PUSH1 0x29 DUP4 PUSH2 0x63FF JUMP JUMPDEST SWAP2 POP PUSH2 0x5B2A DUP3 PUSH2 0x7063 JUMP JUMPDEST PUSH1 0x40 DUP3 ADD SWAP1 POP SWAP2 SWAP1 POP JUMP JUMPDEST PUSH1 0x0 PUSH2 0x5B42 PUSH1 0x29 DUP4 PUSH2 0x63FF JUMP JUMPDEST SWAP2 POP PUSH2 0x5B4D DUP3 PUSH2 0x70B2 JUMP JUMPDEST PUSH1 0x40 DUP3 ADD SWAP1 POP SWAP2 SWAP1 POP JUMP JUMPDEST PUSH1 0x0 PUSH2 0x5B65 PUSH1 0x17 DUP4 PUSH2 0x63FF JUMP JUMPDEST SWAP2 POP PUSH2 0x5B70 DUP3 PUSH2 0x7101 JUMP JUMPDEST PUSH1 0x20 DUP3 ADD SWAP1 POP SWAP2 SWAP1 POP JUMP JUMPDEST PUSH1 0x0 PUSH2 0x5B88 PUSH1 0x28 DUP4 PUSH2 0x63FF JUMP JUMPDEST SWAP2 POP PUSH2 0x5B93 DUP3 PUSH2 0x712A JUMP JUMPDEST PUSH1 0x40 DUP3 ADD SWAP1 POP SWAP2 SWAP1 POP JUMP JUMPDEST PUSH1 0x0 PUSH2 0x5BAB PUSH1 0x21 DUP4 PUSH2 0x63FF JUMP JUMPDEST SWAP2 POP PUSH2 0x5BB6 DUP3 PUSH2 0x7179 JUMP JUMPDEST PUSH1 0x40 DUP3 ADD SWAP1 POP SWAP2 SWAP1 POP JUMP JUMPDEST PUSH2 0x5BCA DUP2 PUSH2 0x65A1 JUMP JUMPDEST DUP3 MSTORE POP POP JUMP JUMPDEST PUSH2 0x5BD9 DUP2 PUSH2 0x65A1 JUMP JUMPDEST DUP3 MSTORE POP POP JUMP JUMPDEST PUSH1 0x0 PUSH2 0x5BEA DUP3 PUSH2 0x5A86 JUMP JUMPDEST SWAP2 POP DUP2 SWAP1 POP SWAP2 SWAP1 POP JUMP JUMPDEST PUSH1 0x0 PUSH1 0x20 DUP3 ADD SWAP1 POP PUSH2 0x5C09 PUSH1 0x0 DUP4 ADD DUP5 PUSH2 0x5548 JUMP JUMPDEST SWAP3 SWAP2 POP POP JUMP JUMPDEST PUSH1 0x0 PUSH1 0x20 DUP3 ADD SWAP1 POP PUSH2 0x5C24 PUSH1 0x0 DUP4 ADD DUP5 PUSH2 0x552A JUMP JUMPDEST SWAP3 SWAP2 POP POP JUMP JUMPDEST PUSH1 0x0 PUSH1 0xA0 DUP3 ADD SWAP1 POP PUSH2 0x5C3F PUSH1 0x0 DUP4 ADD DUP9 PUSH2 0x5548 JUMP JUMPDEST PUSH2 0x5C4C PUSH1 0x20 DUP4 ADD DUP8 PUSH2 0x5548 JUMP JUMPDEST DUP2 DUP2 SUB PUSH1 0x40 DUP4 ADD MSTORE PUSH2 0x5C5E DUP2 DUP7 PUSH2 0x55B5 JUMP JUMPDEST SWAP1 POP DUP2 DUP2 SUB PUSH1 0x60 DUP4 ADD MSTORE PUSH2 0x5C72 DUP2 DUP6 PUSH2 0x55B5 JUMP JUMPDEST SWAP1 POP DUP2 DUP2 SUB PUSH1 0x80 DUP4 ADD MSTORE PUSH2 0x5C86 DUP2 DUP5 PUSH2 0x5622 JUMP JUMPDEST SWAP1 POP SWAP7 SWAP6 POP POP POP POP POP POP JUMP JUMPDEST PUSH1 0x0 PUSH1 0xA0 DUP3 ADD SWAP1 POP PUSH2 0x5CA7 PUSH1 0x0 DUP4 ADD DUP9 PUSH2 0x5548 JUMP JUMPDEST PUSH2 0x5CB4 PUSH1 0x20 DUP4 ADD DUP8 PUSH2 0x5548 JUMP JUMPDEST PUSH2 0x5CC1 PUSH1 0x40 DUP4 ADD DUP7 PUSH2 0x5BD0 JUMP JUMPDEST PUSH2 0x5CCE PUSH1 0x60 DUP4 ADD DUP6 PUSH2 0x5BD0 JUMP JUMPDEST DUP2 DUP2 SUB PUSH1 0x80 DUP4 ADD MSTORE PUSH2 0x5CE0 DUP2 DUP5 PUSH2 0x5622 JUMP JUMPDEST SWAP1 POP SWAP7 SWAP6 POP POP POP POP POP POP JUMP JUMPDEST PUSH1 0x0 PUSH1 0x20 DUP3 ADD SWAP1 POP DUP2 DUP2 SUB PUSH1 0x0 DUP4 ADD MSTORE PUSH2 0x5D06 DUP2 DUP5 PUSH2 0x55B5 JUMP JUMPDEST SWAP1 POP SWAP3 SWAP2 POP POP JUMP JUMPDEST PUSH1 0x0 PUSH1 0x40 DUP3 ADD SWAP1 POP DUP2 DUP2 SUB PUSH1 0x0 DUP4 ADD MSTORE PUSH2 0x5D28 DUP2 DUP6 PUSH2 0x55B5 JUMP JUMPDEST SWAP1 POP DUP2 DUP2 SUB PUSH1 0x20 DUP4 ADD MSTORE PUSH2 0x5D3C DUP2 DUP5 PUSH2 0x55B5 JUMP JUMPDEST SWAP1 POP SWAP4 SWAP3 POP POP POP JUMP JUMPDEST PUSH1 0x0 PUSH1 0x20 DUP3 ADD SWAP1 POP PUSH2 0x5D5A PUSH1 0x0 DUP4 ADD DUP5 PUSH2 0x5613 JUMP JUMPDEST SWAP3 SWAP2 POP POP JUMP JUMPDEST PUSH1 0x0 PUSH1 0x20 DUP3 ADD SWAP1 POP PUSH2 0x5D75 PUSH1 0x0 DUP4 ADD DUP5 PUSH2 0x565B JUMP JUMPDEST SWAP3 SWAP2 POP POP JUMP JUMPDEST PUSH1 0x0 PUSH1 0x80 DUP3 ADD SWAP1 POP PUSH2 0x5D90 PUSH1 0x0 DUP4 ADD DUP8 PUSH2 0x566A JUMP JUMPDEST DUP2 DUP2 SUB PUSH1 0x20 DUP4 ADD MSTORE PUSH2 0x5DA2 DUP2 DUP7 PUSH2 0x5557 JUMP JUMPDEST SWAP1 POP PUSH2 0x5DB1 PUSH1 0x40 DUP4 ADD DUP6 PUSH2 0x5548 JUMP JUMPDEST PUSH2 0x5DBE PUSH1 0x60 DUP4 ADD DUP5 PUSH2 0x5BD0 JUMP JUMPDEST SWAP6 SWAP5 POP POP POP POP POP JUMP JUMPDEST PUSH1 0x0 PUSH1 0x20 DUP3 ADD SWAP1 POP DUP2 DUP2 SUB PUSH1 0x0 DUP4 ADD MSTORE PUSH2 0x5DE1 DUP2 DUP5 PUSH2 0x5679 JUMP JUMPDEST SWAP1 POP SWAP3 SWAP2 POP POP JUMP JUMPDEST PUSH1 0x0 PUSH1 0x20 DUP3 ADD SWAP1 POP DUP2 DUP2 SUB PUSH1 0x0 DUP4 ADD MSTORE PUSH2 0x5E02 DUP2 PUSH2 0x56B2 JUMP JUMPDEST SWAP1 POP SWAP2 SWAP1 POP JUMP JUMPDEST PUSH1 0x0 PUSH1 0x20 DUP3 ADD SWAP1 POP DUP2 DUP2 SUB PUSH1 0x0 DUP4 ADD MSTORE PUSH2 0x5E22 DUP2 PUSH2 0x56D5 JUMP JUMPDEST SWAP1 POP SWAP2 SWAP1 POP JUMP JUMPDEST PUSH1 0x0 PUSH1 0x20 DUP3 ADD SWAP1 POP DUP2 DUP2 SUB PUSH1 0x0 DUP4 ADD MSTORE PUSH2 0x5E42 DUP2 PUSH2 0x56F8 JUMP JUMPDEST SWAP1 POP SWAP2 SWAP1 POP JUMP JUMPDEST PUSH1 0x0 PUSH1 0x20 DUP3 ADD SWAP1 POP DUP2 DUP2 SUB PUSH1 0x0 DUP4 ADD MSTORE PUSH2 0x5E62 DUP2 PUSH2 0x571B JUMP JUMPDEST SWAP1 POP SWAP2 SWAP1 POP JUMP JUMPDEST PUSH1 0x0 PUSH1 0x20 DUP3 ADD SWAP1 POP DUP2 DUP2 SUB PUSH1 0x0 DUP4 ADD MSTORE PUSH2 0x5E82 DUP2 PUSH2 0x573E JUMP JUMPDEST SWAP1 POP SWAP2 SWAP1 POP JUMP JUMPDEST PUSH1 0x0 PUSH1 0x20 DUP3 ADD SWAP1 POP DUP2 DUP2 SUB PUSH1 0x0 DUP4 ADD MSTORE PUSH2 0x5EA2 DUP2 PUSH2 0x5761 JUMP JUMPDEST SWAP1 POP SWAP2 SWAP1 POP JUMP JUMPDEST PUSH1 0x0 PUSH1 0x20 DUP3 ADD SWAP1 POP DUP2 DUP2 SUB PUSH1 0x0 DUP4 ADD MSTORE PUSH2 0x5EC2 DUP2 PUSH2 0x5784 JUMP JUMPDEST SWAP1 POP SWAP2 SWAP1 POP JUMP JUMPDEST PUSH1 0x0 PUSH1 0x20 DUP3 ADD SWAP1 POP DUP2 DUP2 SUB PUSH1 0x0 DUP4 ADD MSTORE PUSH2 0x5EE2 DUP2 PUSH2 0x57A7 JUMP JUMPDEST SWAP1 POP SWAP2 SWAP1 POP JUMP JUMPDEST PUSH1 0x0 PUSH1 0x20 DUP3 ADD SWAP1 POP DUP2 DUP2 SUB PUSH1 0x0 DUP4 ADD MSTORE PUSH2 0x5F02 DUP2 PUSH2 0x57CA JUMP JUMPDEST SWAP1 POP SWAP2 SWAP1 POP JUMP JUMPDEST PUSH1 0x0 PUSH1 0x20 DUP3 ADD SWAP1 POP DUP2 DUP2 SUB PUSH1 0x0 DUP4 ADD MSTORE PUSH2 0x5F22 DUP2 PUSH2 0x57ED JUMP JUMPDEST SWAP1 POP SWAP2 SWAP1 POP JUMP JUMPDEST PUSH1 0x0 PUSH1 0x20 DUP3 ADD SWAP1 POP DUP2 DUP2 SUB PUSH1 0x0 DUP4 ADD MSTORE PUSH2 0x5F42 DUP2 PUSH2 0x5810 JUMP JUMPDEST SWAP1 POP SWAP2 SWAP1 POP JUMP JUMPDEST PUSH1 0x0 PUSH1 0x20 DUP3 ADD SWAP1 POP DUP2 DUP2 SUB PUSH1 0x0 DUP4 ADD MSTORE PUSH2 0x5F62 DUP2 PUSH2 0x5833 JUMP JUMPDEST SWAP1 POP SWAP2 SWAP1 POP JUMP JUMPDEST PUSH1 0x0 PUSH1 0x20 DUP3 ADD SWAP1 POP DUP2 DUP2 SUB PUSH1 0x0 DUP4 ADD MSTORE PUSH2 0x5F82 DUP2 PUSH2 0x5856 JUMP JUMPDEST SWAP1 POP SWAP2 SWAP1 POP JUMP JUMPDEST PUSH1 0x0 PUSH1 0x20 DUP3 ADD SWAP1 POP DUP2 DUP2 SUB PUSH1 0x0 DUP4 ADD MSTORE PUSH2 0x5FA2 DUP2 PUSH2 0x5879 JUMP JUMPDEST SWAP1 POP SWAP2 SWAP1 POP JUMP JUMPDEST PUSH1 0x0 PUSH1 0x20 DUP3 ADD SWAP1 POP DUP2 DUP2 SUB PUSH1 0x0 DUP4 ADD MSTORE PUSH2 0x5FC2 DUP2 PUSH2 0x589C JUMP JUMPDEST SWAP1 POP SWAP2 SWAP1 POP JUMP JUMPDEST PUSH1 0x0 PUSH1 0x20 DUP3 ADD SWAP1 POP DUP2 DUP2 SUB PUSH1 0x0 DUP4 ADD MSTORE PUSH2 0x5FE2 DUP2 PUSH2 0x58BF JUMP JUMPDEST SWAP1 POP SWAP2 SWAP1 POP JUMP JUMPDEST PUSH1 0x0 PUSH1 0x20 DUP3 ADD SWAP1 POP DUP2 DUP2 SUB PUSH1 0x0 DUP4 ADD MSTORE PUSH2 0x6002 DUP2 PUSH2 0x58E2 JUMP JUMPDEST SWAP1 POP SWAP2 SWAP1 POP JUMP JUMPDEST PUSH1 0x0 PUSH1 0x20 DUP3 ADD SWAP1 POP DUP2 DUP2 SUB PUSH1 0x0 DUP4 ADD MSTORE PUSH2 0x6022 DUP2 PUSH2 0x5905 JUMP JUMPDEST SWAP1 POP SWAP2 SWAP1 POP JUMP JUMPDEST PUSH1 0x0 PUSH1 0x20 DUP3 ADD SWAP1 POP DUP2 DUP2 SUB PUSH1 0x0 DUP4 ADD MSTORE PUSH2 0x6042 DUP2 PUSH2 0x5928 JUMP JUMPDEST SWAP1 POP SWAP2 SWAP1 POP JUMP JUMPDEST PUSH1 0x0 PUSH1 0x20 DUP3 ADD SWAP1 POP DUP2 DUP2 SUB PUSH1 0x0 DUP4 ADD MSTORE PUSH2 0x6062 DUP2 PUSH2 0x594B JUMP JUMPDEST SWAP1 POP SWAP2 SWAP1 POP JUMP JUMPDEST PUSH1 0x0 PUSH1 0x20 DUP3 ADD SWAP1 POP DUP2 DUP2 SUB PUSH1 0x0 DUP4 ADD MSTORE PUSH2 0x6082 DUP2 PUSH2 0x596E JUMP JUMPDEST SWAP1 POP SWAP2 SWAP1 POP JUMP JUMPDEST PUSH1 0x0 PUSH1 0x20 DUP3 ADD SWAP1 POP DUP2 DUP2 SUB PUSH1 0x0 DUP4 ADD MSTORE PUSH2 0x60A2 DUP2 PUSH2 0x5991 JUMP JUMPDEST SWAP1 POP SWAP2 SWAP1 POP JUMP JUMPDEST PUSH1 0x0 PUSH1 0x20 DUP3 ADD SWAP1 POP DUP2 DUP2 SUB PUSH1 0x0 DUP4 ADD MSTORE PUSH2 0x60C2 DUP2 PUSH2 0x59B4 JUMP JUMPDEST SWAP1 POP SWAP2 SWAP1 POP JUMP JUMPDEST PUSH1 0x0 PUSH1 0x20 DUP3 ADD SWAP1 POP DUP2 DUP2 SUB PUSH1 0x0 DUP4 ADD MSTORE PUSH2 0x60E2 DUP2 PUSH2 0x59D7 JUMP JUMPDEST SWAP1 POP SWAP2 SWAP1 POP JUMP JUMPDEST PUSH1 0x0 PUSH1 0x20 DUP3 ADD SWAP1 POP DUP2 DUP2 SUB PUSH1 0x0 DUP4 ADD MSTORE PUSH2 0x6102 DUP2 PUSH2 0x59FA JUMP JUMPDEST SWAP1 POP SWAP2 SWAP1 POP JUMP JUMPDEST PUSH1 0x0 PUSH1 0x20 DUP3 ADD SWAP1 POP DUP2 DUP2 SUB PUSH1 0x0 DUP4 ADD MSTORE PUSH2 0x6122 DUP2 PUSH2 0x5A1D JUMP JUMPDEST SWAP1 POP SWAP2 SWAP1 POP JUMP JUMPDEST PUSH1 0x0 PUSH1 0x20 DUP3 ADD SWAP1 POP DUP2 DUP2 SUB PUSH1 0x0 DUP4 ADD MSTORE PUSH2 0x6142 DUP2 PUSH2 0x5A40 JUMP JUMPDEST SWAP1 POP SWAP2 SWAP1 POP JUMP JUMPDEST PUSH1 0x0 PUSH1 0x20 DUP3 ADD SWAP1 POP DUP2 DUP2 SUB PUSH1 0x0 DUP4 ADD MSTORE PUSH2 0x6162 DUP2 PUSH2 0x5A63 JUMP JUMPDEST SWAP1 POP SWAP2 SWAP1 POP JUMP JUMPDEST PUSH1 0x0 PUSH1 0x20 DUP3 ADD SWAP1 POP DUP2 DUP2 SUB PUSH1 0x0 DUP4 ADD MSTORE PUSH2 0x6182 DUP2 PUSH2 0x5AA9 JUMP JUMPDEST SWAP1 POP SWAP2 SWAP1 POP JUMP JUMPDEST PUSH1 0x0 PUSH1 0x20 DUP3 ADD SWAP1 POP DUP2 DUP2 SUB PUSH1 0x0 DUP4 ADD MSTORE PUSH2 0x61A2 DUP2 PUSH2 0x5ACC JUMP JUMPDEST SWAP1 POP SWAP2 SWAP1 POP JUMP JUMPDEST PUSH1 0x0 PUSH1 0x20 DUP3 ADD SWAP1 POP DUP2 DUP2 SUB PUSH1 0x0 DUP4 ADD MSTORE PUSH2 0x61C2 DUP2 PUSH2 0x5AEF JUMP JUMPDEST SWAP1 POP SWAP2 SWAP1 POP JUMP JUMPDEST PUSH1 0x0 PUSH1 0x20 DUP3 ADD SWAP1 POP DUP2 DUP2 SUB PUSH1 0x0 DUP4 ADD MSTORE PUSH2 0x61E2 DUP2 PUSH2 0x5B12 JUMP JUMPDEST SWAP1 POP SWAP2 SWAP1 POP JUMP JUMPDEST PUSH1 0x0 PUSH1 0x20 DUP3 ADD SWAP1 POP DUP2 DUP2 SUB PUSH1 0x0 DUP4 ADD MSTORE PUSH2 0x6202 DUP2 PUSH2 0x5B35 JUMP JUMPDEST SWAP1 POP SWAP2 SWAP1 POP JUMP JUMPDEST PUSH1 0x0 PUSH1 0x20 DUP3 ADD SWAP1 POP DUP2 DUP2 SUB PUSH1 0x0 DUP4 ADD MSTORE PUSH2 0x6222 DUP2 PUSH2 0x5B58 JUMP JUMPDEST SWAP1 POP SWAP2 SWAP1 POP JUMP JUMPDEST PUSH1 0x0 PUSH1 0x20 DUP3 ADD SWAP1 POP DUP2 DUP2 SUB PUSH1 0x0 DUP4 ADD MSTORE PUSH2 0x6242 DUP2 PUSH2 0x5B7B JUMP JUMPDEST SWAP1 POP SWAP2 SWAP1 POP JUMP JUMPDEST PUSH1 0x0 PUSH1 0x20 DUP3 ADD SWAP1 POP DUP2 DUP2 SUB PUSH1 0x0 DUP4 ADD MSTORE PUSH2 0x6262 DUP2 PUSH2 0x5B9E JUMP JUMPDEST SWAP1 POP SWAP2 SWAP1 POP JUMP JUMPDEST PUSH1 0x0 PUSH1 0x20 DUP3 ADD SWAP1 POP PUSH2 0x627E PUSH1 0x0 DUP4 ADD DUP5 PUSH2 0x5BD0 JUMP JUMPDEST SWAP3 SWAP2 POP POP JUMP JUMPDEST PUSH1 0x0 PUSH1 0x40 DUP3 ADD SWAP1 POP PUSH2 0x6299 PUSH1 0x0 DUP4 ADD DUP6 PUSH2 0x5BD0 JUMP JUMPDEST PUSH2 0x62A6 PUSH1 0x20 DUP4 ADD DUP5 PUSH2 0x5BD0 JUMP JUMPDEST SWAP4 SWAP3 POP POP POP JUMP JUMPDEST PUSH1 0x0 PUSH2 0x62B7 PUSH2 0x62C8 JUMP JUMPDEST SWAP1 POP PUSH2 0x62C3 DUP3 DUP3 PUSH2 0x6667 JUMP JUMPDEST SWAP2 SWAP1 POP JUMP JUMPDEST PUSH1 0x0 PUSH1 0x40 MLOAD SWAP1 POP SWAP1 JUMP JUMPDEST PUSH1 0x0 PUSH8 0xFFFFFFFFFFFFFFFF DUP3 GT ISZERO PUSH2 0x62ED JUMPI PUSH2 0x62EC PUSH2 0x679D JUMP JUMPDEST JUMPDEST PUSH1 0x20 DUP3 MUL SWAP1 POP PUSH1 0x20 DUP2 ADD SWAP1 POP SWAP2 SWAP1 POP JUMP JUMPDEST PUSH1 0x0 PUSH8 0xFFFFFFFFFFFFFFFF DUP3 GT ISZERO PUSH2 0x6319 JUMPI PUSH2 0x6318 PUSH2 0x679D JUMP JUMPDEST JUMPDEST PUSH1 0x20 DUP3 MUL SWAP1 POP PUSH1 0x20 DUP2 ADD SWAP1 POP SWAP2 SWAP1 POP JUMP JUMPDEST PUSH1 0x0 PUSH8 0xFFFFFFFFFFFFFFFF DUP3 GT ISZERO PUSH2 0x6345 JUMPI PUSH2 0x6344 PUSH2 0x679D JUMP JUMPDEST JUMPDEST PUSH2 0x634E DUP3 PUSH2 0x6807 JUMP JUMPDEST SWAP1 POP PUSH1 0x20 DUP2 ADD SWAP1 POP SWAP2 SWAP1 POP JUMP JUMPDEST PUSH1 0x0 DUP2 SWAP1 POP PUSH1 0x20 DUP3 ADD SWAP1 POP SWAP2 SWAP1 POP JUMP JUMPDEST PUSH1 0x0 DUP2 SWAP1 POP PUSH1 0x20 DUP3 ADD SWAP1 POP SWAP2 SWAP1 POP JUMP JUMPDEST PUSH1 0x0 DUP2 MLOAD SWAP1 POP SWAP2 SWAP1 POP JUMP JUMPDEST PUSH1 0x0 DUP2 MLOAD SWAP1 POP SWAP2 SWAP1 POP JUMP JUMPDEST PUSH1 0x0 DUP2 MLOAD SWAP1 POP SWAP2 SWAP1 POP JUMP JUMPDEST PUSH1 0x0 DUP2 MLOAD SWAP1 POP SWAP2 SWAP1 POP JUMP JUMPDEST PUSH1 0x0 PUSH1 0x20 DUP3 ADD SWAP1 POP SWAP2 SWAP1 POP JUMP JUMPDEST PUSH1 0x0 PUSH1 0x20 DUP3 ADD SWAP1 POP SWAP2 SWAP1 POP JUMP JUMPDEST PUSH1 0x0 DUP3 DUP3 MSTORE PUSH1 0x20 DUP3 ADD SWAP1 POP SWAP3 SWAP2 POP POP JUMP JUMPDEST PUSH1 0x0 DUP3 DUP3 MSTORE PUSH1 0x20 DUP3 ADD SWAP1 POP SWAP3 SWAP2 POP POP JUMP JUMPDEST PUSH1 0x0 DUP3 DUP3 MSTORE PUSH1 0x20 DUP3 ADD SWAP1 POP SWAP3 SWAP2 POP POP JUMP JUMPDEST PUSH1 0x0 DUP2 SWAP1 POP SWAP3 SWAP2 POP POP JUMP JUMPDEST PUSH1 0x0 DUP3 DUP3 MSTORE PUSH1 0x20 DUP3 ADD SWAP1 POP SWAP3 SWAP2 POP POP JUMP JUMPDEST PUSH1 0x0 PUSH2 0x641B DUP3 PUSH2 0x65A1 JUMP JUMPDEST SWAP2 POP PUSH2 0x6426 DUP4 PUSH2 0x65A1 JUMP JUMPDEST SWAP3 POP DUP3 PUSH32 0xFFFFFFFFFFFFFFFFFFFFFFFFFFFFFFFFFFFFFFFFFFFFFFFFFFFFFFFFFFFFFFFF SUB DUP3 GT ISZERO PUSH2 0x645B JUMPI PUSH2 0x645A PUSH2 0x66E1 JUMP JUMPDEST JUMPDEST DUP3 DUP3 ADD SWAP1 POP SWAP3 SWAP2 POP POP JUMP JUMPDEST PUSH1 0x0 PUSH2 0x6471 DUP3 PUSH2 0x65A1 JUMP JUMPDEST SWAP2 POP PUSH2 0x647C DUP4 PUSH2 0x65A1 JUMP JUMPDEST SWAP3 POP DUP3 PUSH2 0x648C JUMPI PUSH2 0x648B PUSH2 0x6710 JUMP JUMPDEST JUMPDEST DUP3 DUP3 DIV SWAP1 POP SWAP3 SWAP2 POP POP JUMP JUMPDEST PUSH1 0x0 PUSH2 0x64A2 DUP3 PUSH2 0x65A1 JUMP JUMPDEST SWAP2 POP PUSH2 0x64AD DUP4 PUSH2 0x65A1 JUMP JUMPDEST SWAP3 POP DUP2 PUSH32 0xFFFFFFFFFFFFFFFFFFFFFFFFFFFFFFFFFFFFFFFFFFFFFFFFFFFFFFFFFFFFFFFF DIV DUP4 GT DUP3 ISZERO ISZERO AND ISZERO PUSH2 0x64E6 JUMPI PUSH2 0x64E5 PUSH2 0x66E1 JUMP JUMPDEST JUMPDEST DUP3 DUP3 MUL SWAP1 POP SWAP3 SWAP2 POP POP JUMP JUMPDEST PUSH1 0x0 PUSH2 0x64FC DUP3 PUSH2 0x65A1 JUMP JUMPDEST SWAP2 POP PUSH2 0x6507 DUP4 PUSH2 0x65A1 JUMP JUMPDEST SWAP3 POP DUP3 DUP3 LT ISZERO PUSH2 0x651A JUMPI PUSH2 0x6519 PUSH2 0x66E1 JUMP JUMPDEST JUMPDEST DUP3 DUP3 SUB SWAP1 POP SWAP3 SWAP2 POP POP JUMP JUMPDEST PUSH1 0x0 PUSH2 0x6530 DUP3 PUSH2 0x6581 JUMP JUMPDEST SWAP1 POP SWAP2 SWAP1 POP JUMP JUMPDEST PUSH1 0x0 PUSH2 0x6542 DUP3 PUSH2 0x6581 JUMP JUMPDEST SWAP1 POP SWAP2 SWAP1 POP JUMP JUMPDEST PUSH1 0x0 DUP2 ISZERO ISZERO SWAP1 POP SWAP2 SWAP1 POP JUMP JUMPDEST PUSH1 0x0 PUSH32 0xFFFFFFFF00000000000000000000000000000000000000000000000000000000 DUP3 AND SWAP1 POP SWAP2 SWAP1 POP JUMP JUMPDEST PUSH1 0x0 PUSH20 0xFFFFFFFFFFFFFFFFFFFFFFFFFFFFFFFFFFFFFFFF DUP3 AND SWAP1 POP SWAP2 SWAP1 POP JUMP JUMPDEST PUSH1 0x0 DUP2 SWAP1 POP SWAP2 SWAP1 POP JUMP JUMPDEST PUSH1 0x0 PUSH2 0x65B6 DUP3 PUSH2 0x65CF JUMP JUMPDEST SWAP1 POP SWAP2 SWAP1 POP JUMP JUMPDEST PUSH1 0x0 PUSH2 0x65C8 DUP3 PUSH2 0x65A1 JUMP JUMPDEST SWAP1 POP SWAP2 SWAP1 POP JUMP JUMPDEST PUSH1 0x0 PUSH2 0x65DA DUP3 PUSH2 0x65E1 JUMP JUMPDEST SWAP1 POP SWAP2 SWAP1 POP JUMP JUMPDEST PUSH1 0x0 PUSH2 0x65EC DUP3 PUSH2 0x6581 JUMP JUMPDEST SWAP1 POP SWAP2 SWAP1 POP JUMP JUMPDEST DUP3 DUP2 DUP4 CALLDATACOPY PUSH1 0x0 DUP4 DUP4 ADD MSTORE POP POP POP JUMP JUMPDEST PUSH1 0x0 JUMPDEST DUP4 DUP2 LT ISZERO PUSH2 0x6620 JUMPI DUP1 DUP3 ADD MLOAD DUP2 DUP5 ADD MSTORE PUSH1 0x20 DUP2 ADD SWAP1 POP PUSH2 0x6605 JUMP JUMPDEST DUP4 DUP2 GT ISZERO PUSH2 0x662F JUMPI PUSH1 0x0 DUP5 DUP5 ADD MSTORE JUMPDEST POP POP POP POP JUMP JUMPDEST PUSH1 0x0 PUSH1 0x2 DUP3 DIV SWAP1 POP PUSH1 0x1 DUP3 AND DUP1 PUSH2 0x664D JUMPI PUSH1 0x7F DUP3 AND SWAP2 POP JUMPDEST PUSH1 0x20 DUP3 LT DUP2 EQ ISZERO PUSH2 0x6661 JUMPI PUSH2 0x6660 PUSH2 0x673F JUMP JUMPDEST JUMPDEST POP SWAP2 SWAP1 POP JUMP JUMPDEST PUSH2 0x6670 DUP3 PUSH2 0x6807 JUMP JUMPDEST DUP2 ADD DUP2 DUP2 LT PUSH8 0xFFFFFFFFFFFFFFFF DUP3 GT OR ISZERO PUSH2 0x668F JUMPI PUSH2 0x668E PUSH2 0x679D JUMP JUMPDEST JUMPDEST DUP1 PUSH1 0x40 MSTORE POP POP POP JUMP JUMPDEST PUSH1 0x0 PUSH2 0x66A3 DUP3 PUSH2 0x65A1 JUMP JUMPDEST SWAP2 POP PUSH32 0xFFFFFFFFFFFFFFFFFFFFFFFFFFFFFFFFFFFFFFFFFFFFFFFFFFFFFFFFFFFFFFFF DUP3 EQ ISZERO PUSH2 0x66D6 JUMPI PUSH2 0x66D5 PUSH2 0x66E1 JUMP JUMPDEST JUMPDEST PUSH1 0x1 DUP3 ADD SWAP1 POP SWAP2 SWAP1 POP JUMP JUMPDEST PUSH32 0x4E487B7100000000000000000000000000000000000000000000000000000000 PUSH1 0x0 MSTORE PUSH1 0x11 PUSH1 0x4 MSTORE PUSH1 0x24 PUSH1 0x0 REVERT JUMPDEST PUSH32 0x4E487B7100000000000000000000000000000000000000000000000000000000 PUSH1 0x0 MSTORE PUSH1 0x12 PUSH1 0x4 MSTORE PUSH1 0x24 PUSH1 0x0 REVERT JUMPDEST PUSH32 0x4E487B7100000000000000000000000000000000000000000000000000000000 PUSH1 0x0 MSTORE PUSH1 0x22 PUSH1 0x4 MSTORE PUSH1 0x24 PUSH1 0x0 REVERT JUMPDEST PUSH32 0x4E487B7100000000000000000000000000000000000000000000000000000000 PUSH1 0x0 MSTORE PUSH1 0x32 PUSH1 0x4 MSTORE PUSH1 0x24 PUSH1 0x0 REVERT JUMPDEST PUSH32 0x4E487B7100000000000000000000000000000000000000000000000000000000 PUSH1 0x0 MSTORE PUSH1 0x41 PUSH1 0x4 MSTORE PUSH1 0x24 PUSH1 0x0 REVERT JUMPDEST PUSH1 0x0 PUSH1 0x3 RETURNDATASIZE GT ISZERO PUSH2 0x67EB JUMPI PUSH1 0x4 PUSH1 0x0 DUP1 RETURNDATACOPY PUSH2 0x67E8 PUSH1 0x0 MLOAD PUSH2 0x6818 JUMP JUMPDEST SWAP1 POP JUMPDEST SWAP1 JUMP JUMPDEST PUSH1 0x0 DUP1 REVERT JUMPDEST PUSH1 0x0 DUP1 REVERT JUMPDEST PUSH1 0x0 DUP1 REVERT JUMPDEST PUSH1 0x0 DUP1 REVERT JUMPDEST PUSH1 0x0 DUP1 REVERT JUMPDEST PUSH1 0x0 PUSH1 0x1F NOT PUSH1 0x1F DUP4 ADD AND SWAP1 POP SWAP2 SWAP1 POP JUMP JUMPDEST PUSH1 0x0 DUP2 PUSH1 0xE0 SHR SWAP1 POP SWAP2 SWAP1 POP JUMP JUMPDEST PUSH32 0x455243313135353A207472616E7366657220746F206E6F6E2045524331313535 PUSH1 0x0 DUP3 ADD MSTORE PUSH32 0x526563656976657220696D706C656D656E746572000000000000000000000000 PUSH1 0x20 DUP3 ADD MSTORE POP JUMP JUMPDEST PUSH32 0x596F752063616E206E6F74206D696E74206D6F7265207468616E203220426162 PUSH1 0x0 DUP3 ADD MSTORE PUSH32 0x7920447261676F6E730000000000000000000000000000000000000000000000 PUSH1 0x20 DUP3 ADD MSTORE POP JUMP JUMPDEST PUSH32 0x455243313135353A2063616C6C6572206973206E6F7420746F6B656E206F776E PUSH1 0x0 DUP3 ADD MSTORE PUSH32 0x6572206E6F7220617070726F7665640000000000000000000000000000000000 PUSH1 0x20 DUP3 ADD MSTORE POP JUMP JUMPDEST PUSH32 0x455243313135353A204552433131353552656365697665722072656A65637465 PUSH1 0x0 DUP3 ADD MSTORE PUSH32 0x6420746F6B656E73000000000000000000000000000000000000000000000000 PUSH1 0x20 DUP3 ADD MSTORE POP JUMP JUMPDEST PUSH32 0x43616E6E6F7420726576697665206F6E2061207A65726F206164647265737300 PUSH1 0x0 DUP3 ADD MSTORE POP JUMP JUMPDEST PUSH32 0x4E6F20616464726573732063616E206F776E206D6F7265207468616E20343020 PUSH1 0x0 DUP3 ADD MSTORE PUSH32 0x6F6620616E79204E465400000000000000000000000000000000000000000000 PUSH1 0x20 DUP3 ADD MSTORE POP JUMP JUMPDEST PUSH32 0x43616E6E6F74206D696E7420746F2061207A65726F2061646472657373000000 PUSH1 0x0 DUP3 ADD MSTORE POP JUMP JUMPDEST PUSH32 0x4F776E61626C653A206E6577206F776E657220697320746865207A65726F2061 PUSH1 0x0 DUP3 ADD MSTORE PUSH32 0x6464726573730000000000000000000000000000000000000000000000000000 PUSH1 0x20 DUP3 ADD MSTORE POP JUMP JUMPDEST PUSH32 0x596F752063616E206E6F74206D696E74206D6F7265207468616E203330207374 PUSH1 0x0 DUP3 ADD MSTORE PUSH32 0x6F6E652077616C6C730000000000000000000000000000000000000000000000 PUSH1 0x20 DUP3 ADD MSTORE POP JUMP JUMPDEST PUSH32 0x4661696C656420746F206465706F7369746520746F206D61726B6574696E675F PUSH1 0x0 DUP3 ADD MSTORE PUSH32 0x636F6E7465737457616C6C657400000000000000000000000000000000000000 PUSH1 0x20 DUP3 ADD MSTORE POP JUMP JUMPDEST PUSH32 0x455243313135353A2061646472657373207A65726F206973206E6F7420612076 PUSH1 0x0 DUP3 ADD MSTORE PUSH32 0x616C6964206F776E657200000000000000000000000000000000000000000000 PUSH1 0x20 DUP3 ADD MSTORE POP JUMP JUMPDEST PUSH32 0x416D6F756E7420746F6F20736D616C6C20746F206D696E74206E667400000000 PUSH1 0x0 DUP3 ADD MSTORE POP JUMP JUMPDEST PUSH32 0x5075626C6963206D696E7420686173206E6F7420737461727465640000000000 PUSH1 0x0 DUP3 ADD MSTORE POP JUMP JUMPDEST PUSH32 0x4D696E7420616D6F756E74206E6F7420617661696C61626C6500000000000000 PUSH1 0x0 DUP3 ADD MSTORE POP JUMP JUMPDEST PUSH32 0x416D6F756E7420746F6F20736D616C6C20746F20726576697665206E66740000 PUSH1 0x0 DUP3 ADD MSTORE POP JUMP JUMPDEST PUSH32 0x596F752063616E206E6F74206D696E74206D6F7265207468616E203430206F66 PUSH1 0x0 DUP3 ADD MSTORE PUSH32 0x20616E79204E4654000000000000000000000000000000000000000000000000 PUSH1 0x20 DUP3 ADD MSTORE POP JUMP JUMPDEST PUSH32 0x4661696C656420746F207465616D2077616C6C65740000000000000000000000 PUSH1 0x0 DUP3 ADD MSTORE POP JUMP JUMPDEST PUSH32 0x596F752063616E206E6F74206D696E74206D6F7265207468616E20332044726F PUSH1 0x0 DUP3 ADD MSTORE PUSH32 0x6E65730000000000000000000000000000000000000000000000000000000000 PUSH1 0x20 DUP3 ADD MSTORE POP JUMP JUMPDEST PUSH32 0x596F752063616E206E6F74206D696E74206D6F7265207468616E203320476F6C PUSH1 0x0 DUP3 ADD MSTORE PUSH32 0x656D730000000000000000000000000000000000000000000000000000000000 PUSH1 0x20 DUP3 ADD MSTORE POP JUMP JUMPDEST PUSH32 0x455243313135353A207472616E7366657220746F20746865207A65726F206164 PUSH1 0x0 DUP3 ADD MSTORE PUSH32 0x6472657373000000000000000000000000000000000000000000000000000000 PUSH1 0x20 DUP3 ADD MSTORE POP JUMP JUMPDEST PUSH32 0x596F752063616E206E6F74206D696E74206D6F7265207468616E203220447261 PUSH1 0x0 DUP3 ADD MSTORE PUSH32 0x676F6E7300000000000000000000000000000000000000000000000000000000 PUSH1 0x20 DUP3 ADD MSTORE POP JUMP JUMPDEST PUSH32 0x596F752063616E206E6F74206D696E74206D6F7265207468616E2035206C616E PUSH1 0x0 DUP3 ADD MSTORE PUSH32 0x6400000000000000000000000000000000000000000000000000000000000000 PUSH1 0x20 DUP3 ADD MSTORE POP JUMP JUMPDEST PUSH32 0x455243313135353A20696E73756666696369656E742062616C616E636520666F PUSH1 0x0 DUP3 ADD MSTORE PUSH32 0x72207472616E7366657200000000000000000000000000000000000000000000 PUSH1 0x20 DUP3 ADD MSTORE POP JUMP JUMPDEST PUSH32 0x41646472657373206E6F742077686974656C697374656420666F72206D696E74 PUSH1 0x0 DUP3 ADD MSTORE PUSH32 0x696E670000000000000000000000000000000000000000000000000000000000 PUSH1 0x20 DUP3 ADD MSTORE POP JUMP JUMPDEST PUSH32 0x4F776E61626C653A2063616C6C6572206973206E6F7420746865206F776E6572 PUSH1 0x0 DUP3 ADD MSTORE POP JUMP JUMPDEST PUSH32 0x50726976617465206D696E7420697320656E6465640000000000000000000000 PUSH1 0x0 DUP3 ADD MSTORE POP JUMP JUMPDEST PUSH32 0x4E6F20616464726573732063616E206F776E206D6F7265207468616E20333020 PUSH1 0x0 DUP3 ADD MSTORE PUSH32 0x73746F6E652077616C6C73000000000000000000000000000000000000000000 PUSH1 0x20 DUP3 ADD MSTORE POP JUMP JUMPDEST PUSH32 0x4E6F20616464726573732063616E206F776E206D6F7265207468616E2035206C PUSH1 0x0 DUP3 ADD MSTORE PUSH32 0x616E640000000000000000000000000000000000000000000000000000000000 PUSH1 0x20 DUP3 ADD MSTORE POP JUMP JUMPDEST POP JUMP JUMPDEST PUSH32 0x596F752063616E206E6F74206D696E74206D6F7265207468616E203320477261 PUSH1 0x0 DUP3 ADD MSTORE PUSH32 0x6E642057617264656E0000000000000000000000000000000000000000000000 PUSH1 0x20 DUP3 ADD MSTORE POP JUMP JUMPDEST PUSH32 0x4E6F20616464726573732063616E206F776E206D6F7265207468616E20333020 PUSH1 0x0 DUP3 ADD MSTORE PUSH32 0x776F6F642077616C6C7300000000000000000000000000000000000000000000 PUSH1 0x20 DUP3 ADD MSTORE POP JUMP JUMPDEST PUSH32 0x596F752063616E206E6F74206D696E74206D6F7265207468616E20333020776F PUSH1 0x0 DUP3 ADD MSTORE PUSH32 0x6F642077616C6C73000000000000000000000000000000000000000000000000 PUSH1 0x20 DUP3 ADD MSTORE POP JUMP JUMPDEST PUSH32 0x455243313135353A2073657474696E6720617070726F76616C20737461747573 PUSH1 0x0 DUP3 ADD MSTORE PUSH32 0x20666F722073656C660000000000000000000000000000000000000000000000 PUSH1 0x20 DUP3 ADD MSTORE POP JUMP JUMPDEST PUSH32 0x455243313135353A206163636F756E747320616E6420696473206C656E677468 PUSH1 0x0 DUP3 ADD MSTORE PUSH32 0x206D69736D617463680000000000000000000000000000000000000000000000 PUSH1 0x20 DUP3 ADD MSTORE POP JUMP JUMPDEST PUSH32 0x4D696E74696E6720686173206E6F742073746172746564000000000000000000 PUSH1 0x0 DUP3 ADD MSTORE POP JUMP JUMPDEST PUSH32 0x455243313135353A2069647320616E6420616D6F756E7473206C656E67746820 PUSH1 0x0 DUP3 ADD MSTORE PUSH32 0x6D69736D61746368000000000000000000000000000000000000000000000000 PUSH1 0x20 DUP3 ADD MSTORE POP JUMP JUMPDEST PUSH32 0x455243313135353A206D696E7420746F20746865207A65726F20616464726573 PUSH1 0x0 DUP3 ADD MSTORE PUSH32 0x7300000000000000000000000000000000000000000000000000000000000000 PUSH1 0x20 DUP3 ADD MSTORE POP JUMP JUMPDEST PUSH1 0x0 PUSH1 0x44 RETURNDATASIZE LT ISZERO PUSH2 0x71D8 JUMPI PUSH2 0x725B JUMP JUMPDEST PUSH2 0x71E0 PUSH2 0x62C8 JUMP JUMPDEST PUSH1 0x4 RETURNDATASIZE SUB PUSH1 0x4 DUP3 RETURNDATACOPY DUP1 MLOAD RETURNDATASIZE PUSH1 0x24 DUP3 ADD GT PUSH8 0xFFFFFFFFFFFFFFFF DUP3 GT OR ISZERO PUSH2 0x7208 JUMPI POP POP PUSH2 0x725B JUMP JUMPDEST DUP1 DUP3 ADD DUP1 MLOAD PUSH8 0xFFFFFFFFFFFFFFFF DUP2 GT ISZERO PUSH2 0x7226 JUMPI POP POP POP POP PUSH2 0x725B JUMP JUMPDEST DUP1 PUSH1 0x20 DUP4 ADD ADD PUSH1 0x4 RETURNDATASIZE SUB DUP6 ADD DUP2 GT ISZERO PUSH2 0x7243 JUMPI POP POP POP POP POP PUSH2 0x725B JUMP JUMPDEST PUSH2 0x7252 DUP3 PUSH1 0x20 ADD DUP6 ADD DUP7 PUSH2 0x6667 JUMP JUMPDEST DUP3 SWAP6 POP POP POP POP POP POP JUMPDEST SWAP1 JUMP JUMPDEST PUSH2 0x7267 DUP2 PUSH2 0x6525 JUMP JUMPDEST DUP2 EQ PUSH2 0x7272 JUMPI PUSH1 0x0 DUP1 REVERT JUMPDEST POP JUMP JUMPDEST PUSH2 0x727E DUP2 PUSH2 0x6549 JUMP JUMPDEST DUP2 EQ PUSH2 0x7289 JUMPI PUSH1 0x0 DUP1 REVERT JUMPDEST POP JUMP JUMPDEST PUSH2 0x7295 DUP2 PUSH2 0x6555 JUMP JUMPDEST DUP2 EQ PUSH2 0x72A0 JUMPI PUSH1 0x0 DUP1 REVERT JUMPDEST POP JUMP JUMPDEST PUSH2 0x72AC DUP2 PUSH2 0x65A1 JUMP JUMPDEST DUP2 EQ PUSH2 0x72B7 JUMPI PUSH1 0x0 DUP1 REVERT JUMPDEST POP JUMP INVALID LOG2 PUSH5 0x6970667358 0x22 SLT KECCAK256 SELFBALANCE MUL MULMOD 0xEB 0x28 0xEC 0xF9 DUP8 STATICCALL 0xF9 PUSH22 0x89444846A37A66B1E82FAFA5F891D75AFC4E2AAEBF64 PUSH20 0x6F6C6343000807003368747470733A2F2F677265 PUSH6 0x647976657273 PUSH6 0x2E636F2F6170 PUSH10 0x2F6765744E66744D6574 PUSH2 0x4461 PUSH21 0x612E7068703F69643D7B69647D0000000000000000 "
		},
		"gasEstimates": {
			"creation": {
				"codeDepositCost": "5884800",
				"executionCost": "infinite",
				"totalCost": "infinite"
			},
			"external": {
				"MaxBabyDragon_per_player()": "2474",
				"MaxDragon_per_player()": "2518",
				"MaxDrone_per_player()": "2584",
				"MaxGolem_per_player()": "2561",
				"MaxGrandWarden_per_player()": "2562",
				"MaxLand_per_player()": "2475",
				"MaxStoneWall_per_player()": "2584",
				"MaxWoodWall_per_player()": "2519",
				"Mint()": "2627",
				"PublicMint()": "2675",
				"addToWhiteList(address)": "27144",
				"balanceOf(address,uint256)": "infinite",
				"balanceOfBatch(address[],uint256[])": "infinite",
				"endMint()": "26766",
				"endPrivatetMint()": "26792",
				"gameDevWallet()": "2670",
				"getPlayerNftAmount(address,uint256)": "infinite",
				"getPlayerNftCount(address,uint256)": "infinite",
				"getPlayerNftTotalHealth(address,uint256)": "infinite",
				"holders(address,uint256)": "infinite",
				"isApprovedForAll(address,address)": "infinite",
				"marketing_contestWallet()": "2603",
				"maxNftsAmount(uint256)": "infinite",
				"mint(uint256,uint256)": "infinite",
				"mintedNftsAmount(uint256)": "infinite",
				"name()": "infinite",
				"nftMintPrice(uint256)": "infinite",
				"owner()": "2677",
				"pancakeswapV2Router()": "infinite",
				"payWinnings(uint256[],uint256[],address,address)": "infinite",
				"removeFromWhiteList(address)": "27189",
				"renounceOwnership()": "30509",
				"revive(uint256,uint256)": "infinite",
				"safeBatchTransferFrom(address,address,uint256[],uint256[],bytes)": "infinite",
				"safeTransferFrom(address,address,uint256,uint256,bytes)": "infinite",
				"setApprovalForAll(address,bool)": "infinite",
				"singlePlayeramount(address,uint256)": "infinite",
				"spMaxNftAmount_perNft()": "2476",
				"starPrivatetMint()": "26792",
				"startMint()": "26787",
				"supportsInterface(bytes4)": "908",
				"symbol()": "infinite",
				"teamWallet()": "2559",
				"transferOwnership(address)": "30835",
				"uri(uint256)": "infinite",
				"whiteListMint(uint256,uint256)": "infinite"
			},
			"internal": {
				"_mint(uint256,uint256)": "infinite",
				"depositeProceeds(uint256)": "infinite",
				"swapETHForTokens(uint256,address)": "infinite"
			}
		},
		"methodIdentifiers": {
			"MaxBabyDragon_per_player()": "b3bc6c8f",
			"MaxDragon_per_player()": "b903b07d",
			"MaxDrone_per_player()": "edd43c9f",
			"MaxGolem_per_player()": "f6361c9d",
			"MaxGrandWarden_per_player()": "c48d6fc7",
			"MaxLand_per_player()": "37cacee7",
			"MaxStoneWall_per_player()": "caa9f716",
			"MaxWoodWall_per_player()": "a6c808ff",
			"Mint()": "34c73884",
			"PublicMint()": "fe1881c4",
			"addToWhiteList(address)": "47ee0394",
			"balanceOf(address,uint256)": "00fdd58e",
			"balanceOfBatch(address[],uint256[])": "4e1273f4",
			"endMint()": "017043a5",
			"endPrivatetMint()": "d9397adc",
			"gameDevWallet()": "5784e7da",
			"getPlayerNftAmount(address,uint256)": "afa85e32",
			"getPlayerNftCount(address,uint256)": "51f038c5",
			"getPlayerNftTotalHealth(address,uint256)": "f399a751",
			"holders(address,uint256)": "ef463b64",
			"isApprovedForAll(address,address)": "e985e9c5",
			"marketing_contestWallet()": "e13401e4",
			"maxNftsAmount(uint256)": "80fba42f",
			"mint(uint256,uint256)": "1b2ef1ca",
			"mintedNftsAmount(uint256)": "57668602",
			"name()": "06fdde03",
			"nftMintPrice(uint256)": "c0ff4bb4",
			"owner()": "8da5cb5b",
			"pancakeswapV2Router()": "e5dffed3",
			"payWinnings(uint256[],uint256[],address,address)": "636737d5",
			"removeFromWhiteList(address)": "01bf6648",
			"renounceOwnership()": "715018a6",
			"revive(uint256,uint256)": "6a884b8f",
			"safeBatchTransferFrom(address,address,uint256[],uint256[],bytes)": "2eb2c2d6",
			"safeTransferFrom(address,address,uint256,uint256,bytes)": "f242432a",
			"setApprovalForAll(address,bool)": "a22cb465",
			"singlePlayeramount(address,uint256)": "ae95f107",
			"spMaxNftAmount_perNft()": "009f8882",
			"starPrivatetMint()": "b4ecbe22",
			"startMint()": "2be09561",
			"supportsInterface(bytes4)": "01ffc9a7",
			"symbol()": "95d89b41",
			"teamWallet()": "59927044",
			"transferOwnership(address)": "f2fde38b",
			"uri(uint256)": "0e89341c",
			"whiteListMint(uint256,uint256)": "ce24359c"
		}
	},
	"abi": [
		{
			"inputs": [],
			"stateMutability": "nonpayable",
			"type": "constructor"
		},
		{
			"anonymous": false,
			"inputs": [
				{
					"indexed": true,
					"internalType": "address",
					"name": "account",
					"type": "address"
				},
				{
					"indexed": true,
					"internalType": "address",
					"name": "operator",
					"type": "address"
				},
				{
					"indexed": false,
					"internalType": "bool",
					"name": "approved",
					"type": "bool"
				}
			],
			"name": "ApprovalForAll",
			"type": "event"
		},
		{
			"anonymous": false,
			"inputs": [
				{
					"indexed": true,
					"internalType": "address",
					"name": "previousOwner",
					"type": "address"
				},
				{
					"indexed": true,
					"internalType": "address",
					"name": "newOwner",
					"type": "address"
				}
			],
			"name": "OwnershipTransferred",
			"type": "event"
		},
		{
			"anonymous": false,
			"inputs": [
				{
					"indexed": true,
					"internalType": "address",
					"name": "operator",
					"type": "address"
				},
				{
					"indexed": true,
					"internalType": "address",
					"name": "from",
					"type": "address"
				},
				{
					"indexed": true,
					"internalType": "address",
					"name": "to",
					"type": "address"
				},
				{
					"indexed": false,
					"internalType": "uint256[]",
					"name": "ids",
					"type": "uint256[]"
				},
				{
					"indexed": false,
					"internalType": "uint256[]",
					"name": "values",
					"type": "uint256[]"
				}
			],
			"name": "TransferBatch",
			"type": "event"
		},
		{
			"anonymous": false,
			"inputs": [
				{
					"indexed": true,
					"internalType": "address",
					"name": "operator",
					"type": "address"
				},
				{
					"indexed": true,
					"internalType": "address",
					"name": "from",
					"type": "address"
				},
				{
					"indexed": true,
					"internalType": "address",
					"name": "to",
					"type": "address"
				},
				{
					"indexed": false,
					"internalType": "uint256",
					"name": "id",
					"type": "uint256"
				},
				{
					"indexed": false,
					"internalType": "uint256",
					"name": "value",
					"type": "uint256"
				}
			],
			"name": "TransferSingle",
			"type": "event"
		},
		{
			"anonymous": false,
			"inputs": [
				{
					"indexed": false,
					"internalType": "string",
					"name": "value",
					"type": "string"
				},
				{
					"indexed": true,
					"internalType": "uint256",
					"name": "id",
					"type": "uint256"
				}
			],
			"name": "URI",
			"type": "event"
		},
		{
			"inputs": [],
			"name": "MaxBabyDragon_per_player",
			"outputs": [
				{
					"internalType": "uint256",
					"name": "",
					"type": "uint256"
				}
			],
			"stateMutability": "view",
			"type": "function"
		},
		{
			"inputs": [],
			"name": "MaxDragon_per_player",
			"outputs": [
				{
					"internalType": "uint256",
					"name": "",
					"type": "uint256"
				}
			],
			"stateMutability": "view",
			"type": "function"
		},
		{
			"inputs": [],
			"name": "MaxDrone_per_player",
			"outputs": [
				{
					"internalType": "uint256",
					"name": "",
					"type": "uint256"
				}
			],
			"stateMutability": "view",
			"type": "function"
		},
		{
			"inputs": [],
			"name": "MaxGolem_per_player",
			"outputs": [
				{
					"internalType": "uint256",
					"name": "",
					"type": "uint256"
				}
			],
			"stateMutability": "view",
			"type": "function"
		},
		{
			"inputs": [],
			"name": "MaxGrandWarden_per_player",
			"outputs": [
				{
					"internalType": "uint256",
					"name": "",
					"type": "uint256"
				}
			],
			"stateMutability": "view",
			"type": "function"
		},
		{
			"inputs": [],
			"name": "MaxLand_per_player",
			"outputs": [
				{
					"internalType": "uint256",
					"name": "",
					"type": "uint256"
				}
			],
			"stateMutability": "view",
			"type": "function"
		},
		{
			"inputs": [],
			"name": "MaxStoneWall_per_player",
			"outputs": [
				{
					"internalType": "uint256",
					"name": "",
					"type": "uint256"
				}
			],
			"stateMutability": "view",
			"type": "function"
		},
		{
			"inputs": [],
			"name": "MaxWoodWall_per_player",
			"outputs": [
				{
					"internalType": "uint256",
					"name": "",
					"type": "uint256"
				}
			],
			"stateMutability": "view",
			"type": "function"
		},
		{
			"inputs": [],
			"name": "Mint",
			"outputs": [
				{
					"internalType": "bool",
					"name": "",
					"type": "bool"
				}
			],
			"stateMutability": "view",
			"type": "function"
		},
		{
			"inputs": [],
			"name": "PublicMint",
			"outputs": [
				{
					"internalType": "bool",
					"name": "",
					"type": "bool"
				}
			],
			"stateMutability": "view",
			"type": "function"
		},
		{
			"inputs": [
				{
					"internalType": "address",
					"name": "user",
					"type": "address"
				}
			],
			"name": "addToWhiteList",
			"outputs": [],
			"stateMutability": "nonpayable",
			"type": "function"
		},
		{
			"inputs": [
				{
					"internalType": "address",
					"name": "account",
					"type": "address"
				},
				{
					"internalType": "uint256",
					"name": "id",
					"type": "uint256"
				}
			],
			"name": "balanceOf",
			"outputs": [
				{
					"internalType": "uint256",
					"name": "",
					"type": "uint256"
				}
			],
			"stateMutability": "view",
			"type": "function"
		},
		{
			"inputs": [
				{
					"internalType": "address[]",
					"name": "accounts",
					"type": "address[]"
				},
				{
					"internalType": "uint256[]",
					"name": "ids",
					"type": "uint256[]"
				}
			],
			"name": "balanceOfBatch",
			"outputs": [
				{
					"internalType": "uint256[]",
					"name": "",
					"type": "uint256[]"
				}
			],
			"stateMutability": "view",
			"type": "function"
		},
		{
			"inputs": [],
			"name": "endMint",
			"outputs": [],
			"stateMutability": "nonpayable",
			"type": "function"
		},
		{
			"inputs": [],
			"name": "endPrivatetMint",
			"outputs": [],
			"stateMutability": "nonpayable",
			"type": "function"
		},
		{
			"inputs": [],
			"name": "gameDevWallet",
			"outputs": [
				{
					"internalType": "address payable",
					"name": "",
					"type": "address"
				}
			],
			"stateMutability": "view",
			"type": "function"
		},
		{
			"inputs": [
				{
					"internalType": "address",
					"name": "account",
					"type": "address"
				},
				{
					"internalType": "uint256",
					"name": "id",
					"type": "uint256"
				}
			],
			"name": "getPlayerNftAmount",
			"outputs": [
				{
					"internalType": "uint256",
					"name": "",
					"type": "uint256"
				}
			],
			"stateMutability": "view",
			"type": "function"
		},
		{
			"inputs": [
				{
					"internalType": "address",
					"name": "account",
					"type": "address"
				},
				{
					"internalType": "uint256",
					"name": "id",
					"type": "uint256"
				}
			],
			"name": "getPlayerNftCount",
			"outputs": [
				{
					"internalType": "uint256",
					"name": "",
					"type": "uint256"
				}
			],
			"stateMutability": "view",
			"type": "function"
		},
		{
			"inputs": [
				{
					"internalType": "address",
					"name": "account",
					"type": "address"
				},
				{
					"internalType": "uint256",
					"name": "id",
					"type": "uint256"
				}
			],
			"name": "getPlayerNftTotalHealth",
			"outputs": [
				{
					"internalType": "uint256",
					"name": "",
					"type": "uint256"
				}
			],
			"stateMutability": "view",
			"type": "function"
		},
		{
			"inputs": [
				{
					"internalType": "address",
					"name": "",
					"type": "address"
				},
				{
					"internalType": "uint256",
					"name": "",
					"type": "uint256"
				}
			],
			"name": "holders",
			"outputs": [
				{
					"internalType": "uint256",
					"name": "totalHealth",
					"type": "uint256"
				},
				{
					"internalType": "uint256",
					"name": "amount",
					"type": "uint256"
				}
			],
			"stateMutability": "view",
			"type": "function"
		},
		{
			"inputs": [
				{
					"internalType": "address",
					"name": "account",
					"type": "address"
				},
				{
					"internalType": "address",
					"name": "operator",
					"type": "address"
				}
			],
			"name": "isApprovedForAll",
			"outputs": [
				{
					"internalType": "bool",
					"name": "",
					"type": "bool"
				}
			],
			"stateMutability": "view",
			"type": "function"
		},
		{
			"inputs": [],
			"name": "marketing_contestWallet",
			"outputs": [
				{
					"internalType": "address payable",
					"name": "",
					"type": "address"
				}
			],
			"stateMutability": "view",
			"type": "function"
		},
		{
			"inputs": [
				{
					"internalType": "uint256",
					"name": "",
					"type": "uint256"
				}
			],
			"name": "maxNftsAmount",
			"outputs": [
				{
					"internalType": "uint256",
					"name": "",
					"type": "uint256"
				}
			],
			"stateMutability": "view",
			"type": "function"
		},
		{
			"inputs": [
				{
					"internalType": "uint256",
					"name": "id",
					"type": "uint256"
				},
				{
					"internalType": "uint256",
					"name": "amount",
					"type": "uint256"
				}
			],
			"name": "mint",
			"outputs": [],
			"stateMutability": "payable",
			"type": "function"
		},
		{
			"inputs": [
				{
					"internalType": "uint256",
					"name": "",
					"type": "uint256"
				}
			],
			"name": "mintedNftsAmount",
			"outputs": [
				{
					"internalType": "uint256",
					"name": "",
					"type": "uint256"
				}
			],
			"stateMutability": "view",
			"type": "function"
		},
		{
			"inputs": [],
			"name": "name",
			"outputs": [
				{
					"internalType": "string",
					"name": "",
					"type": "string"
				}
			],
			"stateMutability": "view",
			"type": "function"
		},
		{
			"inputs": [
				{
					"internalType": "uint256",
					"name": "",
					"type": "uint256"
				}
			],
			"name": "nftMintPrice",
			"outputs": [
				{
					"internalType": "uint256",
					"name": "",
					"type": "uint256"
				}
			],
			"stateMutability": "view",
			"type": "function"
		},
		{
			"inputs": [],
			"name": "owner",
			"outputs": [
				{
					"internalType": "address",
					"name": "",
					"type": "address"
				}
			],
			"stateMutability": "view",
			"type": "function"
		},
		{
			"inputs": [],
			"name": "pancakeswapV2Router",
			"outputs": [
				{
					"internalType": "contract IPancakeRouter02",
					"name": "",
					"type": "address"
				}
			],
			"stateMutability": "view",
			"type": "function"
		},
		{
			"inputs": [
				{
					"internalType": "uint256[]",
					"name": "player1destructionlist",
					"type": "uint256[]"
				},
				{
					"internalType": "uint256[]",
					"name": "player2destructionlist",
					"type": "uint256[]"
				},
				{
					"internalType": "address",
					"name": "player1",
					"type": "address"
				},
				{
					"internalType": "address",
					"name": "player2",
					"type": "address"
				}
			],
			"name": "payWinnings",
			"outputs": [],
			"stateMutability": "nonpayable",
			"type": "function"
		},
		{
			"inputs": [
				{
					"internalType": "address",
					"name": "user",
					"type": "address"
				}
			],
			"name": "removeFromWhiteList",
			"outputs": [],
			"stateMutability": "nonpayable",
			"type": "function"
		},
		{
			"inputs": [],
			"name": "renounceOwnership",
			"outputs": [],
			"stateMutability": "nonpayable",
			"type": "function"
		},
		{
			"inputs": [
				{
					"internalType": "uint256",
					"name": "id",
					"type": "uint256"
				},
				{
					"internalType": "uint256",
					"name": "amount",
					"type": "uint256"
				}
			],
			"name": "revive",
			"outputs": [],
			"stateMutability": "payable",
			"type": "function"
		},
		{
			"inputs": [
				{
					"internalType": "address",
					"name": "from",
					"type": "address"
				},
				{
					"internalType": "address",
					"name": "to",
					"type": "address"
				},
				{
					"internalType": "uint256[]",
					"name": "ids",
					"type": "uint256[]"
				},
				{
					"internalType": "uint256[]",
					"name": "amounts",
					"type": "uint256[]"
				},
				{
					"internalType": "bytes",
					"name": "data",
					"type": "bytes"
				}
			],
			"name": "safeBatchTransferFrom",
			"outputs": [],
			"stateMutability": "nonpayable",
			"type": "function"
		},
		{
			"inputs": [
				{
					"internalType": "address",
					"name": "from",
					"type": "address"
				},
				{
					"internalType": "address",
					"name": "to",
					"type": "address"
				},
				{
					"internalType": "uint256",
					"name": "id",
					"type": "uint256"
				},
				{
					"internalType": "uint256",
					"name": "amount",
					"type": "uint256"
				},
				{
					"internalType": "bytes",
					"name": "data",
					"type": "bytes"
				}
			],
			"name": "safeTransferFrom",
			"outputs": [],
			"stateMutability": "nonpayable",
			"type": "function"
		},
		{
			"inputs": [
				{
					"internalType": "address",
					"name": "operator",
					"type": "address"
				},
				{
					"internalType": "bool",
					"name": "approved",
					"type": "bool"
				}
			],
			"name": "setApprovalForAll",
			"outputs": [],
			"stateMutability": "nonpayable",
			"type": "function"
		},
		{
			"inputs": [
				{
					"internalType": "address",
					"name": "",
					"type": "address"
				},
				{
					"internalType": "uint256",
					"name": "",
					"type": "uint256"
				}
			],
			"name": "singlePlayeramount",
			"outputs": [
				{
					"internalType": "uint256",
					"name": "",
					"type": "uint256"
				}
			],
			"stateMutability": "view",
			"type": "function"
		},
		{
			"inputs": [],
			"name": "spMaxNftAmount_perNft",
			"outputs": [
				{
					"internalType": "uint256",
					"name": "",
					"type": "uint256"
				}
			],
			"stateMutability": "view",
			"type": "function"
		},
		{
			"inputs": [],
			"name": "starPrivatetMint",
			"outputs": [],
			"stateMutability": "nonpayable",
			"type": "function"
		},
		{
			"inputs": [],
			"name": "startMint",
			"outputs": [],
			"stateMutability": "nonpayable",
			"type": "function"
		},
		{
			"inputs": [
				{
					"internalType": "bytes4",
					"name": "interfaceId",
					"type": "bytes4"
				}
			],
			"name": "supportsInterface",
			"outputs": [
				{
					"internalType": "bool",
					"name": "",
					"type": "bool"
				}
			],
			"stateMutability": "view",
			"type": "function"
		},
		{
			"inputs": [],
			"name": "symbol",
			"outputs": [
				{
					"internalType": "string",
					"name": "",
					"type": "string"
				}
			],
			"stateMutability": "view",
			"type": "function"
		},
		{
			"inputs": [],
			"name": "teamWallet",
			"outputs": [
				{
					"internalType": "address payable",
					"name": "",
					"type": "address"
				}
			],
			"stateMutability": "view",
			"type": "function"
		},
		{
			"inputs": [
				{
					"internalType": "address",
					"name": "newOwner",
					"type": "address"
				}
			],
			"name": "transferOwnership",
			"outputs": [],
			"stateMutability": "nonpayable",
			"type": "function"
		},
		{
			"inputs": [
				{
					"internalType": "uint256",
					"name": "",
					"type": "uint256"
				}
			],
			"name": "uri",
			"outputs": [
				{
					"internalType": "string",
					"name": "",
					"type": "string"
				}
			],
			"stateMutability": "view",
			"type": "function"
		},
		{
			"inputs": [
				{
					"internalType": "uint256",
					"name": "id",
					"type": "uint256"
				},
				{
					"internalType": "uint256",
					"name": "amount",
					"type": "uint256"
				}
			],
			"name": "whiteListMint",
			"outputs": [],
			"stateMutability": "payable",
			"type": "function"
		}
	]
}